:020000040800F2
:10000000D84600200101000809140008091400085E
:100010000914000809140008091400080000000071
:1000200000000000000000000000000009140008AB
:10003000091400080000000009140008312A000813
:100040001B0100081B0100081B0100081B01000820
:100050001B0100081B0100081B0100081B01000810
:100060001B0100081B0100081B0100086D0B0008A4
:10007000890B0008A50B0008090C00082D0C0008CE
:10008000510C0008B50C00081B0100081B010008FA
:10009000BD5900081B0100081B0100081B010008D6
:1000A0001B0100081B0100081B0100081B010008C0
:1000B0001B0100081B0100081B0100081B010008B0
:1000C0001B0100081B0100081B0100081B010008A0
:1000D0001B0100084D2F0008413200081B010008D9
:1000E0001B0100081B0100081B010008DFF80CD0F1
:1000F00000F02AF800480047BD5B0008D846002001
:100100000648804706480047FEE7FEE7FEE7FEE7B1
:10011000FEE7FEE7FEE7FEE7FEE7FEE7E92A000866
:10012000ED00000840EA01039B0703D009E008C97D
:10013000121F08C0042AFAD203E011F8013B00F8AC
:10014000013B521EF9D27047064C074D06E0E068AD
:1001500040F0010394E8070098471034AC42F6D30E
:10016000FFF7C8FFEC6200080C63000870B5174E7B
:10017000F06A804710F0020F08BF70BD144C25686C
:10018000706A804761682844411AB1F5806FA4BF46
:100190006068084415DA0029D8BF70BD6068C0F3F4
:1001A0000900C0F5806081420DDC6068094AC0F337
:1001B0000900104404F096F80028C6BF616808449E
:1001C00070BD606070BD0146EFE70000E0600008B0
:1001D00060000020D63200202DE9F04F02788FB069
:1001E000A2F180031F2B04D800F09CFC0FB0BDE8E7
:1001F000F08F01F8012B0F460178451C1F2980F074
:100200007E84DFE811F01F005E007A008F00D801C5
:10021000E60196037C0441049800AC007C047C0455
:100220007C047C047C04B3001A0144015701AE0134
:10023000C901D20156045B04600465046A047304B6
:1002400063016E042978781C0024062933D006DC6B
:10025000052930D2DFE801F02F2F2F2F0E00FD29C6
:1002600018D002DCF02926D10AE0FE2920D0FF298F
:1002700018D020E006242246F949FFF753FF1AE080
:10028000F8490968002918BF202141F015010170C3
:10029000012410E000211022017042708170C170B1
:1002A000042408E04021017000214170022402E092
:1002B0004021017001243C700FB004F10210BDE830
:1002C000F08F287830B101280BD0FF203870E64835
:1002D00000F010BCE5496878096800F00100096881
:1002E00005E0E2496878096800F00100496888473C
:1002F00000203870DC4800F0FDBB2C78002C08BFD3
:10030000012409D0012C18BF002405D087F8004033
:100310004FF0011000F0EEBBD5490120087001F04C
:1003200015F9F3E7D2480024047001F0FDF83C70A1
:10033000012000F0DFBBCB49CE4A28880968B1FB19
:10034000F2F1CD4A891CA2FB012149084843B0F1D2
:10035000004F80F0DC83401E0028FCDCC8E7012051
:10036000787000203870022000F0C4BB2E786C78C2
:100370006879D5F8025014F0010F60F31F6507D0BB
:1003800016F0010F4FF400500CBFBC49BC49086087
:1003900014F0020F07D016F0020F4FF480400CBF8C
:1003A000B649B749086014F0800F1CBFF00905F08A
:1003B000C1FD8DB30120B34A5168B34DA5F1040CC2
:1003C00014F0010F04D02B68C3F34033B3421FD1A4
:1003D00014F0020F06D0DCF80030C3F38033B3EB27
:1003E000560F15D114F0040F18BF5FEA96030FD112
:1003F00014F0200F18BF5FEA561309D114F0800FD4
:100400000AD0DCF8003003F00103B3EBD61F03D0B1
:1004100053685B1A9842D3D89B48006800F4005197
:100420009A480268006802F480421143490B41EA8D
:10043000C0103870964800F05DBBE978286861F319
:100440001F6048B187490A68B0EB920F09D388480A
:1004500001214170416015E0FF2038708D4800F0A7
:1004600049BB00EB5202521EB2FBF0F08049002360
:1004700002284B7098BF012003D97F4AA2FB0020BD
:100480004008486000203870824800F033BB2C7868
:10049000691C002C08BF4FF48074204602F022F93A
:1004A00000203870E01DC0080121401C41EA0040D6
:1004B00000F020BB287800F003014A1C6C49C0F30F
:1004C00080000A7648760020387021E7002007F87F
:1004D000010B012615F8010BB046441E28BFDFF8BA
:1004E000B8A13AD315F8019B19F03F0108BF40218C
:1004F000C81D4FEAD00BDAF8000019F0800F20F089
:10050000706014BF40F0006040F04070CAF8000016
:100510004FF4804114BF5A48584801603A46294672
:10052000484601F023FB5CB9DAF8000020F0706067
:1005300040F04070CAF8000050494FF48040086015
:1005400019F0800F03D05F44D844761C03E006EB1B
:100550000B005D44461C641EC4D248EA064000F00D
:10056000C9BAFF203870012215F8011B1346002973
:100570000EDD00BF15F8010B10F03F0008BF402052
:10058000C01DC00805441044421C491E0029F1DC6E
:1005900043EA024000F0AEBA2878FF213970012109
:1005A000401C41EA004000F0A5BAFF2038704FF02F
:1005B000011000F09FBA2E4829780173B5F8011098
:1005C0000182B5F80310418200203870334800F0F2
:1005D00091BA274E3078012818D0691C11F8010B08
:1005E00058B100BF11F8012B12F0020F02D012F027
:1005F000100F00D0091D401EF4D100203870787013
:10060000481B022141EA004000F074BACDE90475AC
:100610000020B91C224F0B900091387008900A906E
:1006200095F80180AD1CB8F1000F00F0778100BF94
:1006300015F8019B19F0020F71D0089991B3348A13
:1006400009F0110001282ED102A9484601F00EFB45
:10065000022830D1641E61D339780029F4D0C9E072
:10066000F45F00080C0000200100020008000020D8
:100670000801002040420F00ABAAAAAA140C0140B6
:10068000100C0140001000E00C0C0140080C01406F
:100690000100060001000400040C014001000500F7
:1006A0002000002023E002A90E2001F0DFFA02283A
:1006B00004D000210891012830D107E0641E02D344
:1006C00039780029EFD00021089193E0009A02992F
:1006D0001170029A0099120A01F8012F029A120C65
:1006E00001F8012F029A120E4A70891C009119F02C
:1006F000100F40D0E87855F804ABB6F812B060F3AC
:100700001F6A19F0010F18BF348A0FD00021484624
:1007100001F0ACFA022803D0012807D06AE07CE09F
:10072000641E67D339780029F0D063E0348A02A9C7
:10073000484601F09BFA022802D0012806D010E0BA
:10074000641E0ED339780029F1D00AE07169029A4B
:100750001140514505D0BBF1010B02D33978002976
:10076000E4D07169029A1140514518BF40F0100061
:1007700001283FD137E0348A19F0010F13D00899CE
:1007800089BB0021484601F071FA022805D00128F2
:1007900004BF0121089126D02CE0641E2AD33978A9
:1007A0000029EED026E002A9484601F05FFA0228AF
:1007B00002D0012806D01DE0641E1BD33978002921
:1007C000F1D017E0009A02991170029A0099120A6A
:1007D00001F8012F029A120C01F8012F029A120E51
:1007E0004A70891C009100210A910B99491C0B91B8
:1007F0003978D9B3B8F1000F0CD000BF15F8011B40
:1008000011F0020F02D011F0100F00D02D1DB8F121
:100810000108F3D101284BD080E00898002818BFC8
:10082000348A1AD002A90E2001F020FA02282ED014
:100830000128DFD100990298087002990098090AEE
:1008400000F8011F0299090C00F8011F0299090E16
:100850004170801C009000200890E87855F8041B37
:1008600019F0200F60F31F61029100E01BE01ABF36
:1008700071610120348AB8D102A9484601F0F6F925
:1008800002280AD0012808BF0121ADD0B2E7641EBA
:10089000B0D339780029C5D0ACE7641EAAD3397823
:1008A0000029E9D0A6E7B8F101087FF4C1AEB1E7AD
:1008B0000899002918BF348A20D002A90E2001F01F
:1008C000D5F9022802D0012806D027E0641E25D3DE
:1008D00039780029F1D021E0009A02991170029A2A
:1008E0000099120A01F8012F029A120C01F8012F47
:1008F000029A120E4A70891C00910FE00A99002991
:1009000018BF348A0AD000210E2001F0AFF9022866
:1009100004D1641E02D339780029F4D0049A0B99CB
:1009200011700499487004990098411A0598281A82
:1009300068E679480995007801280DD000203870C4
:100940007870B87003200999C97811F0020F18BFA8
:1009500040F4802073D18EE0DFF8C0814FF00009B1
:100960004846FE1C88F800906C1C34F8025B95B376
:1009700014F801AB1AF0020F08BFA5F1010B46D025
:100980001AF0010F1CBF6448048A0FD000215046A2
:1009900001F06CF9022802D0012807D063E0641E40
:1009A00061D398F800100029F0D05CE06C1E28BFDD
:1009B000DFF864B157D324B91AF0010F18BF4FF014
:1009C0000E0ABBF8105007A9504601F04FF9022853
:1009D00002D0012807D046E06D1E44D398F80010DD
:1009E0000029F0D03FE0079906F8011B079909F1AB
:1009F0000109090A06F8011B0799090C06F8011BF1
:100A00000799090E06F8011B641ED4D22BE0E17889
:100A100054F8040B61F31F6007903F48058A07A94B
:100A2000504601F023F9022802D0012808D01AE02C
:100A30006D1E18D398F800100029F0D013E059E08B
:100A400009F10109BBF1010BE1D23348048A00210D
:100A50000E2001F00BF9022805D1641E03D398F88B
:100A600000100029F3D087F800904FEA192179701F
:100A7000B870F01B67E709994FF48022B1F80110B4
:100A800002EB8141084335E023480078012818BF74
:100A9000FF2002D0387022482CE02979D5F80100D7
:100AA00061F31F6000906946002001F0DFF800202C
:100AB000F0E73946284601F09BFF1BE039462846FF
:100AC00001F03EFF16E03946284601F047FE11E0EE
:100AD0003946284601F062FE0CE0384601F058FF26
:100AE00008E03946284601F0EDFE03E03946284685
:100AF00001F07CFE0FB000F10110BDE8F08FFF2087
:100B000007F8010C0FB04FF00110BDE8F08F401E48
:100B1000FDD1FFF7EDBB0000080100202000002000
:100B200001000500FF2008704FF001107047000021
:100B30000A4800210A4A017041701268094BB2FB51
:100B4000F3F2921E4260017364220282418201220A
:100B500041610276417600F0E7BC00000801002008
:100B60000C000020002D310170470000044910B531
:100B7000086800F00F004860FFF7F6FF10BD0000A6
:100B80000000024070470000044910B50868C0F337
:100B9000031002014A60FFF7F5FF10BD000002409C
:100BA00070470000044910B50868C0F30320020232
:100BB0004A60FFF7F5FF10BD000002401148816A4E
:100BC00009684A680146002A496B49681CBF002928
:100BD0007047426B5161426B4FF0000182F8211067
:100BE00041688989426841F040019181016BC9687F
:100BF000022908BF7047006B0168002908BF7047D1
:100C00000120084700600008044910B50868C0F3D7
:100C1000033002034A60FFF7D1FF10BD000002401D
:100C2000014803F0E5B9000000600008044910B570
:100C30000868C0F3034002044A60FFF7F1FF10BDEB
:100C400000000240014803F0D3B9000038600008FA
:100C5000044910B50868C0F3035002054A60FFF765
:100C6000F1FF10BD000002401148816A09684A681E
:100C70000146002A496B49681CBF00297047426B36
:100C80005161426B4FF0000182F82110416889895F
:100C9000426841F040019181016BC968022908BF97
:100CA0007047006B0168002908BF704701200847A2
:100CB00038600008044910B50868C0F303600206F4
:100CC0004A60FFF7D1FF10BD00000240012818BFA5
:100CD000704730B43248426942F001024261002359
:100CE00030480F244FF0E0224FF0010C08294FD27A
:100CF000DFE801F04E040D17222D38438360446075
:100D00004FF40060C2F88002C2F8000140E0C36105
:100D1000F02343604FF48050C2F88002C2F8000113
:100D200036E003634FF4706343604FF40050C2F841
:100D30008002C2F800012BE043644FF4704343602B
:100D40004FF48040C2F88002C2F8000120E08365C1
:100D50004FF4702343604FF40040C2F88002C2F8A1
:100D6000000115E0C3664FF4700343604FF4803018
:100D7000C2F88002C2F800010AE0C0F880304FF0EB
:100D8000706343604FF40030C2F88002C2F8000183
:100D900005480CFA01F102781143017030BC70472C
:100DA000001002400000024038000020012818BF57
:100DB000704730B4DFF8D8C09CF80000002804BFAA
:100DC00030BC7047002001244FF0E022314B08294D
:100DD0004BD2DFE801F04A040E18222C36404FF4C3
:100DE0000065C2F88051BFF34F8FBFF36F8F9860DB
:100DF0003BE04FF48055C2F88051BFF34F8FBFF3F3
:100E00006F8FD86131E04FF40055C2F88051BFF3C5
:100E10004F8FBFF36F8F186327E04FF48045C2F800
:100E20008051BFF34F8FBFF36F8F58641DE04FF4B5
:100E30000045C2F88051BFF34F8FBFF36F8F9865A5
:100E400013E04FF48035C2F88051BFF34F8FBFF3EA
:100E50006F8FD86609E04FF40035C2F88051BFF3B8
:100E60004F8FBFF36F8FC3F8800004FA01F09CF836
:100E7000001031EA00008CF800001CBF30BC704745
:100E80000548416921F00101416130BC7047000013
:100E9000380000200000024000100240084942F2E1
:100EA00028320968B1FBF2F14843B0F1004F03D298
:100EB000401E0028FCDC7047401EFDD1704700003A
:100EC0000C00002030B505464FF4302000F04AF801
:100ED000042818BF30BD0A4C206940F00200206190
:100EE0006561206940F0400020614FF4302000F03F
:100EF00039F8216941F6FD721140216130BD0000D1
:100F0000002002400248016941F080010161704700
:100F10000020024070B506460D464FF4005000F028
:100F200021F8042818BF70BD074C206940F001006B
:100F3000206135804FF4005000F014F8216941F62B
:100F4000FE721140216170BD002002400348024939
:100F5000416003494160704723016745002002401A
:100F6000AB89EFCD174902460420CB6813F0010F7F
:100F700025D1CB6813F0040F18BF02201AD1C9681D
:100F800011F0100F18BF032014E0CB68042013F0F9
:100F9000010F18BF01200AD1CB6813F0040F18BF4E
:100FA000022004D1CB6813F0100F18BF0320521E8B
:100FB000012804D0002A18BF704705207047002A76
:100FC000E3D1FAE70020024081B0002804BF01B05D
:100FD000704714498A6912F0010F03D18A6942F0FF
:100FE00001028A6110F4805FC0F3421200F01F0317
:100FF0000D49C0F3032002FA03F200FA03F007D010
:10100000CB6923EA020210430090C86101B0704727
:101010004B6823EA0202104320F0E0600090486031
:1010200001B0704700100240000001402DE9F001BE
:10103000CB78002203F00F0C13F0100F1CBF8B783D
:1010400043EA0C0C0B784FF00F0613F0FF0F4FF034
:10105000010518BF046819D00F8805FA02F31F4074
:101060009F420FD1970006FA07F824EA08040CFA09
:1010700007F73C43CF78282F08BF436102D0482FA1
:1010800008BF0361521C082AE6D304600A88FF2ABD
:1010900087BF44680022BDE8F001704702F10803F1
:1010A0000F8805FA03F31F409F420FD1970006FAFD
:1010B00007F824EA08040CFA07F73C43CF78282FF6
:1010C00008BF4361CF78482F08BF0361521C082A2C
:1010D000E4D34460BDE8F001704700000F2984BFED
:1010E00000207047F0B504460D463448A4F1804115
:1010F0001F461646B1F5843104BF8069C0F38000F5
:1011000035D0A4F18042B2F5863204BF8069C0F3C5
:10111000C0002CD0A4F18042B2F5883204BF8069AF
:10112000C0F3001023D0A4F18042B2F58A3204BF8C
:101130008069C0F340101AD0A4F18042B2F58C321D
:1011400004BF8069C0F3801011D0A4F18042B2F5D1
:101150008E3204BF8069C0F3C01008D0A4F1804271
:10116000B2F5903204BF8069C0F3002000D118B9F5
:101170000121204600F024F86FB90120A840022E7A
:1011800004BFE16821EA000004D0032E03D1E16826
:1011900002260843E060082D24BF241D083D216875
:1011A000A8000F2282409143216047EA860101FA9C
:1011B00000F02168084320600120F0BD00100240CB
:1011C0002DE9F001344A354BDFF8D4C0354C364DAB
:1011D000364E374FDFF8DC8000292FD0404504BF62
:1011E000906940F0040025D0984204BF906940F017
:1011F00008001FD0604504BF906940F0100019D06E
:10120000A04204BF906940F0200013D0A84204BF60
:10121000906940F040000DD0B04204BF906940F0AA
:10122000800007D0B84207BF906940F48070BDE8E5
:10123000F00170479061BDE8F0017047404504BF80
:10124000906920F00400F5D0984204BF906920F026
:101250000800EFD0604504BF906920F01000E9D08D
:10126000A04204BF906920F02000E3D0A84204BF50
:10127000906920F04000DDD0B04204BF906920F0BA
:101280008000D7D0B84204BF906920F48070D1D0DC
:10129000BDE8F0017047000000100240000C014062
:1012A000001001400014014000180140001C0140E2
:1012B0000020014000080140416170472DE9F041E4
:1012C0000278FF27A2F1D003072B7AD801F8012B6F
:1012D0000C4610F8011BD03908296ED2DFE801F066
:1012E000041215181C2A4A5E4048006804F8010BD5
:1012F000010A04F8011B010C04F8011B000E04F89C
:10130000010B5BE0FFF722FE58E0FFF7FBFD55E025
:101310000068FFF7D7FD51E082880168501E80B257
:101320004CD300BF11F8012BFF2A1BD1401E80B205
:10133000F8D243E08188D0F8008038293ED8851D56
:10134000481E86B23AD300BF15F8011B2EB115F81E
:10135000010B41EA0021701E86B24046FFF7DAFD1C
:10136000042801D0FF2729E0711E8EB208F102087F
:10137000EAD223E0828801683E2A1FD8002004F8C0
:10138000010B501E80B219D330B111F8012B401E51
:1013900004F8012B80B2F7E70F780FE0BFF34F8F0F
:1013A00013480168134A01F4E06111430160BFF37F
:1013B0004F8F00BFFDE704E0FFE7641E2770BDE824
:1013C000F0810D480268002A02BFFF200870BDE8C6
:1013D000F0810A490A48C368806801EB8311094B10
:1013E0005268BDE8F04103EB80101047002004E094
:1013F0000CED00E00400FA0504000020D6220020D5
:101400004C000020D612002082B072B6224800683C
:1014100080F308884FF40074ADF8004010251F4F8A
:101420008DF8035003268DF8026021463846FFF7F9
:1014300043FF69463846FFF7F9FDADF804408DF8E3
:1014400007508DF8066021463846FFF735FF01A9A1
:101450003846FFF7EBFD124E0025371D346064203F
:10146000FFF71CFD3C6034606420FFF717FD3C6013
:101470004FF47A70FFF712FD6D1C052DEEDBBFF304
:101480004F8F08480168084A01F4E0611143016088
:10149000BFF34F8F00BFFDE70000000800080140C8
:1014A000100801400CED00E00400FA050A4A4FF470
:1014B0000071116010F0010F0848417814BF41F02D
:1014C000010121F0010141704FF0E020016941F07C
:1014D0000101016170470000140801400000002074
:1014E0000A4A4FF40071116010F0010F084841786A
:1014F00014BF41F0010121F0010141704FF0E020E3
:10150000016941F0010101617047000014080140C8
:101510000000002021F07F0121F0604108430149D3
:101520000860704708ED00E010B5064C04492046FD
:10153000FFF77CFD2046BDE810400349FFF776BD6C
:10154000CC5F0008000C0140D05F00082DE9F04797
:101550003E4F4FF4C04038603D493E48FFF766FDBE
:101560003E4C3D492046FFF761FDDFF8F480002640
:10157000414640F6C54000F08FF80120401C642829
:10158000FCD3DFF8E0A040F6DD40514600F084F8DF
:101590000220401C6428FCD3414640F6C54000F0C0
:1015A0007BF80220401C6428FCD3514640F6DD4005
:1015B00000F072F8DFF8B09001253EB13D60206880
:1015C00020F00F0040F04800206007E0206820F085
:1015D0000F0040F007002060C9F800506420FFF7BA
:1015E0005DFC0126414640F6C54000F055F8022258
:1015F000521C642AFCD3514640F6DD4000F04CF802
:101600000222521C642AFCD3414640F6C54000F039
:1016100043F80220401C6428FCD3514640F6DD40CC
:1016200000F03AF846B13D60206820F00F0040F02D
:1016300048002060BDE8F087206820F00F0040F0EF
:1016400007002060C9F80050BDE8F087100C014089
:10165000C45F000800080140C85F0008000C01409A
:101660000CED00E00700FA05140C01400648816902
:1016700041F00401816105494FF4004008600449CC
:101680000448FFF7D3BC00000010024014080140DA
:10169000C05F0008000801402DE9F007F74C4FF447
:1016A00080462660251D4FF4005CC5F800C0F44B51
:1016B0005F683A46B7F1004F80F0D9817F1E002F56
:1016C000FCDC00BFC4F800C01746B2F1004F38BFC1
:1016D000571E80F0CF81002FC8BF7F1EFBDC00BFEC
:1016E00010F0010F14BF26602E60C5F800C0174629
:1016F000B2F1004F38BF571E80F0C881002FC8BF1D
:101700007F1EFBDCC4F800C01746B2F1004F38BFA3
:10171000571E80F0BE81002FC8BF7F1EFBDC4FEA42
:101720005009804619F0010F14BF26602E60C5F8DD
:1017300000C01746B2F1004F38BF571E80F0AC8191
:10174000002FC8BF7F1EFBDCC4F800C01746B2F1F3
:10175000004F38BF571E80F0A481002FC8BF7F1EE6
:10176000FBDC4FEA9008814418F0010F14BF26609B
:101770002E60C5F800C01746B2F1004F38BF571EA3
:1017800080F09281002FC8BF7F1EFBDCC4F800C030
:101790001746B2F1004F38BF571E80F08881002FE6
:1017A000C8BF7F1EFBDC00BF09EB08074FEAD0086B
:1017B00018F0010F14BF26602E60C5F800C0104657
:1017C000B2F1004F38BF501E80F074810028C8BFAE
:1017D000401EFBDCC4F800C01046B2F1004F38BF19
:1017E000501E80F06A810028C8BF401EFBDC00BF8D
:1017F00007EB080010F0010F14BF26602E60C5F83B
:1018000000C01046B2F1004F38BF501E80F0588122
:101810000028C8BF401EFBDCC4F800C01046B2F16F
:10182000004F38BF501E80F04E810028C8BF401EB8
:10183000FBDC2E60C5F800C01046B2F1004F38BF87
:10184000501E80F043810028C8BF401EFBDC00BF53
:10185000C4F800C01046B2F1004F38BF501E80F0EF
:1018600038810028C8BF401EFBDC2660C5F800C0D8
:101870001046B2F1004F38BF501E80F02D81002875
:10188000C8BF401EFBDC00BFC4F800C01046B2F168
:10189000004F38BF501E80F024810028C8BF401E72
:1018A000FBDC784F386820F0706040F000603860F2
:1018B00026601B7EB3F100080DD000BFC5F800C044
:1018C000B2F1004F7CD200BFC4F800C0B2F1004FAB
:1018D00077D25B1EF2D1C5F800C01046B2F1004FBE
:1018E00038BF501E6ED20028C8BF401EFBDC6648C1
:1018F000036813F4804318BF0123C4F800C0914665
:10190000B2F1004F38BFA2F101097CD2B9F1000F4A
:10191000C8BFA9F10109F9DCC5F800C09146B2F1D0
:10192000004F38BFA2F101096ED200BFB9F1000F1C
:10193000C8BFA9F10109F9DCD0F8009019F4804F73
:1019400014BF4FF0010A4FF0000AC4F800C09146DE
:10195000B2F1004F38BFA2F101097BD2B9F1000FFB
:10196000C8BFA9F10109F9DC43EA4A09C5F800C07A
:101970001346B2F1004F38BF531E6CD2002BC8BFC4
:101980005B1EFBDC006810F4804F14BF01230023B2
:10199000C4F800C01046B2F1004F38BF501E6CD2E0
:1019A0000028C8BF401EFBDC49EA8300B8F1000FE5
:1019B00011D000BFC5F800C0B2F1004F6FD202E0F5
:1019C00092E097E09CE0C4F800C0B2F1004F67D20B
:1019D000B8F10108EED13B6823F0706343F0407327
:1019E0003B602E604FF000084FF0200911F0010F0E
:1019F00014BF26602E60C5F800C0B2F1004F6ED251
:101A0000C4F800C001E07EE081E0B2F1004F67D28F
:101A100088444908B9F10109E8D118F0010F14BF51
:101A200026602E60C5F800C01146B2F1004F38BFE5
:101A3000511E70D20029C8BF491EFBDCC4F800C08B
:101A4000B2F1004F38BF511E70D20029C8BF491EE5
:101A5000FBDC01E060E063E0396821F0706141F097
:101A6000407139602E602660BDE8F00770477F1E28
:101A7000FDD127E67F1EFDD132E654E0100C014077
:101A800008010020040C0140080C01407F1EFDD11C
:101A900038E67F1EFDD142E67F1EFDD154E646E0CA
:101AA0004BE07F1EFDD15CE67F1EFDD16EE67F1E02
:101AB000FDD179E6401EFDD18CE6401EFDD197E6B2
:101AC000401EFDD1A8E6401EFDD1B2E6401EFDD16C
:101AD000BEE6401EFDD1C8E6401EFDD1D4E632E090
:101AE00037E0401EFDD1DCE6501E3FF4EDAE401E57
:101AF000FDD1E9E6501E3FF4ECAE401EFDD1E8E614
:101B0000401EFDD1F3E6B9F10109FCD104E7B9F1BA
:101B10000109FCD110E722E0B9F10109FCD123E76A
:101B20005B1EFDD12EE7401EFDD13DE71AE0531E9E
:101B30003FF445AF5B1EFDD141E7531E3FF448AF74
:101B40005B1EFDD144E7531E3FF45AAF5B1EFDD12F
:101B500056E7531E3FF45CAF5B1EFDD158E7491EAC
:101B6000FDD16BE7521EFDD173E700002DE9F007B0
:101B700010F03F0308BF402310F0800FDFF8E09023
:101B8000DFF8E0A04FF40055A9F104062FD0002B98
:101B900012BFDFF8D480BDE8F007704700270824A3
:101BA000DAF804C018E000BFC9F800506146BCF183
:101BB000004F49D2D8F8000010F4804F14BF012123
:101BC000002135606046BCF1004F40D278085B1EB2
:101BD00040EAC117641E01D0002BE5D127FA04F0BA
:101BE00002F8010B002BD9D1BDE8F0077047002B9C
:101BF00019BF4FF4804CDAF80420BDE8F0077047B5
:101C000011F8014B082715E014F0010F14BFC6F8B6
:101C100000C0C9F800C0C9F800501046B2F1004F2A
:101C200018D235601046B2F1004F16D264085B1E20
:101C30007F1E04D0002BE7D1BDE8F0077047002BD2
:101C4000DED1BDE8F0077047491EFDD1B2E7401E66
:101C5000FDD1BBE7401EFDD1E3E7401EFDD1E5E726
:101C6000140C014008010020080C0140034A52787E
:101C70000AB100F005B800F07BB9000008010020AF
:101C80002DE9F04FDFF8D4C24FF4804ACCF800A021
:101C90000CF104074FF40058C7F80080CCF800801E
:101CA00010F0010F14BFCCF800A0C7F800A0C7F8CF
:101CB0000080CCF80080420812F0010F14BFCCF86D
:101CC00000A0C7F800A0C7F80080CCF800808318F7
:101CD000820812F0010F14BFCCF800A0C7F800A0D2
:101CE000C7F80080CCF800801344C20812F0010F3E
:101CF00014BFCCF800A0C7F800A0C7F80080CCF84B
:101D000000801A4412F0010F14BFCCF800A0C7F8ED
:101D100000A0C7F80080CCF80080C7F800A0C7F882
:101D20000080CCF80080CCF800A0C7F80080CCF888
:101D30000080DFF82CB2DBF8002022F0706242F065
:101D40000062CBF80020CCF800A0DFF818E29EF883
:101D50001820131E06D000BFC7F80080CCF8008002
:101D6000521EF9D1C7F80080DFF8FC91D9F80020A5
:101D700012F4804218BF0122CCF80080C7F800801E
:101D8000D9F8004014F4804418BF0124CCF8008036
:101D900042EA4402C7F80080D9F8004014F48044B5
:101DA00018BF0124CCF8008042EA8402012A1CD02A
:101DB000022A18BF042A7DD013F1210006D000BFEB
:101DC000C7F80080CCF80080401EF9D1DBF8000095
:101DD00020F0706040F04070CBF80000C7F800A021
:101DE000CCF800A01046BDE8F08F10F0020F4ED0E6
:101DF00000252C465FF02003C7F80080D9F800606A
:101E000016F4804618BF0126CCF800806D083444D3
:101E100045EAC6755B1EEFD14346C7F80080D9F886
:101E2000006016F4804618BF0126CCF800307440DC
:101E300014F0010F18BF0822002918BF0D609EF88A
:101E4000181021B13B60CCF80030491EFAD1DBF804
:101E5000001021F0706141F04071CBF80010C7F81C
:101E600000A000BF10F0800F03D040484068CEF8BB
:101E700008009EF80C00002818BFC7F800A067D023
:101E8000C7F80080CCF80080401EF9D160E02BB18B
:101E9000C7F80080CCF800805B1EF9D1DBF8003079
:101EA00023F0706343F04073CBF80030C7F800A014
:101EB000096800E01DE000235FF0200411F0010F2D
:101EC00014BFCCF800A0C7F800A0C7F80080CCF879
:101ED00000800B444908641EF0D113F0010F14BFB9
:101EE000CCF800A0C7F800A0C7F80080CCF80080AC
:101EF000B8E79EF81940002C1CBF10F0020F2121FA
:101F000006D000BFC7F80080CCF80080491EF9D188
:101F100033B100BFC7F80080CCF800805B1EF9D158
:101F2000DBF8001021F0706141F04071CBF8001037
:101F3000C7F800A064B110F0020F04BFC7F800A0FA
:101F4000212005D1C7F80080CCF80080401EF9D1CF
:101F5000CCF800A01046BDE8F08F0000100C014046
:101F6000040C014008010020080C0140001000E0B2
:101F70002DE9F04FDFF80CC44FF4804ECCF800E0B0
:101F80000CF1040A4FF40059CAF80090FE4E726832
:101F90001346B2F1004F80F0D7825B1E002BFCDCB1
:101FA000CCF800901346B2F1004F38BF531E80F0BA
:101FB000CE82002BC8BF5B1EFBDC00BF10F0010F00
:101FC00014BFCCF800E0CAF800E0CAF8009013464D
:101FD000B2F1004F38BF531E80F0BC82002BC8BF47
:101FE0005B1EFBDCCCF800901346B2F1004F38BF0B
:101FF000531E80F0B282002BC8BF5B1EFBDC45087D
:10200000044615F0010F14BFCCF800E0CAF800E058
:10201000CAF800901346B2F1004F38BF531E80F04B
:102020009F82002BC8BF5B1EFBDC00BFCCF800907A
:102030001346B2F1004F38BF531E80F09482002B3C
:10204000C8BF5B1EFBDC8408054414F0010F14BFFD
:10205000CCF800E0CAF800E0CAF800901346B2F1EC
:10206000004F38BF531E80F08182002BC8BF5B1E1B
:10207000FBDC00BFCCF800901346B2F1004F38BF34
:10208000531E80F07882002BC8BF5B1EFBDC25440A
:10209000C40814F0010F14BFCCF800E0CAF800E047
:1020A000CAF800901346B2F1004F38BF531E80F0BB
:1020B0006582002BC8BF5B1EFBDC00BFCCF8009024
:1020C0001346B2F1004F38BF531E80F05A82002BE6
:1020D000C8BF5B1EFBDC2B1913F0010F14BFCCF83B
:1020E00000E0CAF800E0CAF800901346B2F1004FD1
:1020F00038BF531E80F04882002BC8BF5B1EFBDC3C
:10210000CCF800901346B2F1004F38BF531E80F058
:102110003E82002BC8BF5B1EFBDC00BFCAF800E09C
:10212000CAF800901346B2F1004F38BF531E80F03A
:102130003182002BC8BF5B1EFBDC00BFCCF80090D7
:102140001346B2F1004F38BF531E80F02682002B99
:10215000C8BF5B1EFBDC00BFCCF800E0CAF80090F3
:102160001346B2F1004F38BF531E80F01982002B86
:10217000C8BF5B1EFBDC00BFCCF800901346B2F179
:10218000004F38BF531E80F01082002BC8BF5B1E6B
:10219000FBDC7E4B1C6824F0706444F000641C601F
:1021A000CCF800E0347E251E0ED000BFCAF80090A7
:1021B000B2F1004F80F0FC81CCF80090B2F1004FFA
:1021C00080F0FC81641EF1D1CAF800901346B2F190
:1021D000004F38BF531E80F0F981002BC8BF5B1E33
:1021E000FBDCDFF8ACB1DBF8003013F4804318BF40
:1021F0000123CCF800901446B2F1004F38BF541EB2
:1022000080F0E781002CC8BF641EFBDCCAF8009098
:102210001446B2F1004F38BF541E80F0DD81002C0F
:10222000C8BF641EFBDC00BFDBF8004014F4804430
:1022300018BF0124CCF800901746B2F1004F38BF08
:10224000571E80F0CC81002FC8BF7F1EFBDC00BF73
:1022500043EA4403CAF800901446B2F1004F38BF75
:10226000541E80F0BF81002CC8BF641EFBDC00BF81
:10227000DBF8004014F4804418BF0124CCF800902F
:102280001646B2F1004F38BF561E80F0AE81002EC8
:10229000C8BF761EFBDC00BF43EA8404012C23D0B8
:1022A000022C18BF042C75D015F121010ED000BFEF
:1022B000CAF80090B2F1004F80F00282CCF8009092
:1022C000B2F1004F80F00282491EF1D12F4801681F
:1022D00021F0706141F040710160CAF800E0CCF873
:1022E00000E02046BDE8F08F10F0020F69D04FF0FB
:1022F000000847465FF02006CAF80090B2F1004F90
:1023000080F07681DBF8003013F4804F14BF012594
:102310000025CCF80090B2F1004F80F06F814FEAB9
:1023200058032F4443EAC578761EE5D14D46CAF8D6
:102330000090154E1346B2F1004F38BF531E7CD2A9
:10234000002BC8BF5B1EFBDCDBF8003013F48043BE
:1023500018BF0123CCF80050B2F1004F6ED2521ECC
:10236000002AFCDC87EA030212F0010F18BF0824E0
:10237000002918BFC1F80080337E002B18BF726897
:1023800015D008E0100C014008010020040C0140A9
:10239000080C014089E0CAF80050B2F1004F7DD22C
:1023A000CCF80050B2F1004F79D25B1EE9D1CA4996
:1023B0000A6822F0706242F040720A60CAF800E0D7
:1023C00051E065B1CAF80090B2F1004F68D200BF89
:1023D000CCF80090B2F1004F7CD26D1EF2D1BE4B12
:1023E0001D6825F0706545F040751D607746CAF898
:1023F00000E000250B68202613F0010F14BFCCF875
:102400000070CAF80070CAF80090B2F1004F7DD297
:10241000CCF80090B2F1004F79D21D445B08761ED3
:10242000EAD115F0010F14BFCCF80070CAF80070A3
:102430004B46CAF80090114601E0E5E0E9E0B2F150
:10244000004F38BF511E7DD20029C8BF491EFBDC9A
:10245000CCF80030B2F1004F38BF511E73D20029C2
:10246000C8BF491EFBDC10F0800F03D09B484068BA
:102470009B4988609A48027B002A1CBFCAF800E08A
:1024800041685AD0CAF800900846B1F1004F70D2A6
:10249000CCF800900846B1F1004F02E0BCE0C1E08A
:1024A000C6E067D2521EEDD147E08D494E7E002E28
:1024B0001CBF10F0020F21230FD000BFCAF80090FC
:1024C000B2F1004F6FD200BFCCF80090B2F1004FD4
:1024D0006AD200E0B2E05B1EF0D165B1CAF80090AC
:1024E000B2F1004F70D200BFCCF80090B2F1004FB3
:1024F0006BD26D1EF2D178490B6823F0706343F004
:1025000040730B60CAF800E0BEB101E09CE0A1E0BE
:1025100010F0020F04BFCAF800E021210DD100BF66
:10252000CAF80090B2F1004F71D200BFCCF8009011
:10253000B2F1004F6CD2491EF2D1CCF800E0204637
:10254000BDE8F08F8CE08EE05B1EFDD128E55B1EC0
:10255000FDD133E55B1EFDD144E55B1EFDD14EE5AB
:102560005B1EFDD162E55B1EFDD16CE55B1EFDD1FE
:1025700080E57BE07DE05B1EFDD188E55B1EFDD143
:102580009CE55B1EFDD1A6E55B1EFDD1B8E55B1E9B
:10259000FDD1C3E55B1EFDD1D0E55B1EFDD1DBE5C2
:1025A0005B1EFDD1E8E567E06CE05B1EFDD1F0E568
:1025B000531E3FF401AE5B1EFDD1FDE5531E3FF4FB
:1025C00001AE5B1EFDD1FDE562E067E05B1EFDD163
:1025D00007E6641EFDD119E6641EFDD124E67F1EC8
:1025E000FDD135E6641EFDD142E6761EFDD153E6EF
:1025F000531E3FF487AE5B1EFDD183E6531E3FF4AE
:102600008EAE5B1EFDD18AE65B1EFDD19CE64BE0E3
:1026100050E0521EFDD1A5E6511E3FF4C1AE491E49
:10262000FDD1BDE6511E3FF4C0AE491EFDD1BCE652
:10263000531E3FF4CDAE5B1EFDD1C9E6531E3FF4E1
:10264000CCAE5B1EFDD1C8E6511E3FF4E1AE491E83
:10265000FDD1DDE6511E3FF4E0AE491EFDD1DCE6C2
:10266000491EFDD1F4E6521EFDD1FCE6401EFDD10F
:102670000EE7401EFDD115E7511E3FF425AF491E60
:10268000FDD121E7511E3FF424AF491EFDD120E7C3
:10269000511E3FF429AF491EFDD125E7511E3FF4DD
:1026A00028AF491EFDD124E7501E3FF43FAF401E26
:1026B000FDD13BE7501E3FF43EAF401EFDD13AE74F
:1026C000501E3FF4FBAD401EFDD1F7E5501E3FF418
:1026D000FBAD401EFDD1F7E5040C0140001000E009
:1026E000080100202DE9F0010028DCBFBDE8F00161
:1026F00070474FF48048184A164E371F53687514B8
:1027000011F801CB5FF008041CF0010F14BFC7F8EB
:102710000080C6F800803560B3F1004F10D23D60F4
:10272000B3F1004F11D200BF401E641E4FEA5C0C93
:102730000028DCBFBDE8F0017047002CE4D1DFE7E2
:102740005A1EECD0521EFDD1E9E75A1EECD0521EA3
:10275000FDD1E9E7140C01400801002070B50C46DA
:10276000C17800680C4D61F31F60A978012918BF7A
:1027700000200BD00021E9702070010A6170010C6B
:10278000A170000EE0704FF0041070BD00F056FA1A
:102790000028F1D1EEE70000240000202DE9F041EF
:1027A0000078114C00F001060025E0780F4600F09B
:1027B0000100B04210D02EB1A01D057045702571EA
:1027C000A560E560A078012808D1304600F08AFABB
:1027D000002818BFE67001D03D7001E0FF2038707E
:1027E0004FF00110BDE8F081240000202DE9F047F2
:1027F000324C80460E462279A11D82F001002071E4
:10280000E0788B5C4FF0000943EA000701F8029082
:10281000012811D0A068E168451A6178012918BF24
:10282000002518D006F8017B280A06F8015B01296B
:1028300006F8010B16D038E084F80590A068E1682E
:10284000451AA078012802D100F07CFA054460798D
:102850000028F1D1E1E7B8F800003C282AD88542E9
:10286000E0D929E0E368DFF858C01846290008D00D
:10287000C0F30B021CF8020006F8010B501C491EA5
:10288000F6D15819E060E07803280ED1A068E1681D
:10289000411AB1F5805F08D2A178C0F30B0001297D
:1028A00003D1E170604400F013FAE81C40F40030FA
:1028B000BDE8F0873C20D2E70546B3E724000020BE
:1028C000240100202DE9F0411C4D002790F800C0A4
:1028D000EB780C461CF0010FB8460BD02879AA1DE6
:1028E00080F001012971115C02F80080194304F89D
:1028F000011B01271CF0020F0CD0012B0ED0A86881
:10290000E968461A2670300A6070300CA070300EEC
:10291000E0703F1D47F48030BDE8F08185F8058008
:10292000A868E968461AA878012802D100F00AFAD6
:10293000064468790028F1D1E4E700002400002073
:102940002DE9F041114C07780E46A078012804BF0C
:10295000002000F005FA0025002F08BF012005D057
:10296000012F0AD1012000F0FBF930B1A770E5700A
:10297000002818BF357004D101E0A570E570FF2074
:1029800030704FF00110BDE8F081000024000020FD
:102990002DE9F041154D07460026287980F0010108
:1029A0002971A91DEA780B5C0E5443EA0208012A3A
:1029B0000ED0A868E968441A87F800807C70200A65
:1029C000B870200CF870200E38710520BDE8F08139
:1029D0006E71A868E968441AA878012802D100F04D
:1029E000B1F9044468790028F2D1E5E72400002019
:1029F000084AD37813F0010F04D0FF2008704FF07D
:102A0000011070470078002812BF01285070002084
:102A1000F3D1F3E7240000204FF0E02104280869F7
:102A20000CBF40F0040020F0040008617047000073
:102A30000E4A1078401E1070517841B10C4811F0C8
:102A4000010F09D0016881F40071016070470949E4
:102A50004FF400700860704711F0020F1ABF21F0A8
:102A60000201517011F0040FECD1704700000020FA
:102A70000C0801401408014016494868164A10F035
:102A80000C03164818BF042B01D0082B01D002609C
:102A900015E04A684B6802F470124FF0020C13F410
:102AA000803F0CEB924203D04B6813F4003F03D0FD
:102AB0000B4B5A43026002E0074B5A4302604968DD
:102AC000084AC1F30311515C026822FA01F1016066
:102AD000704700000010024000127A000C00002035
:102AE00000093D0010000020384881B0016841F025
:102AF000010101604168364A11404160016821F4DA
:102B0000102121F080710160016821F480210160B1
:102B1000416821F4FE0141604FF41F0181600022F1
:102B20000092016841F480310160016811F4003FB6
:102B300003D10099B1F5A06FF7D1016811F4003FFE
:102B400018BF00923BD023490A6842F010020A6085
:102B50000A6822F003020A600A6842F002020A6070
:102B60004168416041684160416841F48061416071
:102B7000416821F47C11416000990029416814BF2B
:102B800041F4D00141F4E8114160016841F08071E5
:102B90000160016811F0007FFBD0416821F0030162
:102BA0004160416841F002014160416801F00C015F
:102BB0000829FAD108060849086001B07047016881
:102BC00021F48031016001210091BCE70010024036
:102BD0000000FFF80020024008ED00E070B5044658
:102BE0001148124D14F0020F017841F002010170FA
:102BF00009D00F48016801F580610160AA694FF4AE
:102C000080610C48904714F0010F08BF70BD4FF46D
:102C10008061094801F032FB011ED8BF70BD064833
:102C20006A69BDE87040104701000020E0600008BC
:102C300060000020D6320020D636002070B506464F
:102C40001F48864288BF06461E4C1F4DE07810F094
:102C5000010F11D00021AA6A16209047E86A804728
:102C600010F0020F08D0686A8047A1680844A0608D
:102C70000021AA6A19209047AA6A3146012090478C
:102C800010B10020207070BD01202070E07810F09D
:102C9000010F12D010F0020F0BD1A0680B4AC0F345
:102CA0000B0000F03F01C1F1400110442161AA690D
:102CB00090470121AA6A16209047304670BD000057
:102CC00040420F0024000020A860000824010020DA
:102CD000024A1161024A9269104700002400002054
:102CE000A860000870B5144D144C88B128780028ED
:102CF00008BF70BD012028610146A26910489047B5
:102D000020B90121A26A1620904798B1002070BD19
:102D10000021A26A16209047E06A804710F0020F57
:102D200008D0606A8047A9680844A8600021A26AA8
:102D300019209047012070BD24000020A8600008E1
:102D40002401002010B5054CE06A804710F0020015
:102D500008BF10BD606ABDE810400047A8600008C9
:102D600010B5114A0021114C117070B1A1681048C2
:102D7000884700281CBF002010BD02202169884719
:102D800080B1E0688047002010BD0021A26A1620B3
:102D900090470021A26A19209047216900208847A6
:102DA000E0688047012010BD24000020A8600008D2
:102DB0009D330008014A00F02DBB000000600008B0
:102DC00001480068704700000060000881B000986A
:102DD00020F0010000901E48016B0969002918BF0E
:102DE000B1F5803F0ED1C16961B10968C0698968D8
:102DF000007921FA00F010F0010F03D1009840F0A3
:102E000001000090009820F002000090009820F04F
:102E100008000090009820F004000090009961F3F1
:102E2000000000994FEA510161F3410000994FEA17
:102E3000910161F3820000994FEAD10161F3C3006F
:102E4000009901B04FEA111161F31F1070470000A3
:102E5000006000080648C16A002902BF406B006993
:102E6000704709684968406B0068401A7047000065
:102E7000006000082C4881B0416B91F821100029B6
:102E80001CBF009941F0010107D141680988012266
:102E900022EA9112009962F300010091016B4A79D4
:102EA000009962F341010091016B8A79009962F304
:102EB00082010091016BCA79009962F3C30100910C
:102EC000016B0A7A009962F304110091016B4A7A4E
:102ED000009962F345110091006B817A009861F3CB
:102EE00086100090009961F300000099490861F391
:102EF00041000099890861F382000099C90861F3D3
:102F0000C3000099090961F304100099490961F3AC
:102F100045100099890961F38610009901B0C9092B
:102F200061F3DF1070470000006000080648816A06
:102F3000002902BF406B4069704709684968406BCF
:102F40004068401A7047000000600008014800F027
:102F500091BD000000600008014900F0D0BE0000F3
:102F600000600008014900F019BF0000006000087F
:102F7000014A01F077B8000000600008014A01F042
:102F80000AB90000006000081649012228B1012892
:102F900013D000BF4FF0FF307047086B0069002866
:102FA00018BFB0F5003FF5D18869B8B189690068EC
:102FB000097902FA01F1016110E0086B006900284B
:102FC00018BFB0F5003FE5D1886938B1896900685C
:102FD000097901F1100102FA01F101614FF00000DD
:102FE000704700000060000870B5144E05000B46E5
:102FF000144619BF002B002C6FF0040070BD316B1C
:10300000C87A10F0040F4FF0FF3008BF70BDC968D8
:10301000022918BF70BD0320716B3246C86121467A
:10302000184601F01FF8002818BF70BD324621462F
:103030002846BDE8704001F0AEB80000006000080E
:1030400010B5184CE06828B18188002300681A4642
:10305000FEF744F8206928B18188002300681A46E9
:10306000FEF73CF8606928B18188002300681A46A1
:10307000FEF734F8A06928B18188002300681A4659
:10308000FEF72CF8E06928B18188002300681A4611
:10309000FEF724F8208CFDF797FF216B0020C87203
:1030A00010BD000000600008014A00F0B3B9000044
:1030B0003860000801480068704700003860000868
:1030C00081B0009820F0010000901E48016B096952
:1030D000002918BFB1F5803F0ED1C16961B10968FF
:1030E000C0698968007921FA00F010F0010F03D15E
:1030F000009840F001000090009820F0020000903D
:10310000009820F008000090009820F00400009043
:10311000009961F3000000994FEA510161F3410009
:1031200000994FEA910161F3820000994FEAD101C1
:1031300061F3C300009901B04FEA111161F31F1050
:1031400070470000386000080648C16A002902BFC5
:10315000406B0069704709684968406B0068401A15
:1031600070470000386000082C4881B0416B91F82E
:10317000211000291CBF009941F0010107D14168CD
:103180000988012222EA9112009962F3000100915C
:10319000016B4A79009962F341010091016B8A79D0
:1031A000009962F382010091016BCA79009962F380
:1031B000C3010091016B0A7A009962F30411009136
:1031C000016B4A7A009962F345110091006B817A94
:1031D000009861F386100090009961F30000009957
:1031E000490861F341000099890861F38200009960
:1031F000C90861F3C3000099090961F3041000993B
:10320000490961F345100099890961F38610009915
:1032100001B0C90961F3DF10704700003860000891
:103220000648816A002902BF406B406970470968FF
:103230004968406B4068401A7047000038600008D9
:10324000014800F017BC000038600008014900F098
:1032500056BD000038600008014900F09FBD000025
:1032600038600008014A00F0FDBE00003860000828
:10327000014A00F090BF00003860000816490122A2
:1032800028B1012813D000BF4FF0FF307047086B02
:103290000069002818BFB0F5003FF5D18869B8B1C2
:1032A00089690068097902FA01F1016110E0086B8F
:1032B0000069002818BFB0F5003FE5D1886938B132
:1032C00089690068097901F1100102FA01F10161CF
:1032D0004FF00000704700003860000870B5144ED1
:1032E00005000B46144619BF002B002C6FF004009C
:1032F00070BD316BC87A10F0040F4FF0FF3008BF7B
:1033000070BDC968022918BF70BD0320716B3246B9
:10331000C8612146184600F0A5FE002818BF70BD00
:10332000324621462846BDE8704000F034BF000018
:103330003860000810B5184CE06828B18188002377
:1033400000681A46FDF7CAFE206928B1818800236B
:1033500000681A46FDF7C2FE606928B18188002323
:1033600000681A46FDF7BAFEA06928B181880023DB
:1033700000681A46FDF7B2FEE06928B18188002393
:1033800000681A46FDF7AAFE208CFDF71DFE216B92
:103390000020C87210BD00003860000870B5194CDC
:1033A000054610F0020F1AD0E068A16822690A44AD
:1033B000A26002F03F01C1F14001101AC1F5805333
:1033C000984284BF0320E07007D8C2F30B000E4A76
:1033D000216110440D4A92699047012060710C48A8
:1033E00015F0200F04D02179425C42F08002425453
:1033F00015F4607F08BF70BD2179425C42F0400245
:10340000425470BD2400002024010020A860000860
:103410002A0000202DE9F05F136B1446DA7A12F0CF
:10342000020F00F0BB814FF0000800F0FF0CACF180
:103430001507454646464246062F80F00981DFE8DB
:1034400007F08ABC0325445C606B79B190F82110C9
:10345000002940F01C81012180F82110606B80F868
:1034600020106068818941F081018BE090F8200094
:1034700000286DD06068818921F080018181606BB6
:1034800080F82020606B80F8212061E060688189ED
:1034900021F0C0018181A06A70B1606B90F82100B9
:1034A00050B16068818A21F080018182A06A006841
:1034B000016821F001010160606B80F82020606BE1
:1034C00080F821200020BDE8F09F6068818921F00C
:1034D00020018181E06A68B1206B407950B1606859
:1034E000818A21F040018182E06A0068016821F050
:1034F00001010160206B42712AE06068818921F03E
:10350000E0018181A06A70B1606B90F8210050B138
:103510006068818A21F080018182A06A0068016868
:1035200021F001010160E06A68B1206B407950B17F
:103530006068818A21F040018182E06A0068016848
:1035400021F001010160206B4271606B80F8212045
:103550000020BDE8F09FE068002800F01F8199B1CD
:10356000D968062905D08188006803230222FDF767
:10357000B5FD206BC17A41F00801C1726068818994
:1035800041F008018181E3E76068818921F0080149
:103590008181206BC17A21F00801C172206BC06863
:1035A00006281CBFE0680028D2D081884FF00003B5
:1035B00000681A46FDF792FDCAE72069002875D019
:1035C00091B3D968062918BF042907D081880068FB
:1035D0004FF000034FF00102FDF780FD206BC17A30
:1035E00041F01001C1726068818A41F0010181825D
:1035F0006068018A41F0400101826068818941F080
:1036000010018181206B407900281CBFE06A0028EE
:1036100004D16068818941F02001818160688189DD
:1036200041F00401818193E7FFE76068818921F01F
:1036300004018181206BC17A21F01001C172206BDD
:10364000C06806281EBF042820690028ADD17FE786
:103650005A79E2B9626B92F82120C2B962689789FF
:1036600017F0080F03D0178817F0400F0FD0BCF1E8
:10367000150F7DD2DFE80CF0A10F11351B202EA114
:10368000A1A1A1A1A1A1A1A1393C5E688F006FF009
:103690000100BDE8F09F012312E0237813F0020F30
:1036A0001CBF4FF4106502230AD11AE076E04FF0F8
:1036B00008064FF0040303E04FF002064FF0050345
:1036C00010F4E06C76D0BCF5807F74D0BCF5E06F70
:1036D00077D0BDE0237813F0200F1CBF20260623EF
:1036E000EED16FF00600BDE8F09F606B41832FE7DD
:1036F000D868052852D000293FF42AAF908A40F0BC
:1037000004009082D94AA068B2FBF0F25FF0010099
:1037100002FB00F38B429CBF401CB0F5807FF7D3C7
:10372000B0F5807F3AD061680A8B22F0FF02104327
:1037300008830DE7D868062830D1FF292ED8108BD2
:1037400020F47F40084324E0D868062826D1A068EA
:10375000C64B01EB0114B3FBF0FC01EB011301209C
:1037600003EB430304EB41140CFB00F5C82100E01C
:1037700023E06943B1EB430F02D2B1EB440F02D80F
:10378000401C4028F0D3402808D0118B21F0FF01C5
:1037900008431083DCE6D868062803D04FF0FF30DA
:1037A000BDE8F09F00293FF4D3AE908A40F01000AE
:1037B0009082CDE609E048E003E06FF00300BDE849
:1037C000F09F10F4405F07D142E010F4405F03D057
:1037D00045F020054FF4805810F4405C0ED0BCF545
:1037E000805F08BF48F4806808D0BCF5005F16BF52
:1037F0006FF0090048F4C068BDE8F09F10F4404C39
:1038000014D0BCF5804F08BF45F400550ED0BCF570
:10381000004F08BF45F4405508D0BCF5404F16BFD7
:103820006FF00A0045F48055BDE8F09F10F4403C6D
:1038300008BF00271AD0BCF5803F0DD0BCF5003F73
:1038400017D0BCF5403F1FD02AE010F4405FBFD036
:103850006FF00800BDE8F09F94F800C01CF0800FE6
:103860001CBF4FF4803746F4807619D0022B1BD052
:1038700032E0B4F800C01CF4807F1CBF4FF4003766
:1038800046F4C066F2D10BE0D4F800C01CF0800F03
:103890001EBF1CF4807F4FF4403746F4E066E5D14C
:1038A0006FF00B00BDE8F09F10F4802C08D0BCF541
:1038B000802F0EBF45F480656FF00C00BDE8F09FCF
:1038C00010F4002008D0B0F5002F0EBF45F40075AD
:1038D0006FF00D00BDE8F09FD4F808A0DFF89091DC
:1038E0000AEBCA0000EB0A1C8800BCFBF0FBA9FB3A
:1038F0000BEBBCFBF0FEBCFBF0F0A9FB00C04009E9
:103900006FF0180C00FB0CF00EEB80004FF0320C47
:103910000CEB0010A9FB00C04FEA5B1B40096BF3E6
:103920001F104FEA0A191FFA80FCB9FBFCF00009CE
:103930004FF0640900FB09F001EB011909EB49099B
:10394000B0EB490F06D201EB011909EB4111B0EBC5
:10395000410F03D86FF00700BDE8F09F908920F475
:10396000005090816068A0F808C0206BC360206B95
:103970000761206BC16806290AD0C07A10F0080FD1
:10398000E0680ED0A0B181880323006802220DE018
:10399000E06868B18188006803230222FDF79EFB7E
:1039A00006E028B18188002300681A46FDF796FBDF
:1039B000206BC168042918BF06290CD0C07A10F00A
:1039C000100F206911D0B8B1818800684FF0000352
:1039D0004FF001020EE0206970B181884FF00003C2
:1039E00000681A46FDF77AFB06E028B181880023BB
:1039F00000681A46FDF772FB606968B1216BC968FF
:103A0000022918BF06298188006807BF0323022204
:103A100000231A46FDF762FBA06968B1B7F5803F45
:103A200018BFB7F5403F8188006807BF0323022213
:103A300000231A46FDF752FBE06928B1818800682F
:103A400000230122FDF74AFB6068A0F80C80606843
:103A50000582606886826068818941F400518181B5
:103A6000206BC17A41F00401C17271E500CA9A3B32
:103A70001F85EB512DE9F003D0F804C0BCF80020FD
:103A80000021BCF80C400B4602F020052C420E46EB
:103A90004FF0010461D0056B6F791FB1ED68022D05
:103AA00005D00BE0BCF80410EC71202155E0456B0B
:103AB000ED69012D08BFBCF804C001D0BCF804308A
:103AC000D0F834C0DCF808506F1CCCF808702B70AC
:103AD000D0F804C0BCF80CC01CF4806F0CD11CF4EE
:103AE000805F09D0456B1F0AD5F808C00CF10108AA
:103AF000C5F808808CF80070D0F834C0DCF810509D
:103B00006D1CCCF81050D0F834C0DCF800C065450E
:103B100023D1D0F804C0BCF80C5025F01005ACF847
:103B20000C50D0F830C08CF80560D0F830C0DCF80C
:103B30000CC0BCF1020F0FD1D0F834C0DCF81C501F
:103B4000CCF81C60012D08BF012106D0022D03D046
:103B5000032D08BF042100E002214568B5F80CC020
:103B600002F010071CEA070F1CBFB5F804C041F0B3
:103B70004001B5F80CC002F080071CEA070F5FD0C7
:103B8000D0F834C09CF8207027B1AB8943F0010312
:103B9000AB8155E0DCF81470DCF80450BD4224D051
:103BA000036BDB68022B02BFDCF81C30022BBCF875
:103BB0001A301AD0DCF80C3003F10105CCF80C50A7
:103BC000D0F804C01B78BCF80CC01CF4806F0CD17A
:103BD0001CF4805F09D0D0F834C005F10107CCF89F
:103BE0000C7095F800C043EA0C23D0F834C0DCF820
:103BF000145005F10105CCF81450D0F804C0ACF80D
:103C00000430436BD3F804C05B699C4518D143680A
:103C1000B3F80CC02CF0800CA3F80CC04368B3F8C8
:103C20000CC04CF0400CA3F80CC0436B83F821602F
:103C3000036BD3F80CC0BCF1020F54D041F001016A
:103C40004368B3F80CC002F040051CEA050F07D02A
:103C5000B3F80CC02CF0400CA3F80CC041F00801E4
:103C600012F0080F05D043689B88036B41F02001D8
:103C7000DC7112F0020F05D043689B88036B41F49E
:103C800080715C7212F0010F05D043689B88036B52
:103C900041F400719C7212F4807F0AD04368B3F83B
:103CA00000C02CF4807CA3F800C0036B41F08001BD
:103CB0001C7212F4007F06D04268138823F400734C
:103CC000138041F48061002904BFBDE8F003704710
:103CD000006B0268002A04BFBDE8F0037047084685
:103CE000BDE8F0031047D0F834C0DCF81CC0BCF1CC
:103CF000010F04BFDB7A13F0100FA1D19EE710B5BE
:103D00000C46096BCA7A12F0010F1CBF002010BDCF
:103D10000860216B00200871216B4871216B88714C
:103D2000216BC871216B0872216B4872216B8872FC
:103D3000216BC860616B81F82100616B086048608D
:103D40008860C860086148618861C8610862608CE9
:103D5000FDF73AF9E06818B100680121FDF730FA83
:103D6000206918B100680121FDF72AFA606918B1CD
:103D700000680121FDF724FAA06918B1006801214B
:103D8000FDF71EFAE06918B100680121FDF718FA85
:103D9000216B0120C872002010BD00002DE9F04702
:103DA0000C4600268E4FDFF83C82DFF83C928F4DA8
:103DB000012138B1012801D002287AD06FF0030028
:103DC000BDE8F0876068B84204D1EA6842F48042F6
:103DD000EA600CE0404504BF2A6942F4003205D095
:103DE000484504BF2A6942F4802200D12A6100BFFD
:103DF00000BF00BF00BFB84204D1E86820F4804093
:103E0000E8600CE0404504BF286920F4003005D08C
:103E1000484504BF286920F4802000D1286194F926
:103E2000240000280CDB00F01F02914040098000B4
:103E300000F1E020C0F88011BFF34F8FBFF36F8F08
:103E4000E06A18B141790079FCF7B0FFA06A18B1B7
:103E500041790079FCF7AAFF6068B84203D1A869EC
:103E600020F48040A8616068404503D1E86920F4EF
:103E70000030E8616068484503D1E86920F480209B
:103E8000E861206B0671206B4671206B8671206B98
:103E9000C671206B0672206B4672206B8672606B57
:103EA00080F82160206BC17A21F00201C17293E099
:103EB000FFE7206BC27A12F0010F04BF4FF0FF3012
:103EC000BDE8F08712F0020F78D10671206B4671C1
:103ED000206B8671206BC671206B0672206B467258
:103EE000206B8672606B80F82160606B4683606B2C
:103EF000C661606B80F82060206BC660206B066135
:103F0000226B0320D0726068B84203D1A86940F4E4
:103F10008040A8616068404503D1E86940F4003002
:103F2000E8616068484503D1E86940F48020E861B1
:103F300094F92400002809DB00F01F0201FA02F2C4
:103F40004009800000F1E020C0F8802294F92400AC
:103F5000002808DB00F01F0291404009800000F1BA
:103F6000E020C0F80011E06A18B141790079FCF74F
:103F7000ADFEA06A18B141790079FCF7A7FE606830
:103F8000B84204D1E96841F48041E9600CE0404561
:103F900004BF296941F4003105D0484504BF2969AF
:103FA00041F4802100D1296100BF00BF00BF00BFE4
:103FB000B84204D1E86820F48040E8600CE0404555
:103FC00004BF286920F4003005D0484504BF2869A3
:103FD00020F4802000D128610020BDE8F087000097
:103FE00000380140004400400048004000100240FA
:103FF000C16A0968496821B1416B0968002918BF85
:10400000704741688A8922F010028A81026B002180
:104010000B46D268022A10D1426BD2F81CC0D36181
:10402000BCF1010F08BF012108D0BCF1020F04D080
:10403000BCF1030F08BF042100E00221426BD2F85B
:1040400000C0C2F810C0026B53714268938943F0FC
:1040500020039381006B0268002A14BF0029704777
:104060000846104770B5002812BF00296FF0040001
:1040700070BD136B93F80BC01CF0040F04BF4FF01E
:10408000FF3070BD5B79012B73D05368B3F80CC05F
:104090002CF0200CA3F80CC0536B1960D2F830C080
:1040A00000238CF80830D2F830C08CF80930D2F8F0
:1040B00030C08CF80730D2F830C08CF80A30D2F813
:1040C00034C0CCF80800D2F834C0CCF81030D2F8A4
:1040D00030C001238CF80530D2F830C08023DCF8E2
:1040E0000CC0BCF1020F07D1D2F834C0DCF81CC000
:1040F000BCF1010F08BF0023D2F82CC0BCF1000FA7
:1041000032D09CF806404FF4405505EA0434556817
:10411000234343F00203AC8914F4805F04D014F409
:10412000806F08BF43F4A063DCF800C02C1DCCF8FE
:104130000030CCF80840CCF80C00CCF80410D06A61
:104140000068036843F0010303605068838A43F00A
:10415000400383825068838943F010038381106B8E
:10416000C068022812D105E05068838943F030030B
:10417000F4E70DE0506BC36943B90223C361506B90
:104180001A3000F008F810F1020F01D0002070BDC5
:104190006FF0010070BD002812BF00296FF004000D
:1041A00070472DE9F0410646106B14460D46C07A63
:1041B00010F0040F04BF4FF0FF30BDE8F081616BD9
:1041C00091F82100002845D1012081F82100616B80
:1041D0008027CE60616B4D60626B00215161216B65
:1041E000C968022910D1626BD16919B1022908BFCF
:1041F000002709E0D061606B224629461830FFF79E
:1042000031FF10F1020F25D0A16A39B388794FF43C
:104210004052636802EA003038439A8940F0120045
:1042200012F4805F04D012F4806F08BF40F4A060E5
:1042300009681A1D08608A60CE604D60A06A006837
:10424000016841F0010101606068818A41F08001EC
:10425000818208E06FF00100BDE8F081606881892B
:1042600041F0800181810020BDE8F08101480068B3
:1042700070470000FC5F00080020704770B50B4DD0
:104280000C460346D5E90C0188420BD9401A8442FA
:1042900000DD044622461846FBF744FF686B2044C5
:1042A000686300E00024204670BD000098000020F4
:1042B00010B50A4CE06A804710F0010F18BF10BD1E
:1042C0004FF480610648FFF7D9FF011ED8BF10BD2B
:1042D00003486269BDE8104010470000E060000834
:1042E000D63600202DE9F041194C0D460746D4E999
:1042F0000401401A17490A88101A002802DC00201D
:10430000BDE8F081854200DD0546D4E906020026BD
:10431000904210D3104A0988431911448B420AD3A2
:104320000E1A904632463946FBF7FCFE3744AD1B69
:104330004046C4F8188035B12A463946FBF7F2FEEC
:10434000A0692844A0612169A81901442161D7E727
:1043500098000020326100085612002010B5054C6C
:104360006068002805D10120606000F005F8002099
:10437000606010BD980000202DE9F047224CA06835
:1043800000283BD0D4E90401421AE0684FF000064F
:10439000104335D01D481E4FDFF878800088DFF8C5
:1043A00078903D182046C1696AB1A069814203D363
:1043B0008818A84200D36A1A99F8003038F8130018
:1043C000904200DA02461548E660007840F080002E
:1043D00001F09CFAE1690144E16162698D420244A5
:1043E000626100D1E761216991420BD199F8002007
:1043F00038F81210814205D10120E060BDE8F08755
:10440000A660FBE7E660F9E798000020326100084B
:104410005612002036610008730000203061000849
:1044200010B50B4C206A18B1A06A401CA06210BDE8
:1044300001202062606200F00DF8002060622062BE
:10444000D4E90C018842F2D0401AFFF731FF10BDC9
:104450009800002010B5134C144A1348216B1288A1
:10446000144B081A101A124A1B7832F81320904283
:104470000EDB1148007800F0E5FE216B0844206354
:10448000A06A00280CD0616A002909D1401E06E00C
:104490000120E062606A002802D0A06A401CA0628D
:1044A00010BD000098000020961200203461000822
:1044B00036610008730000203161000810B5044621
:1044C000400702D52046FFF7ABFF200704D5204662
:1044D000BDE81040FFF742BF10BD70470020704795
:1044E0000020704710B50B4800F01CF8002810D0D1
:1044F000084A0948116801700B0A43700B0C83705D
:10450000090EC170117901715179417191798171EF
:10451000012010BDD00000209411002010B500F043
:104520000DF810BD04498A6802608A898280897BFF
:1045300081710120704700006000002010B5044C1C
:104540000448A1688847216902208847012010BDDE
:10455000E0600008DD2B000810B5054C0021182094
:10456000A26A90470021A26A19209047012010BD3D
:10457000E0600008012070472DE9F0410026314C31
:104580000546B046A26A37463146182090470021BA
:10459000A26A192090470021A26A152090470021A5
:1045A000A26A16209047287940B1012808BF4FF42D
:1045B000004703D0022808BF4FF48047687948B10C
:1045C000012808BF4FF4005804D0022808BF4FF458
:1045D00080581AD1A879052808BF4FF4A0660AD0E0
:1045E000062808BF4FF4C06605D007280CBF4FF45B
:1045F000E066082809D146EA080040EA0700A26AF6
:10460000296840F00100904710B10020BDE8F0811A
:104610000D4829688160A9888181A9798173002169
:10462000016041600121A26A152090470121A26A20
:1046300016209047A2694FF48061044890470120FA
:10464000BDE8F081E060000860000020D632002064
:1046500010B510480024104944608460C4600461AF
:10466000C0E90541C0E9071444620C498462C0E90D
:104670000B4141630480FFF76FFF06484FF416516A
:10468000383001600471447108218171FFF774FFB3
:1046900010BD000098000020561200209612002045
:1046A00010B5FFF7D5FF10BD70B5174C00250126DA
:1046B000206A50B9D4E90C10814206D113488142D6
:1046C00003D02063E56225626063A06A70B1206A4E
:1046D00060B9E06A50B92662FFF7BCFE2562D4E9F2
:1046E0000C01884202D0401AFFF7E2FDD4E9010133
:1046F000084308D1D4E90401884204D06660A6606A
:10470000FFF73AFE656070BD980000209612002009
:10471000002070470020704700207047024910B504
:104720000880FFF727FF10BD98000020084810B54B
:10473000C178026861F31F6206490A6002790A7152
:1047400042794A71807988710846FFF715FF10BDDC
:1047500094110020D00000200107890E01F1804152
:1047600001F5A041D1F8002C00F08000002814BF12
:1047700048F6CF704CF68F7002EA0000C1F8000CCA
:10478000D1F8000C08D080F0300048F6BF7200EA83
:104790000200C1F8000C704780F440504BF68F7255
:1047A00000EA0200C1F8000C7047000070B4837882
:1047B000234A03F00F0C13F0800F56688188148889
:1047C00003F00F0306EB031304D0491C21F0010191
:1047D0001C6011E09C603E2909D91F3121F01F01A6
:1047E0004FF0FF3404EB411444F4004403E0491C4F
:1047F00021F001014C02DC6013880B441380C07867
:1048000010F0030008BF4FF400710CD0012808BF5E
:104810004FF4806107D0022808BF002103D003288D
:1048200008BF4FF4C06141EA0C004FEA8C0101F16E
:10483000804101F5A041C1F8000C70BC7047000038
:1048400044000020002818BF70470249C02008809B
:10485000704700004400002000F0A8BA0949CA13BC
:1048600050B101200860002008600B1D18604FF453
:10487000E0500860044802E003200860034802603A
:1048800070470000405C00401008014014080140DF
:1048900010B50B4C0B48A28801788A4200D9CAB2E5
:1048A0001AB907490020183908718020216801F0E1
:1048B0002DF8216801442160A188081AA08010BD4C
:1048C000880000201C61000810B5064C00202168FB
:1048D00000F0B8FC216801442160A188081AA0807A
:1048E00010BD00008800002070470107890E01F10B
:1048F000804202F5A042D2F8001C10F0800F05D0D3
:1049000048F6BF700840C2F8000C70474BF68F7035
:104910000840C2F8000C70470107890E01F180427F
:1049200002F5A042D2F8001C10F0800F07D081F0F1
:10493000200048F6BF710840C2F8000C704781F4AF
:1049400040504BF68F710840C2F8000C70470000D1
:104950002DE9F047DFF844820646A8F108058007F4
:104960004FF0000AA5F1180424D500F0BBFF98F819
:1049700000004746C009FFF7B7FFF888A8803978DC
:10498000C1F3411010B1012877D17DE098F80120E2
:10499000834FDFF810920C2A6FD2DFE802F0060C8A
:1049A000951C952B3B953F45526100F063FD33E02C
:1049B000FFF76EFF96E0002000F09AFD00285CD023
:1049C00000F096FF386820B16169002921D00820E5
:1049D00050E0484653E0012000F08AFD002873D0E3
:1049E00000F086FF38680028F3D06169002979D08B
:1049F00004203FE011F01F0F66D198F8020001215A
:104A000040F08000207000F07F0000F045FF00F0D3
:104A10006FFF67E000F054FC78B3C9E711F01F0F97
:104A200052D15E481F3819E000F0B8FD28B300F0FD
:104A30005FFF386818B1616929B301201AE05A484C
:104A40001DE001F01F0101293ED16178A9B198F85C
:104A50000400A178884237D2544908442860A7E767
:104A600000F064FE48B100F043FF386830B161697E
:104A700049B1022001F04AFA34E025E04C480168CF
:104A800009B1084680472DE011F01F0004D001282D
:104A900005D0022818D111E000F02AF913E000F047
:104AA0002DF9F8B900F080F9E0B900F0CFF8C8B9F5
:104AB00000F0CEF8B0B900F01FF904E000F0C4F83F
:104AC00080B900F017F968B998F80010090604D405
:104AD000B8F8060008B1002000E0802000F0E6FEF3
:104AE000A5F804A0700735D598F8000047460006E1
:104AF0002ED4A88858B3FFF7E7FEA88838BB3878CB
:104B0000C0F34111F1B101291CD110F01F0004D0F4
:104B1000012805D0022815D10EE000F077F810E04A
:104B200000F07AF898B900F047F880B900F046F83C
:104B300068B900F06FF804E000F03CF838B900F014
:104B400067F820B9802000F0B1FEA5F804A001E0CC
:104B500000F0D4FE300713D598F80000000606D503
:104B6000A888217908430BD0FFF792FE08E020784F
:104B7000010605D500F07F002070002100F08CFEBA
:104B8000700602D50020FFF7E7FD300604D5BDE82A
:104B9000F0478020FFF7E0BDBDE8F08790000020DF
:104BA0009C610008986100089061000839000020AD
:104BB00094610008002070470020704710B510482D
:104BC000104A01791278914203D00F4A127891422B
:104BD00014D1417821B1022905D020290ED10AE053
:104BE000FFF798FD02E04088FFF796FD30B100F036
:104BF0007FFE012010BDFFF799FDF7E7002010BDF3
:104C0000900000202E6100082F61000800207047EE
:104C1000002070470020704710B50948094A017903
:104C20001278914209D14078092806D100F0D8FACB
:104C300018B100F05DFE012010BD002010BD000085
:104C4000900000201D610008002070470020704780
:104C500070B52249224A08791278904203D0214A3D
:104C60001278904238D11D4849781F4C1F4D40881A
:104C700004291FD007DC79B101290FD002290BD0FC
:104C8000032929D111E0202906D021291AD022296F
:104C90001BD0232920D11BE02C6011E0FFF720FC62
:104CA00005E02C60FFF7F4FD0AE0FFF717FC002891
:104CB000F7D111E0FFF7E0FA0CE000BF00F018FEBA
:104CC000012070BDFFF70EFCF1E7FFF727FD01E0C3
:104CD000FFF71EFD0028F1D1002070BD90000020DC
:104CE0002E6100082F610008941100208800002028
:104CF0000020704700207047002070472DE9F041E8
:104D0000224C23492079097888423DD16078214D91
:104D1000214E224F0C2837D2DFE800F03606212D35
:104D2000363636363616243200F070F960B3E07845
:104D3000012802D0032803D003E01948286000E0CE
:104D40002E60FFF7A5FD13E0E078022802D00328CB
:104D500003D00DE0134828600AE02E6008E000F060
:104D60003DF90AE000F014FA0CE000BF00F0C0FDCD
:104D70000120BDE8F08100F03FF928B12F60E0E7A5
:104D800000F024FA0028F1D10020F2E79000002082
:104D90001D610008880000204200002094110020BE
:104DA000D51100201612002000207047084800216D
:104DB0004170C160016141618161C1614180818057
:104DC000016241628162C180C1620181704700005D
:104DD000D80000202DE9F05FDFF84081DFF840A126
:104DE000DFF840B10127504C08F101090025A56109
:104DF000606910B1A761BDE8F09F6761A088618814
:104E000088421AD3206AC0B9E561A580012398F8C9
:104E1000001008F10102184600F066FF0004000CC3
:104E200060800CD04149C4F81C800978012902D85F
:104E3000C4F81C903BE0401C60806088B8BBE06810
:104E4000A8BB216999B339484246007801280FD898
:104E50001570A5800223521C0021012000F044FFA0
:104E60000004000C608001D0C4F81C9025611EE095
:104E70001678202E00D3002607FA06F0084240D00C
:104E8000701CC1B21170A580022308F1010201203B
:104E900000F02AFF0104090C618003D0491CC4F80A
:104EA0001C806180216907FA06F0814321616088D6
:104EB000216A01432AD0A188401A9BF8001086B2CB
:104EC0003AF81100B04200D20646676218483246EE
:104ED000E169007840F0800000F018FDE0691549B4
:104EE0003044E061A088304480B2A08009888842C4
:104EF0000AD29BF800103AF81100B04204D12762A0
:104F000005E0761CF6B2B4E7256200E065626561F3
:104F1000A06900287FF46BAF6DE70000D41100207A
:104F20002461000873000020D800002028610008D8
:104F30001E6100082A610008F8B5194C194D0026B9
:104F4000E08800B9A5621848A16A007800F07AF9F3
:104F50000004A16A000C0144A162E18801448BB203
:104F6000E3800AD0114909888B4206D2114A1049C0
:104F7000127831F81210814210D90F4801780120BF
:104F80000129009003D80021064A022003E0297875
:104F90006A1C02205B1E00F073FFE680F8BD000073
:104FA000D8000020151200201F6100082C610008A5
:104FB00024610008730000202961000810B5044630
:104FC000000702D52046FFF705FF600704D52046FD
:104FD000BDE81040FFF7B0BF10BD00000348044912
:104FE0008078085C03490870012070479000002019
:104FF000400000209411002010B500F073FE02491B
:105000000870012010BD0000941100200B4910B55C
:10501000C8780022012804D0022804D0032806D131
:1050200003E0074A02E0002010BD064A521C8978BE
:10503000002300F059FE012010BD00009000002068
:10504000D4110020410000202DE9F05F464800788F
:1050500000287DD0454800273D4601784A1C027053
:10506000434A1478042204EB440A02FA0AF2521E5C
:10507000914201DB057001273E4900230A88FF2A7F
:1050800001D2521C0A803C4A8E46098832F814909C
:10509000894500D101238346002100699BF8006007
:1050A00043E000BF4FF0000C6FB1344A545CFF2C5A
:1050B00001D2641C5454324C645C24B1525CA24250
:1050C00001D34FF0010C2E4A4FF0020808FA0AF8FB
:1050D000525C02FA08F44C4502DA0AB1012400E0FD
:1050E000002433B12CB14FF0010808FA01F848EA66
:1050F0000000DFF8908018F8018042450AD01F4A6E
:10510000525C424503D301228A40104300261C4AC8
:1051100002F80180BCF1000F05D014B901228A40C9
:105120001043164A5554491CC9B2174A1278914285
:10513000B8D3CBF8100059468BF800600BB1AEF82D
:10514000005008B1CA6852B1104A1378012200E039
:1051500003E09A409043CBF81000BDE8F09FBDE813
:10516000F05F0020FFF736BE71000020D80000205D
:10517000730000203C000020206100083E00002059
:105180003F0000204000002028610008D4110020CA
:1051900010B50A4809498078C97810B1084A815485
:1051A00009E00020074B084A02E01954401CC0B235
:1051B0001478A042F9D3012010BD00009000002017
:1051C0003F0000204000002028610008034810B57F
:1051D000807800F053FE012010BD000090000020F8
:1051E0000C4908B5C8780022012804D0022804D050
:1051F000032806D103E0002008BD074A00E0074A63
:10520000521C00230093CB88897800F039FE0120DE
:1052100008BD000090000020151200204100002071
:105220000648C16941F40001C1614FF0E0214FF42B
:105230008010C1F80001FCF719BA0000001002400C
:10524000704700001B4B30B45B6800F00F0203EBAB
:105250000212DFF864C0936892890CEB4303C2F337
:105260000905002205F1010CB2EB5C0F08D200BF6A
:1052700033F8044B521C21F8024BB2EB5C0FF7D30E
:105280000107890E01F1804202F5A042D2F8001C0C
:1052900010F0800F19BF48F6BF70084081F44050ED
:1052A0004BF68F7108BF0840C2F8000C284630BC8E
:1052B000704700004400002000600040704700007C
:1052C0007CB54048A0F120050178A0F1080411F058
:1052D0001F0102D0012973D15CE0C37839483949F4
:1052E0002038394AC0788978082B69D2DFE803F082
:1052F0006804123F6868082C34482060122047E098
:10530000117800295CD018B1314820600A203FE0B4
:105310003048FAE712780AB9012851D018B12E485E
:105320000090002008E02D48FAE7009A137813B1A6
:1053300053881A440092401C8142F6D100980178AB
:10534000E9B32060408823E01278C2B318B1244842
:105350000090002008E02348FAE7009A137813B180
:1053600053881A440092401C8142F6D1E6E71E4859
:105370000090002005E0009B1A780AB11A440092C0
:10538000401C8142F7D100980178C1B120600078BB
:10539000019005E001A9684600F02AF800280DD028
:1053A000A1880198814208D9104980B2A08009786B
:1053B000491E084201D10120287101207CBDFFE770
:1053C0000020FBE79000002019610008C66100087A
:1053D000D9610008D861000846620008DA61000857
:1053E00048620008476200084A6200081C61000821
:1053F00030B5164A164C174BD5781279212D02D0AC
:10540000222D20D115E02478A2421CD1124A147812
:10541000124A12780CB9012A15D042B1104A026022
:105420001046104A128810441860092008E00E4AFD
:10543000F5E72078824206D10C4818600C480088B5
:105440000860012030BD002030BD00009000002029
:105450001D61000888000020196100087300002009
:1054600046620008C4610008DA610008A061000813
:10547000C261000870B51C481B4D0078A5F10805F5
:1054800010F01F040AD01848A5F11801174B4A78EC
:105490000079012C06D0022C24D109E012481A38D8
:1054A00028601DE0F2B1897888421BD2002015E007
:1054B00000F08F04200605D504F00F064FF480306D
:1054C000B04001E00120A0400AB922070AD18A6851
:1054D000024207D0C9680142E8D0012018802B6041
:1054E000012070BD002070BD9000002094110020AC
:1054F00070B5294A0146A2F12004107810F01F036C
:105500001046408804D0012B28D0022B26D110E071
:10551000012823D129B100F0F7F9E08840F002001A
:1055200005E0002000F0F0F9E08820F00200E080C3
:1055300030E0127902F08F06320605D506F00F0230
:105540004FF48035954001E00125B54062782AB1DD
:10555000320703D0A2682A4200D008B1002070BDF3
:105560000D482038C06800EA050031B190B93046D6
:1055700000F09CF9E06828430BE058B1206928420C
:1055800008D13046FFF7E8F83046FFF797FEE068AD
:10559000A843E060012070BD900000202DE9F84F85
:1055A0005C4F00200090387810F01F0F6FD1B87852
:1055B0004FF000094FF0010B4FF4803AA7F120069D
:1055C00000287AD0544801783046C07809B90128BB
:1055D0005DD008B1514C6BE0514C69E06078022815
:1055E00004D0042844D0052860D144E06179B8781B
:1055F00081423BD170702079B0700020494A4A49FD
:1056000003E000BF02F80090401C0B889842F9D3D9
:105610000125B0460BFA05F0D8F80810084202D070
:105620002846FFF762F9D8F808100AFA05F0084290
:1056300003D045F08000FFF758F96D1C102DE9D319
:105640004FF00110C8E902090120C8F81090FFF7D7
:10565000F9F8E0794006B8F8060002D540F00100FC
:1056600001E020F00100A8F806001FE060881EE0BD
:10567000E07800901AE00098C0B9A07800F08F059B
:10568000280605D505F00F010AFA01F002E03CE01A
:105690000BFA05F0B16801432046B160FFF786F8C8
:1056A0002846FFF739F9284600F0D6F82078044458
:1056B0002078002892D124E0FFE7C84686F80190C0
:1056C00001245D464FEA0A09B16805FA04F0084270
:1056D00002D02046FFF709F9B16809FA04F0084240
:1056E00003D044F08000FFF700F9641C102CEBD3CA
:1056F0004FF00110C6E902080020C6F81080FFF73D
:10570000A1F8B8787178884202D00020BDE8F88FFF
:105710000120FBE7900000201961000846620008A4
:10572000DA610008390000201A6100082DE9FC5FE9
:10573000444E00273D463078BB4600F01F00B84677
:1057400001287DD1A6F120014878002875D03E4877
:10575000BA4602780846C0780AB9012870D089464E
:1057600008B13A4C65E03A4C63E06078022804D016
:10577000042809D005285AD117E0617999F8010069
:10578000814254D0608853E0A7783079E5784FF0B3
:105790000008B8424BD1B078A84248D12D484FF00C
:1057A000010A10F807B0C55541E03079B8423ED142
:1057B000A07800F08F000190000605D5019800F058
:1057C0000F014FF4803001E00199012088400090E2
:1057D000B078A84217D1D9F80810009A2046114392
:1057E000C9F80810D9F80C109143C9F80C10FEF74D
:1057F000DDFF0198FFF790F8019800F02DF800996F
:1058000048EA010813E05D4511D1009918EA010F3B
:105810000DD1D9F80810009A9143C9F80810D9F8A9
:105820000C109143C9F80C100198FFF75EF820782E
:1058300004442078002898D15046BDE8FC9FFFE73B
:105840000020FAE790000020196100084662000875
:10585000DA610008390000200107890E01F1804259
:1058600002F5A042D2F8001C10F0800F05D048F6D7
:10587000CF700840C2F8000C70474CF68F7008409B
:10588000C2F8000C7047FEF70BBF10B5FFF7DCFB4A
:10589000BDE81040FEF708BF002918BF704740F070
:1058A00080000149086070474C5C00400107890E88
:1058B00001F1804202F5A042D2F8001C10F0800FE6
:1058C00007D081F0100048F6BF710840C2F8000C04
:1058D000704781F480504BF68F710840C2F8000C7D
:1058E0007047000001490020FFF7ACBC9000002089
:1058F00000221146802000F009B800000149002074
:10590000FFF7A0BC94110020704700002DE9F001C2
:10591000284F054600F00F067868274B00EB06106D
:10592000006803EB4000531C012B1CD95B081AD004
:10593000001F4FF0000C13F0010F05D0B1F800C0AC
:1059400040F804CF4FF0010C5B080CD001EB4C0485
:105950005B1EB4F80080C0F80480648840F8084FEB
:105960000CF1020CF2D1786800EB06104260B00036
:1059700000F1804000F5A040D0F8000C00F03000AD
:10598000102813D02807800E00F1804101F5A041B6
:10599000D1F8000C15F0800F0EBF4BF68F7380F01E
:1059A000300048F6BF731840C1F8000CBDE8F001A4
:1059B0001046704744000020006000402DE9F05F71
:1059C000654D2C68654F664E14F4806FA5F1040890
:1059D0003BD000202860316800290EBF00224FF420
:1059E00000514A0011433A68002A18BF4FF4007270
:1059F00041EA020214BF4FF48071002142EA010122
:105A000041F41C41C8F80010574B56494FF0400272
:105A1000186048684FF0C00302604FF08002826057
:105A20000B8048F2FF71C16050494FF44850086044
:105A30004F48026000F06CFA4E48016800291CBF14
:105A4000084680476FF48060286014F4006F14D01B
:105A5000D8F8000040F00800C8F80000D8F80000AE
:105A600040F00400C8F800004348016800291CBF4A
:105A7000084680476FF40060286014F4805F0ED001
:105A8000D8F8000020F00800C8F800003B48016882
:105A900000291CBF084680476FF48050286014F42A
:105AA000007F06D03868002818BF80476FF4007068
:105AB000286014F4804F07D0306810B1316802209C
:105AC00088476FF48040286014F4005F07D0306886
:105AD00010B13168012088476FF4005028602868B1
