:020000040800F2
:10400000F046002001410008455A0008455A0008C2
:10401000455A0008455A0008455A000800000000AB
:10402000000000000000000000000000455A0008E9
:10403000455A000800000000455A0008DD710008DC
:104040001B4100081B4100081B4100081B410008E0
:104050001B4100081B4100081B4100081B410008D0
:104060001B4100081B4100081B4100087D4F000850
:104070009D4F0008BD4F0008E94F0008155000088B
:10408000415000086D5000081B4100081B4100080A
:104090005DA400081B4100081B4100081B410008EB
:1040A0001B4100081B4100081B4100081B41000880
:1040B0001B4100081B4100081B4100081B41000870
:1040C0001B4100081B4100081B4100081B41000860
:1040D0001B410008A5760008B57700081B410008C1
:1040E0001B4100081B4100081B410008DFF80CD0F1
:1040F00000F03CF80048004771A60008F046002098
:104100000648804706480047FEE7FEE7FEE7FEE771
:10411000FEE7FEE7FEE7FEE7FEE7FEE7897300083D
:10412000ED40000840EA01039B0703D009E008C9FD
:10413000121F08C0042AFAD203E011F8013B00F86C
:10414000013B521EF9D27047D2B201E000F8012BB8
:10415000491EFBD270470022F6E710B513460A4607
:1041600004461946FFF7F0FF204610BD064C074DE8
:1041700006E0E06840F0010394E807009847103437
:10418000AC42F6D3FFF7B6FF18AE000838AE000811
:1041900010B50A48806940F01C0008498861084948
:1041A000084801F0CBF90849084801F0C7F9084967
:1041B000084801F0C3F901F089FC10BD001002406D
:1041C00004AB00080008014008AB0008000C0140E7
:1041D0000CAB00080010014038B51B49C86A804785
:1041E0000090C0F3400068B3184804681649486A54
:1041F0008047044416480068241AB4F5806F05DB34
:10420000134800682044124908600024002C19DD7E
:104210000F480068C0F30900C0F58065AC4200DDBE
:104220002C460B490968C1F309010A4A881821463E
:1042300004F078FD0446002C04DD054800682044A5
:104240000349086038BD0000FCAB00086C0000208A
:1042500070000020EC3200200020054908704870F2
:104260000449087004490860044908607047000068
:10427000280000202A0000202C0000203000002010
:1042800070B505460E46287808B9012400E02C7860
:10429000012C05D101200649087001F069FD01E0FB
:1042A000002400BF00BF34704FF0011070BD00004B
:1042B0001401002030B502460B461078547840EACD
:1042C00004210B4800680B4CB0FBF4F0801C032465
:1042D000B0FBF4F041430846044600BF00BF651E32
:1042E0002C1EFCD100BF00201870034830BD000018
:1042F0000C00002040420F000100020010B50446EF
:1043000000200449087001F023FD002020700120E6
:1043100010BD00001401002030B502461546521CA5
:1043200012F8014B0BE012F8013B03F0020020B140
:1043300003F0100010B1121D00E0121D641E002CCD
:10434000F1D1002008704870501B0004801C30BD63
:1043500070B504460D46207810B1012810D107E051
:10436000627802F001000B4A1268116888470BE07E
:10437000627802F00100074A12685168884703E03A
:10438000FF202870044870BD00BF0020287002483C
:10439000F9E70000040000200100020070B50646A5
:1043A0000C460025062E1FD006DC062E3CD2DFE888
:1043B00006F03B101112131AFD2E22D004DCF02E51
:1043C00013D0F12E30D11BE0FE2E29D0FF2E2BD1A1
:1043D00020E02AE029E028E006252A461449204664
:1043E000FFF7A0FE21E020E01FE01248006808B1BE
:1043F000202000E0002040F015002070012514E08E
:1044000013E000202070102060700020A070E07089
:1044100004250AE04020207000206070022504E09E
:1044200040202070012500E000BF00BF284670BD7D
:1044300010AB00080C00002002461378FF20087023
:10444000581C0004401C70470246FF2008704FF0C3
:1044500001107047F0B502460B46FF2003F8010B30
:104460000125012612F8017B0AE012F8014B04F045
:104470003F0101B94021C81DC1080A44481C054438
:10448000381EA7F10107F0D146EA0540F0BD70B52E
:1044900005460E462878802807D328789F2804D818
:1044A0003146284600F0BBF870BD287806F8010BAD
:1044B00015F8010B1F2872D2DFE800F010191F2534
:1044C000656B72A7782A30A7A7A7A7A7353B4147F6
:1044D00053595F7E848A9096A14D9B002878711C69
:1044E000FFF75CFF0446347004F10210DCE731464C
:1044F0002846FFF72DFF04468DE031462846FFF79A
:10450000BFFE044687E03046FFF7F8FE044682E02F
:1045100031462846FFF7CEFE04467CE0304600F0E8
:1045200084F8044677E03146284600F0C7FB04468D
:1045300071E03146284600F085FB04466BE03146C9
:10454000284600F06FFC044665E03146284600F03E
:1045500075F804465FE03146284600F083F80446CB
:1045600059E031462846FFF775FF044653E03146CF
:104570002846FFF761FF04464DE031462846FFF725
:1045800063FF044647E03146284600F0C5FC044678
:1045900041E03146284600F07FFC04463BE034E031
:1045A0003146284600F090FC044634E03146284667
:1045B00000F0CAFC04462EE03146284602F04EFDCB
:1045C000044628E03146284602F0FEFC044622E07C
:1045D0003146284602F02AFC04461CE031462846B3
:1045E00002F052FC044616E0304602F021FD04467B
:1045F00011E03146284602F0C1FC04460BE031468A
:10460000284602F071FC044605E0FF2006F8010C84
:104610004FF0011048E700BF04F1011044E70246E3
:10462000FF2008704FF001107047014600BF0120C5
:1046300048700020087002207047000010B5024644
:10464000137803F00300401C054C2076C3F380046C
:1046500003484476002008704FF0011010BD0000A0
:10466000140100202DE9F04704460E46002006F80C
:10467000010B4FF001084FF0010914F801AB33E0D2
:1046800014F8017B07F03F0505B94025E81DC50872
:1046900007F0800088B100BF00BF00BF1748006866
:1046A00020F0706040F00060144908604FF48040D2
:1046B00012490C31086000BF01E001F01DFB3246D9
:1046C0002146384601F070FDBAF1000F01D101F02A
:1046D00013FB07F0800020B108F101082E44A94423
:1046E00002E02C44681C8044BAF10000AAF1010ADF
:1046F000C6D149EA0840BDE8F0870000040C01403B
:104700002DE9F04F87B005460C4606950020059030
:104710000026A246A41CE0490870834604906D1C44
:1047200015F8019B50E115F8017B07F00200002805
:104730007ED0BBF1000F3DD0D848B0F8108007F014
:104740001100012811D100BF01A9384601F08EFDEA
:104750000646022E1CD1B8F10000A8F1010817D0BE
:10476000CD4800780028EFD012E000BF01A90E204C
:1047700001F07CFD0646022E08D1B8F10000A8F138
:10478000010803D0C44800780028EFD04FF0000B98
:10479000012E00D01CE1019804F8010B0198000AD9
:1047A00004F8010B0198000C04F8010B0198000EAD
:1047B00004F8010B07F0100000285ED02878697813
:1047C00040EA0120A97840EA0140E97840EA016026
:1047D00003902D1DB148408A029007F00100B0B14E
:1047E000AE48B0F8108000BF0021384601F03EFD11
:1047F0000646022E08D1B8F10000A8F1010803D046
:10480000A54800780028EFD0012E00D0E0E000BFDE
:10481000A248B0F8108000BF01A9384601F026FD7B
:104820000646022E0AD1B8F10000A8F1010800E006
:1048300069E003D0984800780028EDD0012E00D020
:104840000EE096484069019908400399884207D0D4
:104850000298411E029118B18F4800780028D7D0E5
:1048600000BF8E484069019908400399884201D0F1
:1048700046F01006012E43D0AAE08848B0F8108018
:1048800007F00100C8B1BBF1000F39D100BF002112
:10489000384601F0EBFC0646022E08D1B8F10000C4
:1048A000A8F1010803D07C4800780028EFD0012E41
:1048B00000D08DE04FF0010B22E000BF01A9384687
:1048C00001F0D4FC0646022E08D1B8F10000A8F190
:1048D000010803D0704800780028EFD0012E00D0E6
:1048E00076E0019804F8010B0198000A04F8010B26
:1048F0000198000C04F8010B0198000E04F8010B5C
:104900000020049057E0BBF1000F27D06348B0F8B7
:10491000108000BF01A90E2001F0A8FC0646022E5F
:1049200008D1B8F10000A8F1010803D05A48007876
:104930000028EFD0012E00D04AE0019804F8010BC6
:104940000198000A04F8010B0198000C04F8010B0F
:104950000198000E04F8010B4FF0000B28786978DD
:1049600040EA0120A97840EA0140E97840EA016084
:1049700001902D1D07F0200020B1484801994161A8
:10498000012618E04548B0F8108000BF01A938465C
:1049900001F06CFC0646022E08D1B8F10000A8F127
:1049A000010803D03C4800780028EFD0012E00D049
:1049B0000EE0012004900598401C059036480078D0
:1049C00000B105E0A9F10109B9F1000F7FF4ABAE28
:1049D00000BF0CE015F8017B07F0020020B107F0E2
:1049E000100010B12D1D00E02D1DA9F10109B9F134
:1049F000000FEFD1012E3FD1BBF1000F26D0274889
:104A0000B0F8108000BF01A90E2001F02FFC06466F
:104A1000022E08D1B8F10000A8F1010803D01E4809
:104A200000780028EFD0012E00D026E0019804F88D
:104A3000010B0198000A04F8010B0198000C04F81E
:104A4000010B0198000E04F8010B15E0049898B1D1
:104A50001248B0F8108000BF00210E2001F006FCC3
:104A60000646022E08D1B8F10000A8F1010803D0D3
:104A7000094800780028EFD000BF05988AF80000A8
:104A80008AF80160A4EB0A010698281A41EA00405E
:104A900007B0BDE8F08F00002000002014010020C6
:104AA0002DE9F84F04460D464FF0000B0026A846AE
:104AB000ED1C002056490870641C2078617840EA9B
:104AC000012AA41CBAF1000F00D195E014F8017B73
:104AD00007F0020000284FD007F00100B0B14D48A8
:104AE000B0F8109000BF0021384601F0BFFB064629
:104AF000022E08D1B9F10000A9F1010903D0444800
:104B000000780028EFD0012E00D075E02EE0BAF139
:104B1000000F03D107F0010000B10E273D48B0F8A7
:104B2000109000BF6946384601F0A0FB0646022EF1
:104B300008D1B9F10000A9F1010903D03448007887
:104B40000028EFD0012E00D056E0009805F8010BA8
:104B50000098000A05F8010B0098000C05F8010BFD
:104B60000098000E05F8010B0BF1010BBAF10000E3
:104B7000AAF1010ACBD13EE024E02078617840EA36
:104B80000120A17840EA0140E17840EA016000900C
:104B9000241D2048B0F8109000BF6946384601F047
:104BA00065FB0646022E08D1B9F10000A9F1010902
:104BB00003D0174800780028EFD0012E00D01BE06A
:104BC0000BF1010BBAF10000AAF1010AD5D111488D
:104BD000B0F8109000BF00210E2001F047FB064600
:104BE000022E08D1B9F10000A9F1010903D008484B
:104BF00000780028EFD000BF88F800B04FEA1B20F3
:104C000088F8010088F80260A5EB0800BDE8F88F7D
:104C1000200000201401002038B504460D466078BD
:104C2000A17840EA0120E17840EA0140217940EA98
:104C3000016000906946002001F018FB00202870F8
:104C4000012038BD30B502460C461078557840EA50
:104C50000520957840EA0540D57840EA05631BB900
:104C6000FF202070124830BD12480068B3EB900F4F
:104C700004D30120104D6870686014E000200E4DD0
:104C80006870581E0B4D2D6800EB5500B0FBF3F11A
:104C9000022905D9891E881C0325B0FBF5F100E027
:104CA000012105484160002020700148DBE7000039
:104CB000010004000C000020140100202DE9F04741
:104CC0000646884634787578B078F17840EA012055
:104CD000317940EA0140717940EA016905F001004B
:104CE00088B104F0010030B100BF4FF400504A49D0
:104CF000086000BF07E000BF4FF400504649091D9F
:104D0000086000BF00BF05F0020088B104F0020097
:104D100030B100BF4FF480403F49086000BF07E05A
:104D200000BF4FF480403C49091D086000BF00BF30
:104D300005F0040018B1C4F3870000BF00BF05F000
:104D4000200018B1C4F3471000BF00BF05F0800079
:104D500018B1C4F3C71005F06DFEB9F1000F3ED0D5
:104D60004FF0010900BF2D48476800BF00BF05F0A4
:104D7000010020B100F04CFF604000B128E005F0D8
:104D8000020028B100F0DCFF80EA540000B11FE00F
:104D900005F0040028B100BF002080EA940000B1B3
:104DA00016E005F0200028B100BF002080EA541072
:104DB00000B10DE005F0800048B100BF164808388A
:104DC000006800F0010080EAD41000B100E005E0C6
:104DD00000BF12484068C01B4845C8D300BF00F060
:104DE00017FF824600F0ACFF4AEA4000002140EA8B
:104DF000810000BF40EAC10000BF40EA41110648FF
:104E00000838006800F0010041EAC01488F800404A
:104E10000348BDE8F0870000100C0140001000E0DE
:104E20000100060070B504460E4614F8015B0DB98A
:104E30004FF480752146284601F0B8FF00203070FD
:104E4000E81DC508681C0004401C70BD10B500209A
:104E50000E49087048700E48006840080D49B0FBC4
:104E6000F1F0801E0949486000200873642107485A
:104E7000018200214182416101200449087600211C
:104E80000248417600F064FF10BD000014010020CC
:104E90000C0000208096980070B505460E46094823
:104EA0000078012805D131462846FFF729FC044641
:104EB00005E031462846FFF72FFA044600BF00BF41
:104EC000204670BD1401002070B505460E461148FD
:104ED0000078012805D131462846FFF7E1FD044658
:104EE00005E0002030707070B070032400BF00BF78
:104EF000E87800F0020010B144F4802408E06878FB
:104F0000A97840EA0120042101EB800044EA004432
:104F1000204670BD1401002002461078084B18731B
:104F20005078937840EA032305480382D0781379B8
:104F300040EA03230248438200200870014870477A
:104F4000140100200100050070B506460D46094811
:104F50000078012805D129463046FFF75DFE04465A
:104F600003E0FF202870012400BF00BF44F4A0200C
:104F700070BD0000140100207047000010B5054806
:104F8000006800F00F04034844602046FFF7F4FF78
:104F900010BD0000000002407047000010B5054839
:104FA0000068C0F303142001024948602046FFF75F
:104FB000F3FF10BD000002407047000010B5054827
:104FC0000068C0F303242002024948602046FFF72E
:104FD000F3FF10BD0000024010B50446014803F085
:104FE000D0FD10BD34AB000810B505480068C0F313
:104FF00003342003024948602046FFF7EDFF10BD4F
:105000000000024010B50446014803F01FFC10BD2B
:1050100034AB000810B505480068C0F30344200411
:10502000024948602046FFF7EDFF10BD0000024036
:1050300010B50446014803F009FC10BD8CAB000814
:1050400010B505480068C0F30354200502494860C4
:105050002046FFF7EDFF10BD0000024010B50446EA
:10506000014803F08EFD10BD8CAB000810B505485B
:105070000068C0F303642006024948602046FFF739
:10508000EDFF10BD0000024070B505460C46012D35
:1050900071D13A48406940F0010038494861082C14
:1050A00060D2DFE804F05F04101C29364350002072
:1050B000334988600F2048600B2005F091FA0B20DF
:1050C00005F0BAFA4EE000202D49C861F020486092
:1050D0000C2005F085FA0C2005F0AEFA42E0002025
:1050E000274908634FF4706048600D2005F078FA96
:1050F0000D2005F0A1FA35E00020214948644FF465
:10510000704048600E2005F06BFA0E2005F094FA0E
:1051100028E000201A4988654FF4702048600F206D
:1051200005F05EFA0F2005F087FA1BE00020144915
:10513000C8664FF470004860102005F051FA102046
:1051400005F07AFA0EE000200D49803108604FF03A
:1051500070600B494860112005F042FA112005F0FB
:105160006BFA00BF00BF0120A04006490978084340
:105170000449087000BF00BF70BD0000001002406D
:10518000000002403C00002070B505460C46012D91
:105190004ED12948007800B970BD082C37D2DFE81D
:1051A00004F036040B121920272E0B2005F026FAE6
:1051B0000020224988602AE00C2005F01FFA002018
:1051C0001E49C86123E00D2005F018FA00201B4994
:1051D00008631CE00E2005F011FA0020174948640E
:1051E00015E00F2005F00AFA0020144988650EE04A
:1051F000102005F003FA00201049C86607E01120CE
:1052000005F0FCF900200D498031086000BF00BFA7
:105210000120A040084909788143074801700078BF
:1052200028B90748406920F001000549486100BFDE
:1052300000BF00BFB0E700003C00002000000240BB
:10524000001002400749096842F22832B1FBF2F12E
:10525000484301460A4600BF00BF531E1A1EFCD138
:1052600000BF70470C00002030B500F00F010D4C5E
:1052700004EB8103D3F8002C00F0800343B148F61F
:10528000CF731340254605EB8104C4F8003C07E0CA
:105290004CF68F731340034D05EB8104C4F8003CBA
:1052A00030BD00000050004070B500F00F02104DFE
:1052B00005EB8204D4F8003C00F080045CB101F0FE
:1052C00030045C4048F6BF752C40094E06EB820561
:1052D000C5F8004C0AE001F440545C404BF68F7571
:1052E0002C40034E06EB8205C5F8004C70BD000053
:1052F0000050004030B5044604254FF4302000F043
:105300006FF80546042D17D10C48006940F00200E3
:105310000A49086108464461006940F0400008619C
:105320004FF4302000F05CF805460448006941F66F
:10533000FD71084001490861284630BD0020024047
:1053400004200B49C96801F0010109B101200EE0F8
:105350000749C96801F0040109B1022007E00449C6
:10536000C96801F0100109B1032000E00420704772
:10537000002002400348006940F0800001490861B4
:10538000704700000020024070B504460D46042618
:10539000F00200F025F80646042E11D109480069F4
:1053A00040F00100074908612580F00200F018F87C
:1053B00006460448006941F6FE710840014908614B
:1053C000304670BD0020024002480349486003484F
:1053D000486070472301674500200240AB89EFCD4C
:1053E00000B502460423FFF7ABFF034603E0FFF7D7
:1053F000A7FF0346521E012B01D1002AF7D102B9A3
:105400000523184600BD000018B5002844D0C0F39D
:105410004211C0F30322214B9B6903F001032BB916
:105420001E4B9B6943F001031C4CA36100F48053A5
:10543000A3B11B4BDB69009300F01F0301FA03F3D8
:10544000009C9C43009400F01F0302FA03F3009CAD
:1054500023430093124C009BE3611DE0104B5B68FB
:10546000009300F01F0301FA03F3009C9C43009497
:1054700000F01F0302FA03F3009C2343009307216B
:105480000022009B23EA01630093009B43EA02632E
:105490000093034C009B636018BD000000100240A5
:1054A0000000014001461D48814204D11C4880692A
:1054B000C0F3800070471B48814204D118488069BE
:1054C000C0F3C000F6E71848814204D1144880694F
:1054D000C0F30010EEE71548814204D110488069FE
:1054E000C0F34010E6E71248814204D10C488069BD
:1054F000C0F38010DEE70F48814204D1084880697C
:10550000C0F3C010D6E70C48814204D1044880693A
:10551000C0F30020CEE70020CCE7000000080140E7
:1055200000100240000C0140001001400014014036
:1055300000180140001C0140002001402DE9F0410D
:10554000024600250026002000230024002791F8B1
:1055500003C00CF00F0591F803C00CF0100CBCF167
:10556000000F03D091F802C04CEA050591F800C085
:10557000BCF1000F31D0146800202BE04FF0010C7B
:105580000CFA00F3B1F800C00CEA03069E4220D1E9
:1055900083004FF00F0C0CFA03F7BC4305FA03FC31
:1055A0004CEA040491F803C0BCF1280F06D14FF077
:1055B000010C0CFA00FCC2F814C00AE091F803C018
:1055C000BCF1480F05D14FF0010C0CFA00FCC2F8F9
:1055D00010C0401C0828D1D31460B1F800C0BCF141
:1055E000FF0F34DD546800202EE000F1080C4FF06E
:1055F000010808FA0CF3B1F800C00CEA03069E4259
:1056000021D183004FF00F0C0CFA03F7BC4305FACD
:1056100003FC4CEA040491F803C0BCF1280F05D147
:1056200000F1080C08FA0CF8C2F8148091F803C0D5
:10563000BCF1480F07D100F1080C4FF0010808FA3F
:105640000CF8C2F81080401C0828CED35460BDE886
:10565000F0812DE9F04105460C46174698460F2C7F
:1056600002D90020BDE8F0812846FFF71BFF18B9DA
:105670000121284600F02AF8B8F1000F10D1022FBE
:1056800005D1E8680121A1408843E86008E0032FC4
:1056900006D127F00107E8680121A1400843E8602E
:1056A000082C01D22E4601E0083C2E1D3068A200D5
:1056B0000F2191408843306048EA8700A10088406C
:1056C0003168084330600120CCE70000002945D054
:1056D000454A904206D1454A926942F00402434B42
:1056E0009A6180E0424A904206D1404A926942F073
:1056F00008023E4B9A6176E03E4A904206D13B4A10
:10570000926942F01002394B9A616CE03A4A904239
:1057100006D1364A926942F02002344B9A6162E027
:10572000364A904206D1314A926942F040022F4BEC
:105730009A6158E0324A904206D12C4A926942F06E
:1057400080022A4B9A614EE02E4A90424BD1274A62
:10575000926942F48072254B9A6144E0224A904259
:1057600006D1224A926922F00402204B9A613AE063
:105770001F4A904206D11D4A926922F008021B4B33
:105780009A6130E01B4A904206D1184A926922F091
:105790001002164B9A6126E0174A904206D1134A2E
:1057A000926922F02002114B9A611CE0134A904248
:1057B00006D10E4A926922F040020C4B9A6112E027
:1057C0000F4A904206D1094A926922F08002074BA3
:1057D0009A6108E00B4A904205D1044A926922F48A
:1057E0008072024B9A61704700080140001002402D
:1057F000000C01400010014000140140001801405D
:10580000001C01400020014010B51148007801281B
:1058100017D100BF00200F4908700F4800680F49DA
:105820000968441A0E480078012803D101F0C2FE2D
:10583000044400E000BF00BF064800780028E9D11A
:1058400004E00548006805490968441A204610BD6F
:1058500027000020340000202C0000203000002011
:1058600026000020084A1178127882F00102064BC7
:105870001A70064A525C064B1B7842EA030000226B
:10588000024B5A54704700002A00002028000020D4
:10589000270000202DE9F04704460D464FF0FF0A8F
:1058A0002078D02872DB2078D7286FDC207805F8A4
:1058B000010B14F8010BD038082868D2DFE800F09B
:1058C00004121518213356725648076805F8017BF3
:1058D000380A05F8010B380C05F8010B380E05F8ED
:1058E000010B81E0FFF770FD7EE0FFF743FD7BE0F9
:1058F00027683846FFF7FEFC042801D04FF0FF0A66
:1059000072E0D4F80080A68806E018F8011BFF2991
:1059100002D04FF0FF0A04E0301EA6F101018EB262
:10592000F3D100BF60E02768A688382E02DD4FF073
:10593000FF0A1AE0A41D12E014F8019B2EB114F81E
:10594000011B49EA0129701E86B249463846FFF715
:105950001BFD042802D04FF0FF0A05E0BF1C301EDB
:10596000A6F101018EB2E7D100BF3DE0D4F800807E
:10597000A6883E2E02DD4FF0FF0A12E0002005F857
:10598000010B09E026B998F800A005E030E027E017
:1059900018F8010B05F8010B301EA6F101018EB2BB
:1059A000F0D121E000BF00BF00BF00BF00BFBFF3C8
:1059B0004F8F00BF00BF00BF1B48006800F4E060CD
:1059C0001A490843001D1849086000BF00BF00BF06
:1059D000BFF34F8F00BF00BF00BF00BF00BFFDE798
:1059E0006D1E4FF0FF0A00BF00BF85F800A017E052
:1059F0000F48006890B10F4BDFF83CC0DCF800C0E6
:105A000003EB8C110D4BDFF838C0DCF800C003EB62
:105A10008C10074B1B685A68904701E0FF202870E4
:105A2000BDE8F087002004E00CED00E00000FA057E
:105A300008000020EC22002064000020EC1200206E
:105A40005C00002072B61E49086880F3088800BF19
:105A500000F03CF8002412E000F098F86420FFF712
:105A6000F1FB00F08BF800F061F86420FFF7EAFB2F
:105A700000F054F84FF47A70FFF7E4FB641C052C37
:105A8000EADB00BF00BF00BF00BF00BFBFF34F8F06
:105A900000BF00BF00BF0B48006800F4E0600A4987
:105AA0000843001D0749086000BF00BF00BFBFF3E7
:105AB0004F8F00BF00BF00BF00BF00BFFDE7000069
:105AC000004000080CED00E00000FA0510B50F489A
:105AD000806940F004000D49886148150C49086050
:105AE0000C490B481438FFF729FD0848806940F03D
:105AF00004000649886148150549086006490448BC
:105B00001438FFF71BFD00F039F810BD00100240FB
:105B100014080140D0AA0008D4AA00084FF400706D
:105B20000149086070470000140801404FF40070FC
:105B300001490860704700001008014000B50246A6
:105B400000F01CF802F0010030B10B48007840F082
:105B500001000949087005E00748007820F00100BD
:105B6000054908704FF0E020006940F001004FF057
:105B7000E021086100BD0000010000204FF400702A
:105B80000149086070470000140801404FF400709C
:105B900001490860704700001008014000B5024646
:105BA000FFF7BCFF02F0010030B10B48007840F075
:105BB00001000949087005E00748007820F001005D
:105BC000054908704FF0E020006940F001004FF0F7
:105BD000E021086100BD000001000020024A0A40E7
:105BE0000243024B1A60704780FFFF1F08ED00E080
:105BF0004FF400500149086070470000140C014048
:105C00004FF400500149086070470000140C014037
:105C100002480068C0F34030704700000C0C01409F
:105C20004FF400500149086070470000100C01401B
:105C30004FF400500149086070470000100C01400B
:105C40000448006800F4804008B10120704700203B
:105C5000FCE70000080C01400448006800F48040A4
:105C600008B1012070470020FCE70000080C01404B
:105C700000F0010121B14FF48041044A116004E0B9
:105C80004FF48041014A121D11607047100C014011
:105C900000F0010121B14FF48041044A116004E099
:105CA0004FF48041014A121D11607047100C0140F1
:105CB00000BF0748006820F0706040F000600449B1
:105CC00008604FF4804002490C31086000BF704703
:105CD000040C014000BF0748006820F0706040F0ED
:105CE0004070044908604FF4804002491031086058
:105CF00000BF7047040C014000BF0748006820F057
:105D0000706040F04070044908604FF480400249E0
:105D10001031086000BF7047040C014000BF074805
:105D2000006820F0706040F04070044908604FF453
:105D3000804002491031086000BF7047040C0140E8
:105D400002480068C0F3803070470000080C014032
:105D500010B504490448FFF7F1FB04490248FFF776
:105D6000EDFB10BDF8AA0008000C014000AB0008D4
:105D700010B54FF4C0400A4908600A490A48FFF7C5
:105D8000DDFB0A4906481038FFF7D8FB002004F075
:105D900051FE6420FFF756FA012004F04BFE10BDBF
:105DA000100C0140F0AA000800080140F4AA000805
:105DB00010B50848806940F00400064988614FF436
:105DC000004005490860054903481438FFF7B6FB51
:105DD00010BD00000010024014080140ECAA0008A9
:105DE0002DE9F04707468A4600250120FFF740FFCE
:105DF000FFF7FEFED6494868014600BF00BF4A1EB5
:105E0000111EFCD100BFFFF70BFFD14948680146C6
:105E100000BF00BF4A1E111EFCD100BF3C46E0B2CD
:105E2000FFF726FFFFF7E4FEC9494868014600BFB7
:105E300000BF4A1E111EFCD100BFFFF7F1FEC4498E
:105E40004868014600BF00BF4A1E111EFCD100BFBA
:105E500025447C08E0B2FFF70BFFFFF7C9FEBC4901
:105E60004868014600BF00BF4A1E111EFCD100BF9A
:105E7000FFF7D6FEB6494868014600BF00BF4A1E7C
:105E8000111EFCD100BF2544BC08E0B2FFF7F0FEB4
:105E9000FFF7AEFEAE494868014600BF00BF4A1E8C
:105EA000111EFCD100BFFFF7BBFEA949486801469F
:105EB00000BF00BF4A1E111EFCD100BF2544FC08D4
:105EC000E0B2FFF7D5FEFFF793FEA149486801460F
:105ED00000BF00BF4A1E111EFCD100BFFFF7A0FE8D
:105EE0009B494868014600BF00BF4A1E111EFCD1F5
:105EF00000BF2544E8B2FFF7BBFEFFF779FE9449E7
:105F00004868014600BF00BF4A1E111EFCD100BFF9
:105F1000FFF786FE8E494868014600BF00BF4A1E53
:105F2000111EFCD100BF0020FFF7A2FEFFF760FEAC
:105F300087494868014600BF00BF4A1E111EFCD1B8
:105F400000BFFFF76DFE82494868014600BF00BFF1
:105F50004A1E111EFCD100BF0120FFF789FEFFF78A
:105F600047FE7B494868014600BF00BF4A1E111E1C
:105F7000FCD100BFFFF754FE75494868014600BFD9
:105F800000BF4A1E111EFCD100BF00BF00BF00BFF2
:105F90007048006820F0706040F000606D49086053
:105FA0004FF480406B490C31086000BF00BF684867
:105FB000067E16E0FFF71CFE65494868014600BFF3
:105FC00000BF4A1E111EFCD100BFFFF729FE604929
:105FD0004868014600BF00BF4A1E111EFCD100BF29
:105FE000761E002EE6D1FFF703FE594948680146A8
:105FF00000BF00BF4A1E111EFCD100BFFFF720FEEC
:106000000446FFF70DFE52494868014600BF00BF35
:106010004A1E111EFCD100BFA046FFF7E9FD4C4906
:106020004868014600BF00BF4A1E111EFCD100BFD8
:10603000FFF706FE0446FFF7F3FD454948680146B1
:1060400000BF00BF4A1E111EFCD100BF48EA440831
:10605000FFF7CEFD3E494868014600BF00BF4A1E1B
:10606000111EFCD100BFFFF7EBFD0446FFF7D8FD82
:1060700037494868014600BF00BF4A1E111EFCD1C7
:1060800000BF48EA84083248067E16E0FFF7B0FDFC
:106090002F494868014600BF00BF4A1E111EFCD1AF
:1060A00000BFFFF7BDFD2A494868014600BF00BF99
:1060B0004A1E111EFCD100BF761E002EE6D1FFF74E
:1060C00009FED146002520261DE009F0FF00FFF75C
:1060D000CFFDFFF78DFD1E494868014600BF00BF98
:1060E0004A1E111EFCD100BFFFF79AFD18494868EF
:1060F000014600BF00BF4A1E111EFCD100BF4D4427
:106100004FEA5909761E002EDFD1E8B2FFF7B0FD45
:10611000FFF76EFD0E494868014600BF00BF4A1EEA
:10612000111EFCD100BFFFF77BFD094948680146FD
:1061300000BF00BF4A1E111EFCD100BFFFF7CAFD01
:106140000120FFF795FD08F0FF00BDE8F087000093
:1061500014010020040C014070B50E48007803289B
:1061600017D10D4804680D480568601BB0F5805FC5
:106170000FD2C4F30B040A480078012807D105495F
:10618000087008490819012101F0C2F900E000BFB8
:1061900000BF70BD270000202C0000203000002030
:1061A00026000020300100202DE9F04707468846F0
:1061B000914607F03F0404B9402407F0800000280E
:1061C0002AD026E0002508261DE0FFF719FD264904
:1061D0004868014600BF00BF4A1E111EFCD100BF27
:1061E000FFF73AFD8246FFF723FD1F494868014645
:1061F00000BF00BF4A1E111EFCD100BF6D0845EA5A
:10620000CA15761E641E0EB1002CDED1F54009F8C9
:10621000015B002CD6D125E022E018F8015B0826AE
:106220001BE0E8B2FFF734FDFFF7EAFC0E494868CF
:10623000014600BF00BF4A1E111EFCD100BFFFF780
:10624000F7FC09494868014600BF00BF4A1E111EFD
:10625000FCD100BF6D08761E641E0EB1002CE0D18B
:10626000002CDAD1BDE8F0871401002070B5044697
:106270000D460648407820B12946204600F008F82F
:1062800070BD2946204600F09BF9F9E71401002073
:106290002DE9F04706468A4600270120FFF7F8FC63
:1062A000FFF7AEFC00BF00BFFFF7C2FC00BF00BF9E
:1062B0003546E8B2FFF7ECFCFFF7A2FC00BF00BFD9
:1062C000FFF7B6FC00BF00BF2F447508E8B2FFF728
:1062D000DFFCFFF795FC00BF00BFFFF7A9FC00BF84
:1062E00000BF2F44B508E8B2FFF7D2FCFFF788FCE7
:1062F00000BF00BFFFF79CFC00BF00BF2F44F508A4
:10630000E8B2FFF7C5FCFFF77BFC00BF00BFFFF75B
:106310008FFC00BF00BF2F44F8B2FFF7B9FCFFF7B6
:106320006FFC00BF00BFFFF783FC00BF00BF002071
:10633000FFF7AEFCFFF764FC00BF00BFFFF778FC7F
:1063400000BF00BF0120FFF7A3FCFFF759FC00BF0F
:1063500000BFFFF76DFC00BF00BFFFF7A9FC964828
:10636000047E08E0FFF74CFC00BF00BFFFF760FCB5
:1063700000BF00BF641E002CF4D1FFF741FC00BF3A
:1063800000BFFFF769FC0546FFF752FC00BF00BFE6
:10639000A846FFF735FC00BF00BFFFF75DFC0546D0
:1063A000FFF746FC00BF00BF48EA4508FFF728FC9E
:1063B00000BF00BFFFF750FC0546FFF739FC00BFE8
:1063C00000BF48EA8508B8F1010F7DD106F0020050
:1063D00000283ED0A1460027202410E0FFF710FC43
:1063E00000BF00BFFFF738FC0546FFF721FC00BFE8
:1063F00000BF2F444FEA590949EAC579641E002CB1
:10640000ECD1FFF7FDFB00BF00BFFFF725FC054601
:10641000FFF70EFC00BF00BF87EA050000F0010097
:1064200008B14FF00808BAF1000F01D0CAF8009087
:106430006148047E08E0FFF7E3FB00BF00BFFFF701
:10644000F7FB00BF00BF641E002CF4D1FFF766FC11
:1064500032E05948047E08E0FFF7D2FB00BF00BFDE
:10646000FFF7E6FB00BF00BF641E002CF4D1FFF76E
:1064700055FCDAF80090002720240FE009F0FF0017
:10648000FFF706FCFFF7BCFB00BF00BFFFF7D0FB28
:1064900000BF00BF4F444FEA5909641E002CEDD1E4
:1064A000F8B2FFF7F5FBFFF7ABFB00BF00BFFFF74C
:1064B000BFFB00BF00BF00BF06F0800030B100BFCF
:1064C0003E4840683C4900E019E088603A48047B57
:1064D00074B10020FFF7DCFB08E0FFF791FB00BF81
:1064E00000BFFFF7A5FB00BF00BF641E002CF4D166
:1064F0000120FFF7CDFB08F0FF00BDE8F087B8F101
:10650000020F02D0B8F1040F3ED12B48407E78B183
:1065100006F0020060B1212408E0FFF771FB00BF24
:1065200000BFFFF785FB00BF00BF641E002CF4D145
:106530002148047E08E0FFF763FB00BF00BFFFF7C0
:1065400077FB00BF00BF641E002CF4D1FFF7E6FB11
:106550001948407E90B106F0020078B90020FFF79C
:1065600097FB212408E0FFF74BFB00BF00BFFFF7BC
:106570005FFB00BF00BF641E002CF4D10120FFF7B9
:1065800087FB08F0FF00B8E70B48007E00F121040C
:1065900008E0FFF735FB00BF00BFFFF749FB00BF76
:1065A00000BF641E002CF4D1FFF7B8FB0120FFF7F9
:1065B0006FFB08F0FF00A0E714010020001000E0CE
:1065C00003B587B0002003900120FFF761FBFFF7C0
:1065D00017FBFE48406801900198009000BF00BF83
:1065E0000098401E00900028FAD100BFFFF720FB62
:1065F000F648406801900198009000BF00BF0098E5
:10660000401E00900028FAD100BF07980590059819
:10661000C0B20190FFF73CFBFFF7F2FAEB4840688D
:1066200001900198009000BF00BF0098401E0090AC
:106630000028FAD100BFFFF7FBFAE4484068019058
:106640000198009000BF00BF0098401E00900028F5
:10665000FAD100BF059903980844039007984008B1
:1066600005900598C0B20190FFF712FBFFF7C8FA3A
:10667000D648406801900198009000BF00BF009884
:10668000401E00900028FAD100BFFFF7D1FACF4892
:10669000406801900198009000BF00BF0098401E24
:1066A00000900028FAD100BF059903980844039090
:1066B0000798800805900598C0B20190FFF7E8FAA6
:1066C000FFF79EFAC148406801900198009000BF12
:1066D00000BF0098401E00900028FAD100BFFFF7CD
:1066E000A7FABA48406801900198009000BF00BF27
:1066F0000098401E00900028FAD100BF0599039829
:10670000084403900798C00805900598C0B201900E
:10671000FFF7BEFAFFF774FAAC48406801900198A1
:10672000009000BF00BF0098401E00900028FAD1E2
:1067300000BFFFF77DFAA5484068019001980090DE
:1067400000BF00BF0098401E00900028FAD100BF93
:1067500005990398084403900398C0B20190FFF78D
:1067600097FAFFF74DFA9948406801900198009018
:1067700000BF00BF0098401E00900028FAD100BF63
:10678000FFF756FA9148406801900198009000BFC9
:1067900000BF0098401E00900028FAD100BFFFF70C
:1067A00077FAFFF72DFA8948406801900198009028
:1067B00000BF00BF0098401E00900028FAD100BF23
:1067C000FFF736FA8148406801900198009000BFB9
:1067D00000BF0098401E00900028FAD100BF0120A1
:1067E000FFF756FAFFF70CFA7848406801900198D5
:1067F000009000BF00BF0098401E00900028FAD112
:1068000000BFFFF715FA71484068019001980090A9
:1068100000BF00BF0098401E00900028FAD100BFC2
:10682000FFF746FA6948007E029020E0FFF7E8F99A
:106830006648406801900198009000BF00BF009832
:10684000401E00900028FAD100BFFFF7F1F95F4821
:10685000406801900198009000BF00BF0098401E62
:1068600000900028FAD100BF0298401E02900298C2
:106870000028DBD1FFF7C4F9544840680190019823
:10688000009000BF00BF0098401E00900028FAD181
:1068900000BFFFF7E1F90590FFF7CAF94B484068E0
:1068A00001900198009000BF00BF0098401E00902A
:1068B0000028FAD100BF05980690FFF7A1F94348D8
:1068C000406801900198009000BF00BF0098401EF2
:1068D00000900028FAD100BFFFF7BEF90590FFF73E
:1068E000A7F93A48406801900198009000BF00BFA6
:1068F0000098401E00900028FAD100BFDDE9051085
:1069000040EA41000690FFF77BF93048406801906B
:106910000198009000BF00BF0098401E0090002822
:10692000FAD100BFFFF798F90590FFF781F92748E2
:10693000406801900198009000BF00BF0098401E81
:1069400000900028FAD100BFDDE9051040EA81007F
:1069500006900698012872D1079800F002000028DE
:106960006ED00020049003902020029032E0FFF7C8
:1069700047F91648406801900198009000BF00BF99
:106980000098401E00900028FAD100BFFFF764F97C
:106990000590FFF74DF90D4840680190019800906F
:1069A00000BF00BF0098401E00900028FAD100BF31
:1069B0000599039808440390049840080490DDE981
:1069C000040140EAC1700490029801E01401002023
:1069D000401E029002980028C9D1FFF711F9F14832
:1069E000406801900198009000BF00BF0098401ED1
:1069F00000900028FAD100BFFFF72EF90590FFF7AD
:106A000017F9E848406801900198009000BF00BF66
:106A10000098401E00900028FAD100BF0599039805
:106A2000484000F0010008B108200690089810B115
:106A3000089904980860DB48007E029022E0E9E0B3
:106A400026E0FFF7DDF8D7484068019001980090F4
:106A500000BF00BF0098401E00900028FAD100BF80
:106A6000FFF7E6F8CF48406801900198009000BF1A
:106A700000BF0098401E00900028FAD100BF029885
:106A8000401E029002980028DBD1FFF747F984E00E
:106A9000C448007E029020E0FFF7B2F8C148406889
:106AA00001900198009000BF00BF0098401E009028
:106AB0000028FAD100BFFFF7BBF8BA484068019040
:106AC0000198009000BF00BF0098401E0090002871
:106AD000FAD100BF0298401E029002980028DBD134
:106AE000FFF71CF90898006804900020039020200C
:106AF00002902CE00498C0B20190FFF7C9F8FFF7AC
:106B00007FF8A848406801900198009000BF00BF3E
:106B10000098401E00900028FAD100BFFFF788F8C7
:106B2000A048406801900198009000BF00BF009805
:106B3000401E00900028FAD100BFDDE9030108449F
:106B400003900498400804900298401E0290029816
:106B50000028CFD10398C0B20190FFF799F8FFF752
:106B60004FF89048406801900198009000BF00BF26
:106B70000098401E00900028FAD100BFFFF758F897
:106B80008848406801900198009000BF00BF0098BD
:106B9000401E00900028FAD100BF079800F0800046
:106BA00020B100BF804840687E4988607D48007BF6
:106BB0000290029838B30020FFF76AF820E0FFF750
:106BC0001FF87848406801900198009000BF00BF0E
:106BD0000098401E00900028FAD100BFFFF728F867
:106BE0007048406801900198009000BF00BF009875
:106BF000401E00900028FAD100BF0298401E02906B
:106C000002980028DBD10120FFF742F80698C0B2B5
:106C100009B000BD0698022802D0069804287DD14C
:106C20006048407E50B3079800F0020030B3212046
:106C3000029020E0FEF7E4FF5A4840680190019876
:106C4000009000BF00BF0098401E00900028FAD1BD
:106C500000BFFEF7EDFF5348406801900198009097
:106C600000BF00BF0098401E00900028FAD100BF6E
:106C70000298401E029002980028DBD14948007E0D
:106C8000029020E0FEF7BCFF464840680190019862
:106C9000009000BF00BF0098401E00900028FAD16D
:106CA00000BFFEF7C5FF3F48406801900198009083
:106CB00000BF00BF0098401E00900028FAD100BF1E
:106CC0000298401E029002980028DBD1FFF726F8B8
:106CD0003448407E78B3079800F0020058BB00208B
:106CE000FEF7D6FF2120029022E0FEF789FF2D4813
:106CF000406801900198009000BF00BF0098401EBE
:106D000000900028FAD100BFFEF792FF25484068A6
:106D100001900198009000BF00BF00E011E00098D2
:106D2000401E00900028F8D100BF0298401E02903B
:106D300002980028D9D10120FEF7AAFF0698C0B218
:106D400066E71848007E2130029020E0FEF758FFE9
:106D50001448406801900198009000BF00BF00985F
:106D6000401E00900028FAD100BFFEF761FF0D48D9
:106D7000406801900198009000BF00BF0098401E3D
:106D800000900028FAD100BF0298401E029002989D
:106D90000028DBD1FEF7C2FF0120FEF779FF06983D
:106DA000C0B235E714010020001000E02DE9F041E9
:106DB00005460C46002600272DE017B914F8016B94
:106DC000082706F0010030B100BF4FF4804015499C
:106DD000086000BF07E000BF4FF480401149091D63
:106DE000086000BF00BFFEF70BFF0F49486801466F
:106DF00000BF00BF4A1E111EFCD100BFFEF718FFE6
:106E000009494868014600BF00BF4A1E111EFCD157
:106E100000BF76087F1E281EA5F10105CDD1BDE873
:106E2000F0810000100C01401401002070B50646EE
:106E30000C463078717840EA0120B17840EA014090
:106E4000F17840EA01650E480078012804D128460F
:106E500000F0FCFA054601E0002500BF00BF15B9AF
:106E600000200849087004F8015B280A04F8010BA7
:106E7000280C04F8010B280E20704FF0041070BD90
:106E800026000020270000202DE9F04107460E468D
:106E9000387800F001051248007800F00100A8429F
:106EA00012D00DB1FDF7D8F90E480078012804D1B1
:106EB000284600F03DFB044601E0002400BF00BF6F
:106EC0001CB10748057000E0012414B100203070A7
:106ED00001E0FF2030704FF00110BDE8F0810000AC
:106EE00027000020260000202DE9F04780460C46B0
:106EF000FEF7B8FC8246FEF787FC05461C48007882
:106F000001280CD198F8000098F8011040EA0126F9
:106F10003C2E00D93C26B54202D9354600E000257A
:106F200004F801AB04F8015B280A04F8010B1048CF
:106F30000078012816D10F48D0F800904F462E4611
:106F400008E0C7F30B0738467F1C0B49085C04F8C0
:106F5000010B761E002EF4D109EB050005490860EF
:106F6000FFF7FAF8E81C40F40030BDE8F0870000B5
:106F70002500002030000020300100202DE9F047DE
:106F800080460C46002798F8009009F0010028B1CF
:106F9000FEF768FC064604F8016B7F1C09F002004E
:106FA00070B1FEF731FC054604F8015B280A04F8CD
:106FB000010B280C04F8010B280E04F8010B3F1DEF
:106FC00047F48030BDE8F0872DE9F04106460D46D4
:106FD000377815480078012803D1002000F0FCFA2A
:106FE00000E000BF00BF17B1012F07D101E001246D
:106FF00006E0012000F0F0FA044601E0002400BFA2
:1070000000BF14B10848077002E00020064908706C
:107010000020064908700CB1287001E0FF2028709C
:107020004FF00110BDE8F08126000020270000206D
:1070300070B50446FEF716FC0646FEF7E5FB05466E
:1070400004F8016B04F8015B280A04F8010B280C12
:1070500004F8010B280E2070052070BD10B5044601
:107060000A460E48007800F0010060B9237813B199
:10707000012B05D100E000BF09480370012101E0A8
:10708000002100BF00E0002111B10020107001E0DC
:10709000FF2010704FF0011010BD000027000020ED
:1070A0002500002010B500F001F810BD08B5002043
:1070B00000903748006840F480303549086000BFD0
:1070C0003348006800F4003018B90098B0F5A06F9C
:1070D000F6D12F48006800F4003040B92C48006811
:1070E00020F480302A4908600120009001E000204F
:1070F00000902848006840F01000264908600846C3
:10710000006820F0030008600846006840F00200B4
:1071100008601F4840681E4948600846406848604B
:107120000846406840F4806048600846406820F4A3
:107130007C104860009828B10846406840F4D000B0
:10714000486005E01248406840F4E8101049486083
:107150000F48006840F080700D49086000BF0C487F
:10716000006800F000700028F9D00948406820F05D
:107170000300074948600846406840F00200486044
:1071800000BF0348406800F00C000828F9D108BD92
:1071900000100240002002400449054A1278895C30
:1071A0000143024A024B1B78D1547047280000204B
:1071B0002A000020042808D14FF0E021096941F09D
:1071C00004014FF0E022116107E04FF0E02109696E
:1071D00021F004014FF0E0221161704700B524480E
:1071E0000078401E224908702248007800F0040010
:1071F00050B10846007800F0010010B1FEF796FC8F
:1072000035E0FEF78BFC32E01A48007800F002000F
:1072100080B11848007820F0020016490870144820
:10722000007800F0010010B1FEF780FC1FE0FEF7CF
:1072300075FC1CE00F48007800F0010050B10C48CC
:10724000007800F0010010B1FEF7A0FC0FE0FEF79F
:1072500095FC0CE00748007848B90548007800F034
:10726000040010B1FEF762FC01E0FEF757FC00BD20
:10727000000000200100002070B51749481EB0F141
:10728000807F00D31BE0481E4FF0E0225061501772
:107290000F22002804DB13071C0E104B1C5406E0C1
:1072A00013071D0E0E4B00F00F04241F1D5500BFC9
:1072B00000204FF0E02290610720106100BF6FF0C6
:1072C0000400FFF777FF4FF0E020006940F0010075
:1072D0004FF0E021086170BDA0BB0D0000E400E0AC
:1072E00018ED00E010B5002100200022214B5B6862
:1072F00003F00C0121B1042906D0082928D107E0A8
:107300001D4B1E4C236027E01B4B1C4C236023E0CD
:10731000184B5B6803F47010164B5B6803F4803203
:10732000022303EB904022B9154B4343134C2360D7
:107330000DE0104B5B6803F4003323B1104B434363
:107340000E4C236003E00C4B43430C4C236003E0E2
:10735000094B0A4C236000BF00BF064B5B68C3F3B8
:107360000313084CE15C054B1B68CB40034C2360C6
:1073700010BD00000010024000127A000C00002036
:1073800000093D001000002010B51348006840F0CF
:1073900001001149086008464068104908400E493C
:1073A0004860084600680E4908400B4908600846D6
:1073B000006820F4802008600846406820F4FE0041
:1073C00048604FF41F008860FFF76CFE4FF00060CC
:1073D0000449086010BD0000001002400000FFF8E2
:1073E000FFFFF6FE08ED00E070B505461248007894
:1073F00040F002001049087005F0020058B10F4833
:10740000006800F580600D4908600D484FF4806108
:1074100082690C48904705F0010060B14FF480612B
:10742000094801F049FC0446002C04DD04482146CB
:1074300042690548904770BD010000206C000020A3
:10744000FCAB0008EC320020EC360020F8B5044616
:107450002848844200D904462748007800F00100FB
:10746000C0B126480021826A162090472349C86A85
:1074700080470090C0F3400060B12049486A8047CF
:107480001F49096808441E4908601C480021826A97
:107490001920904719482146826A012090470546E5
:1074A0001DB901201749087003E000201549087034
:1074B000F8BD1148007800F00100C8B10E4800780E
:1074C00000F0020078B90E480068C0F30B0606F021
:1074D0003F00C0F140070C4807600C498819074974
:1074E0008A693946904705480121826A16209047EB
:1074F0002046DDE740420F0027000020C4AB000813
:107500002C00002024000020380000203001002042
:1075100070B505460C46044804600448214682695B
:107520002846904770BD000038000020C4AB00081A
:1075300038B50546CDB11A48007808B9002038BDE5
:1075400001201849086018480121826917489047AE
:1075500004460CB10020F2E713480121826A16208C
:1075600090470446D4B10020E9E70F480021826A21
:10757000162090470C49C86A80470090C0F340002D
:1075800060B10949486A80470949096808440849BF
:10759000086005480021826A192090470120CEE743
:1075A0002400002038000020C4AB00083001002077
:1075B0002C00002038B50749C86A80470090C0F306
:1075C000400020B10349486A8047044600E0002497
:1075D000204638BDC4AB000870B5054600201449EC
:1075E000087095B1134881681348884704460CB168
:1075F000002070BD0F480169022088470446ACB1E5
:107600000C49C86880470020F3E70A480021826AD5
:107610001620904707480021826A192090470548A4
:107620000169002088470349C86880470120E0E7D6
:1076300024000020C4AB00085D78000870B5044643
:107640000D46034A2946204600F04EF970BD000061
:1076500034AB000808B5024800F057FD009008BDA3
:1076600034AB000808B5024800F052FD009008BD98
:1076700034AB000810B5024800F092FD10BD0000C8
:1076800034AB000808B5024800F097FD009008BD33
:1076900034AB000810B5024800F0F9FD10BD000041
:1076A00034AB000810B5024800F0FEFD10BD00002C
:1076B00034AB000810B504460249204600F02CFF08
:1076C00010BD000034AB000810B504460249204646
:1076D00000F0B8FF10BD000034AB000870B50446E0
:1076E0000D46034A2946204601F0F1F870BD00001E
:1076F00034AB000870B504460D46034A29462046BF
:1077000001F076F970BD000034AB000810B50446F6
:107710000249204601F0E7F910BD000034AB000833
:1077200070B504460D461646034B324629462046A0
:1077300001F04CFA70BD000034AB000810B50248EF
:1077400001F079FA10BD000034AB000870B50446B2
:107750000D46034A2946204600F0C6F870BD0000D9
:107760008CAB000808B5024800F0CFFC009008BDC3
:107770008CAB000808B5024800F0CAFC009008BDB8
:107780008CAB000810B5024800F00AFD10BD0000E7
:107790008CAB000808B5024800F00FFD009008BD52
:1077A0008CAB000810B5024800F071FD10BD000060
:1077B0008CAB000810B5024800F076FD10BD00004B
:1077C0008CAB000810B504460249204600F0A4FE28
:1077D00010BD00008CAB000810B5044602492046DD
:1077E00000F030FF10BD00008CAB000870B50446FF
:1077F0000D46034A2946204601F069F870BD000095
:107800008CAB000870B504460D46034A2946204655
:1078100001F0EEF870BD00008CAB000810B5044616
:107820000249204601F05FF910BD00008CAB000852
:1078300070B504460D461646034B3246294620468F
:1078400001F0C4F970BD00008CAB000810B502480F
:1078500001F0F1F910BD00008CAB00082DE9F041FA
:10786000054605F0020018B3184807681848046870
:107870001848006804441648046004F03F00C0F152
:107880004006A4EB0708C6F5805040450AD3C4F370
:107890000B04104806601049081910498A693146DE
:1078A000904702E003200E49087001200D4908703E
:1078B00005F0200010B18020FFF76EFC05F4607029
:1078C00010B14020FFF768FCBDE8F08130000020D7
:1078D0002C0000203800002030010020C4AB00083C
:1078E00027000020340000202DE9FE4F07460D46FA
:1078F0001446206BC07A00F0020018B94FF0FF3038
:10790000BDE8FE8F0020009080468346F8B215380F
:1079100006287CD2DFE800F0A3DC032C4E6CA5B176
:10792000606B90F8210010B16FF00100E8E70120D2
:10793000616B81F82100616B81F8200060688089AB
:1079400040F081006168888110E0606B90F8200051
:1079500060B16068808920F08000616888810020C3
:10796000616B81F82000616B81F821000020C7E77E
:107970006068808920F0C00061688881A06A88B151
:10798000606B90F8210068B16068808A20F0800008
:1079900061688882A16A0868016821F001010160BC
:1079A00000BF00BF0020616B81F82000616B81F88F
:1079B0002100A5E76068808920F020006168888147
:1079C000E06A80B1206B407968B16068808A20F0FD
:1079D000400061688882E16A0868016821F001015D
:1079E000016000BF00BF0021206B4171002087E7CC
:1079F0006068808920F0E00061688881A06A98B1A1
:107A0000606B90F8210078B16068808A00E0C2E085
:107A100020F0800061688882A16A0868016821F00E
:107A20000101016000BF00BFE06A80B1206B4079B6
:107A300068B16068808A20F0400061688882E16AED
:107A40000868016821F00101016000BF00BF00214A
:107A5000206B41710020616B81F8210050E7E068E4
:107A600010B94FF0FF304BE7BDB1206BC06806285E
:107A700006D0E2689188032310680222FDF7E9FD31
:107A8000206BC07A40F00800216BC8726068808962
:107A900040F008006168888118E06068808920F003
:107AA000080061688881206BC07A20F00800216B93
:107AB000C872206BC068062808D0E06830B1E26860
:107AC0009188002310681A46FDF7C3FD002017E7D0
:107AD000206910B94FF0FF3012E7E5B3206BC068A2
:107AE00006280AD0206BC068042806D02269918835
:107AF000002310680122FDF7ACFD206BC07A40F036
:107B00001000216BC8726068808A40F001006168D3
:107B100088826068008A40F040006168088260687E
:107B2000808940F0100061688881206B407918B12D
:107B3000E06A08B1012000E0002028B9606880896F
:107B400040F02000616888816068808940F004000E
:107B5000616888811DE0FFE76068808920F004008B
:107B600061688881206BC07A20F01000216BC87298
:107B7000206BC06806280CD0206BC068042808D091
:107B8000206930B122699188002310681A46FDF7F8
:107B900060FD0020B4E600BF00BF206B407918B93B
:107BA000606B90F8210010B16FF00100A8E66068EA
:107BB000808900F0080038B16068008800F040005B
:107BC00010B96FF001009BE6F8B2152872D2DFE819
:107BD00000F0C90B0E1D20252AC9C9C9C9C9C9C9C8
:107BE000C9C9373B697EB80001200290BDE020780A
:107BF000C0F3400020B148F4006848F4807802E007
:107C00006FF006007CE602200290AEE06FF0060006
:107C100076E64BF0080B04200290A6E04BF0020B36
:107C200005200290A1E02078C0F3401010B14BF085
:107C3000200B02E06FF0060062E60620029094E05E
:107C4000616B4D8300205BE6206BC068052824D063
:107C500015B36068808A40F0040061688882D4F8B7
:107C600008A0FE48B0FBFAFA012605E00AFB06F080
:107C7000A84200D902E0761CFF2EF7D900BFB6F566
:107C8000807F02D14FF0FF303AE66068008B20F031
:107C9000FF0030436168088302E04FF0FF302FE6B9
:107CA00000202DE6206BC06806280BD1FF2D02D9DD
:107CB000C01F25E656E06068008BC0B228436168AB
:107CC000088302E04FF0FF301AE6002018E6206B30
:107CD000C068062830D1D4F808A0E048B0FBFAFA12
:107CE000012619E00AFB06F040006421484305EB39
:107CF000051101EB4101B0EB410F0CD20AFB06F07C
:107D000040006421484305EB051101EB4511B0EB40
:107D1000410F00D902E0761C402EE3D300BF402E75
:107D200002D14FF0FF30EBE56068008B20F0FF00E0
:107D300030436168088302E04FF0FF30E0E5002047
:107D4000DEE5206BC068062807D14DB16068808AE7
:107D500040F010006168888202E04FF0FF30CFE50C
:107D60000020CDE56FF00300CAE500BF07F4E06036
:107D700060B1B0F5807F13D0B0F5E06F1DD107F48E
:107D8000405010B96FF00800BAE519E007F4405010
:107D900028B148F02008009840F4805000900FE08F
:107DA00007F4405010B16FF00800A9E548F0200832
:107DB000009840F48050009002E06FF008009FE5CA
:107DC00000BF07F4405030B1B0F5805F04D0B0F58B
:107DD000005F0BD105E00CE0009840F4806000905B
:107DE00007E0009840F4C060009002E06FF00900E6
:107DF00086E500BF07F4404048B1B0F5804F07D09A
:107E0000B0F5004F07D0B0F5404F0AD106E00BE0C7
:107E100048F4005808E048F4405805E048F4805819
:107E200002E06FF00A006BE500BF07F4403048B194
:107E3000B0F5803F09D0B0F5003F13D0B0F5403F1A
:107E40002ED11CE04FF000092DE02078C0F3C010C7
:107E500020B14FF480394BF4807B02E06FF00B00CF
:107E60004EE520E02088C0F3002020B14FF4003917
:107E70004BF4C06B02E06FF00B0041E513E020789B
:107E8000C0F3C01040B12088C0F3002020B14FF4EF
:107E900040394BF4E06B02E06FF00B0030E502E09C
:107EA0006FF00B002CE500BF029802281DD107F4EB
:107EB000802018B1B0F5802F04D100E005E048F42F
:107EC000806802E06FF00C001AE500BF07F40020A4
:107ED00018B1B0F5002F04D100E005E048F40078B7
:107EE00002E06FF00D000BE500BFA06800EBC001E1
:107EF00001EB0010A900B0FBF1F06421B0FBF1F13F
:107F0000A06800EBC00202EB0010AA00B0FBF2F088
:107F1000A26802EBC20303EB0212AB00B2FBF3F266
:107F20006423B2FBF3F202EBC20303EB0212A0EBF9
:107F30008200322202EB00106422B0FBF2FA61F3FD
:107F40001F1AA06800011FFA8AF1B0FBF1F00009C6
:107F5000019064210198484305EB051101EB4101B3
:107F6000B0EB410F09D264210198484305EB05119C
:107F700001EB4511B0EB410F02D86FF00700BFE4F1
:107F80006068808920F40050616888816168A1F888
:107F900008A00298216BC860206BC0F81090206B7D
:107FA000C068062809D1E06830B1E26891880323EF
:107FB00010680222FDF74DFB18E0206BC07A00F03C
:107FC000080048B1E06880B1E26891880323106836
:107FD0000222FDF73EFB08E0E06830B1E2689188DC
:107FE000002310681A46FDF734FB00BF00BF206B6A
:107FF000C068042802D006280BD100E000BF206929
:1080000030B122699188002310681A46FDF721FBE0
:1080100018E0206BC07A00F0100048B1206980B1F0
:1080200022699188002310680122FDF712FB08E005
:10803000206930B122699188002310681A46FDF743
:1080400008FB00BF00BF6069D0B1206BC068022888
:1080500002D006280BD100BF626901E000CA9A3B3A
:108060009188032310680222FDF7F3FA07E06269A2
:108070009188002310681A46FDF7EBFA00BF00BF95
:10808000A069A0B1B9F5803F02D0B9F5403F07D152
:10809000A2699188032310680222FDF7DAFA06E04C
:1080A000A2699188002310681A46FDF7D2FAE069A8
:1080B000A0B1B9F5003F02D0B9F5403F07D1E26960
:1080C0009188002310680122FDF7C3FA06E0E269F7
:1080D0009188002310680122FDF7BBFA00986168BF
:1080E00088816168A1F810806168A1F814B06068A7
:1080F000808940F4005061688881206BC07A40F02C
:108100000400216BC872002010E401460868704723
:108110000CB50146019820F001000190086B006940
:1081200020B1086B0069B0F5803F0ED1C86960B11D
:10813000CB6998881A689368C34003F0010323B998
:10814000019820F00100401C0190019820F00200ED
:108150000190019820F008000190019820F004009F
:1081600001900198009A60F3000200920198420881
:10817000009862F34100009001988208009862F331
:10818000820000900198C208009862F3C30000903A
:1081900001980209009862F31F10009000980CBD2E
:1081A0000146C86A30B1CA6A10684268486B006804
:1081B000801A7047486B0069FBE70CB50146486BB5
:1081C00090F8210028B1019820F00100401C019096
:1081D00008E048680088012222EA9012019862F3C0
:1081E00000000190086B4279019862F34100019010
:1081F000086B8279019862F382000190086BC27962
:10820000019862F3C3000190086B027A019862F34F
:1082100004100190086B427A019862F345100190B6
:10822000086B827A019862F3861001900198009A97
:1082300060F30002009201984208009862F3410046
:10824000009001988208009862F3820000900198E3
:10825000C208009862F3C3000090019802090098D8
:1082600062F30410009001984209009862F34510EF
:10827000009001988209009862F38610009001989E
:10828000C209009862F3DF10009000980CBD01460F
:10829000886A30B18A6A10684268486B4068801A00
:1082A0007047486B4069FBE72DE9F0410446606880
:1082B000068800270025A84606F020006168898905
:1082C0000840002860D0206B407938B96068808809
:1082D0000121206BC17145F0200555E0206BC0687D
:1082E000022806D1606BC069012802D160688088CD
:1082F00002E06068B0F80480606B8268501C636BB9
:10830000986082F800806068878907F4806050B9BF
:1083100007F4805038B14FEA2821606B8268501C06
:10832000636B98601170606B0069401C616B086141
:10833000606B0069616B0968884225D1606880893B
:1083400020F01000616888810021206B4171206B52
:10835000C068022816D1606BC7690020616BC861D4
:10836000012F04D0022F05D0032F09D105E045F0DD
:10837000010506E045F0020503E045F0040500E0D4
:1083800000BF01E045F0020506F010006168898930
:10839000084018B16068808845F0400506F080000C
:1083A000616889890840002863D0606B90F82000DC
:1083B00030B16068808940F001006168888158E0D0
:1083C000606B4068616B4969884222D0206BC0684D
:1083D000022807D1606BC069022803D1606BB0F836
:1083E0001A8016E0606BC168481C626BD06091F81F
:1083F00000806068878907F4806050B907F4805076
:1084000038B1606BC168481C626BD060087848EA7C
:108410000028606B4069401C616B48616068A0F88F
:108420000480606B4068616B4969884221D1606853
:10843000808920F08000616888816068808940F0D0
:108440004000616888810020616B81F82100206B09
:10845000C06802280BD1606BC069012809D1206B6C
:10846000C07A00F0100020B945F0010501E045F0A8
:10847000010506F0400061688989084038B16068EC
:10848000808920F040006168888145F0080506F089
:10849000080030B1606880880121206BC17145F00F
:1084A000200506F0020030B1606880880121206B51
:1084B000417245F4807506F0010030B16068808833
:1084C0000121206B817245F4007506F4807050B173
:1084D0006068008820F48070616808800121206B4A
:1084E000017245F0800506F4007038B160680088BC
:1084F00020F400706168088045F4806525B1206B28
:10850000006808B1012000E0002018B1206B01686C
:1085100028468847BDE8F08170B505460C46206BBB
:10852000C07A00F0010008B1002070BD206B05602A
:108530000020216B08710021206B4171206B81713B
:10854000206BC171206B0172206B4172206B8172B4
:108550000020216BC860616B81F821002421606BD1
:10856000FBF7F9FD608CFCF74FFFE06820B1E16894
:1085700008680121FDF7AAF8206920B1216908687F
:108580000121FDF7A3F8606920B161690868012144
:10859000FDF79CF8A06920B1A16908680121FDF7E9
:1085A00095F8E06920B1E16908680121FDF78EF8CE
:1085B0000120216BC8720020B7E700001D498842E6
:1085C00005D11D49C96841F480411B4AD1601B494E
:1085D000884205D11849096941F40031164A1161F0
:1085E0001749884205D11449096941F48021124A8A
:1085F000116100BF00BF00BF00BF0E49884205D116
:108600000D49C96821F480410B4AD1600B49884269
:1086100005D10949096921F40031074A1161084966
:10862000884205D10449096921F48021024A116177
:108630007047000000380140001002400044004034
:108640000048004070B505460C4625B1012D69D0A3
:10865000022D72D169E06068FFF7B0FF94F9240041
:10866000002817DB00F01F0201219140714A4309E5
:1086700042F8231000BF00BF00BFBFF34F8F00BF01
:1086800000BF00BF00BF00BF00BFBFF36F8F00BFC0
:1086900000BF00BF00BFE06A20B1E26A51791079E3
:1086A000FCF772FDA06A20B1A26A51791079FCF73B
:1086B0006BFD61496068884205D16048806920F49B
:1086C00080405E4988615E496068884205D15B48A8
:1086D000C06920F400305949C8615A49606888422D
:1086E00005D15648C06920F480205449C861002053
:1086F000216B08710021206B4171206B8171206B0F
:10870000C171206B0172206B4172206B817200205D
:10871000616B81F82100206BC07A20F00200216B90
:10872000C87283E06FF0030070BD206BC07A00F068
:10873000010018B94FF0FF30F6E774E0206BC07A03
:1087400000F0020008B10020EEE70020216B087164
:108750000021206B4171206B8171206BC171206BF6
:108760000172206B4172206B81720020616B81F875
:108770002100616B4883616BC861616B81F82000E7
:10878000216BC860216B08610320216BC8722A49E4
:108790006068884205D12948806940F480402749B3
:1087A000886127496068884205D12448C06940F43F
:1087B00000302249C86123496068884205D11F48BA
:1087C000C06940F480201D49C86194F92400002844
:1087D00007DB00F01F02012191401B4A430942F8C8
:1087E000231000BF94F92400002809DB00F01F02C9
:1087F000012191404209920002F1E022C2F80011E9
:1088000000BFE06A20B1E26A51791079FCF73CFCC4
:10881000A06A20B1A26A51791079FCF735FC606832
:10882000FFF7CCFE02E06FF003007DE700BF002001
:108830007AE7000080E100E00038014000100240CB
:10884000004400400048004080E200E070B504466B
:10885000E16A0868416819B1606B006800B170BDD9
:108860006068808920F01000616888810025206B95
:10887000C068022813D1606BC6690020616BC861B3
:10888000012E04D0022E04D0032E06D103E00125D0
:1088900004E0022502E0042500E000BF00E002251C
:1088A000606B0068616B08610021206B417160683A
:1088B000808940F0200061688881206B006820B1C9
:1088C0001DB1206B01682846884700BFC7E72DE926
:1088D000F04706460F46144606B11FB96FF0040074
:1088E000BDE8F087206BC07A00F0040010B94FF0AB
:1088F000FF30F5E7206B4079012801D1C01EEFE77A
:108900006068808920F0200061688881606B076062
:108910000021206B0172206B4172206BC171206BB2
:108920008172606B86600020616B08610121206BA1
:1089300041718025206BC068022804D1606BC0693A
:10894000012800D10025E06A88B3E06A80794FF4FD
:10895000405101EA0030801C05436068B0F80C907B
:1089600009F4805028B109F4806010B945F4A0657D
:1089700000E000BFE26A10686268111D0560816056
:10898000C660476000BFE16A0868016841F0010104
:10899000016000BF6068808A40F0400061688882A2
:1089A0006068808940F010006168888106E0FFE718
:1089B0006068808940F0300061688881206BC06801
:1089C000022813D1606BC06980B90220616BC86155
:1089D000616B01F11A002246394600F009F8804621
:1089E00008F1020010B96FF0010079E7002077E785
:1089F0002DE9F04706460F46144606B11FB96FF041
:108A00000400BDE8F087206BC07A00F0040010B9C4
:108A10004FF0FF30F5E7606B90F8210010B16FF078
:108A20000100EEE70120616B81F82100606BC660F8
:108A3000606B47600020616B48618025206BC068D7
:108A4000022818D1606BC06980B90120616BC861D0
:108A5000616B01F1180022463946FFF738FF804666
:108A600008F1020038B96FF00100CAE7606BC06915
:108A7000022800D10025A06A68B3A06A80794FF46B
:108A8000405101EA003040F01000801C054360684E
:108A9000B0F80C9009F4805028B109F4806010B946
:108AA00045F4A06500E000BFA26A10686268111D6D
:108AB00005608160C660476000BFA16A0868016800
:108AC00041F00101016000BF6068808A40F08000D1
:108AD0006168888205E06068808940F08000616894
:108AE000888100208DE770B5044634B1012C22D076
:108AF000022C3FD0032C3CD13DE0086B006920B133
:108B0000086B0069B0F5003F11D1886990B18D699B
:108B1000AA88012328681BB101259540056104E05E
:108B200002F110050126AE40066100BF02E04FF0E1
:108B3000FF3070BD22E0086B006920B1086B00694E
:108B4000B0F5003F11D1886990B18D69AA880023E2
:108B500028681BB101259540056104E002F110056C
:108B60000126AE40066100BF02E04FF0FF30E0E7B3
:108B700004E000BF00BF4FF0FF30DAE700BF002085
:108B8000D7E710B50446A16A0868416819B1606B5F
:108B9000406800B110BD606B4068616B48610020A7
:108BA000616B81F821006068808940F04000616855
:108BB0008881206BC068022806D0206B006818B13D
:108BC000206B01680120884700BFE3E72DE9F041F1
:108BD00080460E4617461C46B8F1000F01D006B17C
:108BE0001FB96FF00400BDE8F081206BC07A00F07F
:108BF000040010B94FF0FF30F5E7206BC068022881
:108C000014D10320616BC861224639463046FFF714
:108C10005EFE05460DB12846E5E722463946404648
:108C2000FFF7E6FE054625B12846DCE74FF0FF30AA
:108C3000D9E70020D7E710B50446E06830B1E26814
:108C40009188002310681A46FCF703FD206930B1B3
:108C500022699188002310681A46FCF7FAFC6069C3
:108C600030B162699188002310681A46FCF7F1FC64
:108C7000A06930B1A2699188002310681A46FCF7F8
:108C8000E8FCE06930B1E2699188002310681A4677
:108C9000FCF7DFFC208CFCF7B7FB0020216BC872CF
:108CA00010BD000008B502480068009008BD000033
:108CB00018AB00080020704770B50B4D0C460346FA
:108CC000D5E90C0188420BD9401A844200DD0446E4
:108CD00022461846FBF726FA686B2044686300E0DA
:108CE0000024204670BD0000A400002038B50546D1
:108CF0000A49C86A8047009000F0010060B94FF44B
:108D000080610748FFF7D8FF0446002C04DD0348C4
:108D1000214642690248904738BD0000FCAB00087C
:108D2000EC3600202DE9F041194C0D460746D4E9F8
:108D30000401401A17490A88101A002802DC002092
:108D4000BDE8F081854200DD0546D4E90602002633
:108D5000904210D3104A0988431911448B420AD318
:108D60000E1A904632463946FBF7DCF93744AD1B04
:108D70004046C4F8188035B12A463946FBF7D2F987
:108D8000A0692844A0612169A81901442161D7E79D
:108D9000A400002054AC00086212002010B5054C5D
:108DA0006068002805D10120606000F005F800200F
:108DB000606010BDA40000202DE9F047224CA0689F
:108DC00000283BD0D4E90401421AE0684FF00006C5
:108DD000104335D01D481E4FDFF878800088DFF83B
:108DE00078903D182046C1696AB1A069814203D3D9
:108DF0008818A84200D36A1A99F8003038F813008E
:108E0000904200DA02461548E660007840F08000A3
:108E100001F0EAFAE1690144E16162698D420244CC
:108E2000626100D1E761216991420BD199F800207C
:108E300038F81210814205D10120E060BDE8F087CA
:108E4000A660FBE7E660F9E7A400002054AC000848
:108E5000621200205CAC00087F00002051AC0008CA
:108E600010B50B4C206A18B1A06A401CA06210BD5E
:108E700001202062606200F00DF800206062206234
:108E8000D4E90C018842F2D0401AFFF72FFF10BD41
:108E9000A400002010B5134C144A1348216B12880B
:108EA000144B081A101A124A1B7832F813209042F9
:108EB0000EDB1148007800F0F1FE216B08442063BE
:108EC000A06A00280CD0616A002909D1401E06E082
:108ED0000120E062606A002802D0A06A401CA06203
:108EE00010BD0000A4000020A212002056AC000813
:108EF0005CAC00087F00002052AC000810B50446AE
:108F0000400702D52046FFF7ABFF200704D52046D7
:108F1000BDE81040FFF742BF10BD7047002070470A
:108F20000020704710B50B4800F01CF8002810D046
:108F3000084A0948116801700B0A43700B0C8370D2
:108F4000090EC17011790171517941719179817165
:108F5000012010BDDC000020A011002010B500F0A1
:108F60000DF810BD0146044802680A6082888A80B4
:108F700080798871012070477400002010B5054881
:108F80008168054888470348016902208847012015
:108F900010BD0000FCAB0008E973000810B50648DE
:108FA0000021826A1820904703480021826A192014
:108FB0009047012010BD0000FCAB000801460120D5
:108FC000704700002DE9F041044600260027B04616
:108FD0003D480021826A182090473B480021826A60
:108FE0001920904738480021826A1520904736485A
:108FF0000021826A16209047207920B1012805D0EF
:10900000022809D105E04FF0000805E04FF40048C0
:1090100002E04FF4804800BF00BF607920B1012812
:1090200004D0022808D104E0002708E04FF40057DC
:1090300005E04FF4805702E00020BDE8F08100BF5A
:10904000A079052806D0062807D0072808D00828C8
:109050000BD108E04FF4A06609E04FF4C06606E0CB
:109060004FF4E06603E0002601E00020E5E700BFE2
:10907000216846F001033B4343EA0800124B9A6A19
:10908000904705460DB10020D7E7104821680160E0
:10909000A1888180A179817100200D4908600D4966
:1090A000086009480121826A15209047064801217D
:1090B000826A1620904704484FF48061826906480E
:1090C00090470120B9E70000FCAB000874000020C5
:1090D0006C00002070000020EC32002010B5104819
:1090E0000024104944608460C4600461C0E9054103
:1090F000C0E9071444620C498462C0E90B41416332
:109100000480FFF74BFF06484FF4165138300160DA
:109110000471447108218171FFF754FF10BD0000F4
:10912000A400002062120020A212002010B5FFF758
:10913000D5FF10BD70B5174C00250126206A50B927
:10914000D4E90C10814206D11348814203D0206338
:10915000E56225626063A06A70B1206A60B9E06A66
:1091600050B92662FFF796FE2562D4E90C018842C9
:1091700002D0401AFFF7BAFDD4E90101084308D133
:10918000D4E90401884204D06660A660FFF714FEAB
:10919000656070BDA4000020A2120020002070476E
:1091A0000020704700207047024910B50880FFF783
:1091B00005FF10BDA4000020084810B5C178026862
:1091C00061F31F6206490A6002790A7142794A71A5
:1091D000807988710846FFF7F5FE10BDA0110020C8
:1091E000DC00002010B504462046FCF73DF843F2B1
:1091F00030012046FCF758F810BD000010B50246BB
:10920000937803F00F019088937803F0800353B1B3
:10921000294B1B88294C246804EB01142360431C50
:1092200023F0010020E0244B1B88244C246804EB2D
:109230000114A3603E280ED900F11F0323F01F0084
:109240000123C3EB401343F400431C4C246804EB9C
:109250000114E36008E0431C23F001004302174CB3
:10926000246804EB0114E360134B1B880344124C85
:109270002380D37803F0030333B1012B07D0022BF3
:1092800008D0032B0FD10BE04FF400700BE04FF42C
:10929000806008E0002000230BB140F4807002E001
:1092A0004FF4C06000BF00BF0843054C04EB8103CE
:1092B000C3F8000C10BD0000500000204C0000203E
:1092C0000050004030B94021034A118011460988FE
:1092D00080311180704700005000002000F086BAF5
:1092E00070B101210A4A116000211160121D116044
:1092F0004FF4E051121F1160D113064A116006E0CD
:109300000321034A1160D113024A121D11607047F4
:10931000405C00401008014010B50B4C0B48A2887F
:1093200001788A4200D9CAB21AB90749002018390F
:1093300008718020216801F057F8216801442160FC
:10934000A188081AA08010BD9400002039AC000844
:1093500010B5064C0020216800F0A0FC21680144F3
:109360002160A188081AA08010BD00009400002090
:10937000704710B5044600212046FBF795FF10BD4D
:1093800010B5044643F220012046FBF78DFF10BDC7
:109390002DE9F047DFF844820646A8F1080580076A
:1093A0004FF0000AA5F1180424D500F0F1FF98F859
:1093B00000004746C009FFF7DBFFF888A88039782E
:1093C000C1F3411010B1012877D17DE098F8012058
:1093D000834FDFF810920C2A6FD2DFE802F0060C00
:1093E000951C952B3B953F45526100F063FD33E0A2
:1093F000FFF792FF96E0002000F09AFD00285CD075
:1094000000F0CCFF386820B16169002921D0082024
:1094100050E0484653E0012000F08AFD002873D058
:1094200000F0BCFF38680028F3D06169002979D0CA
:1094300004203FE011F01F0F66D198F802000121CF
:1094400040F08000207000F07F0000F08FFF00F0FF
:10945000A5FF67E000F054FC78B3C9E711F01F0FD7
:1094600052D15E481F3819E000F0B8FD28B300F073
:1094700095FF386818B1616929B301201AE05A488C
:109480001DE001F01F0101293ED16178A9B198F8D2
:109490000400A178884237D2544908442860A7E7DD
:1094A00000F064FE48B100F079FF386830B16169BE
:1094B00049B1022001F0AAFA34E025E04C480168E5
:1094C00009B1084680472DE011F01F0004D00128A3
:1094D00005D0022818D111E000F02AF913E000F0BD
:1094E0002DF9F8B900F080F9E0B900F0CFF8C8B96B
:1094F00000F0CEF8B0B900F01FF904E000F0C4F8B5
:1095000080B900F017F968B998F80010090604D47A
:10951000B8F8060008B1002000E0802000F030FF1D
:10952000A5F804A0700735D598F800004746000656
:109530002ED4A88858B3FFF70BFFA88838BB38781B
:10954000C0F34111F1B101291CD110F01F0004D06A
:10955000012805D0022815D10EE000F077F810E0C0
:1095600000F07AF898B900F047F880B900F046F8B2
:1095700068B900F06FF804E000F03CF838B900F08A
:1095800067F820B9802000F0FBFEA5F804A001E0F8
:1095900000F00AFF300713D598F80000000606D542
:1095A000A888217908430BD0FFF7B6FE08E02078A1
:1095B000010605D500F07F002070002100F0D6FEE6
:1095C000700602D50020FFF70DFE300604D5BDE879
:1095D000F0478020FFF706BEBDE8F0879C00002022
:1095E000C8AC0008C4AC0008BCAC00083E000020B9
:1095F000C0AC0008002070470020704710B510482C
:10960000104A01791278914203D00F4A12789142A0
:1096100014D1417821B1022905D020290ED10AE0C8
:10962000FFF7BEFD02E04088FFF7BCFD30B100F05F
:10963000B5FE012010BDFFF7BFFDF7E7002010BD0C
:109640009C0000204EAC00084FAC00080020704782
:10965000002070470020704710B50948094A017979
:109660001278914209D14078092806D100F0D8FA41
:1096700018B100F093FE012010BD002010BD0000C5
:109680009C0000203AAC0008002070470020704782
:1096900070B52249224A08791278904203D0214AB3
:1096A0001278904238D11D4849781F4C1F4D408890
:1096B00004291FD007DC79B101290FD002290BD072
:1096C000032929D111E0202906D021291AD02229E5
:1096D0001BD0232920D11BE02C6011E0FFF720FCD8
:1096E00005E02C60FFF718FE0AE0FFF717FC0028E2
:1096F000F7D111E0FFF7DEFA0CE000BF00F04EFEFC
:10970000012070BDFFF70EFCF1E7FFF74DFD01E012
:10971000FFF744FD0028F1D1002070BD9C0000201F
:109720004EAC00084FAC0008A011002094000020AF
:109730000020704700207047002070472DE9F0415D
:10974000224C23492079097888423DD16078214D07
:10975000214E224F0C2837D2DFE800F03606212DAB
:10976000363636363616243200F070F960B3E078BB
:10977000012802D0032803D003E01948286000E044
:109780002E60FFF7C9FD13E0E078022802D003281D
:1097900003D00DE0134828600AE02E6008E000F0D6
:1097A0003DF90AE000F014FA0CE000BF00F0F6FD0D
:1097B0000120BDE8F08100F03FF928B12F60E0E71B
:1097C00000F024FA0028F1D10020F2E79C000020EC
:1097D0003AAC00089400002048000020A0110020AE
:1097E000E1110020221200200020704708480021CB
:1097F0004170C160016141618161C16141808180CD
:10980000016241628162C180C162018170470000D2
:10981000E40000202DE9F05FDFF84081DFF840A18F
:10982000DFF840B10127504C08F101090025A5617E
:10983000606910B1A761BDE8F09F6761A088618889
:1098400088421AD3206AC0B9E561A580012398F83F
:10985000001008F10102184600F05CFF0004000C43
:1098600060800CD04149C4F81C800978012902D8D5
:10987000C4F81C903BE0401C60806088B8BBE06886
:10988000A8BB216999B339484246007801280FD80E
:109890001570A5800223521C0021012000F03AFF20
:1098A0000004000C608001D0C4F81C9025611EE00B
:1098B0001678202E00D3002607FA06F0084240D082
:1098C000701CC1B21170A580022308F101020120B1
:1098D00000F020FF0104090C618003D0491CC4F88A
:1098E0001C806180216907FA06F08143216160884C
:1098F000216A01432AD0A188401A9BF8001086B241
:109900003AF81100B04200D2064667621848324663
:10991000E169007840F0800000F066FDE0691549DB
:109920003044E061A088304480B2A0800988884239
:109930000AD29BF800103AF81100B04204D1276215
:1099400005E0761CF6B2B4E7256200E06562656169
:10995000A06900287FF46BAF6DE70000E0110020E4
:1099600042AC00087F000020E400002046AC000864
:109970003BAC000848AC0008F8B5194C194D00265E
:10998000E08800B9A5621848A16A007800F086F95D
:109990000004A16A000C0144A162E18801448BB279
:1099A000E3800AD0114909888B4206D2114A104936
:1099B000127831F81210814210D90F480178012035
:1099C0000129009003D80021064A022003E02978EB
:1099D0006A1C02205B1E00F0BBFFE680F8BD0000A1
:1099E000E4000020211200203CAC00084AAC000832
:1099F00042AC00087F00002047AC000810B50446C8
:109A0000000702D52046FFF705FF600704D5204672
:109A1000BDE81040FFF7B0BF10BD00000348044987
:109A20008078085C03490870012070479C00002082
:109A300046000020A011002010B500F069FE024988
:109A40000870012010BD0000A01100200B4910B5C6
:109A5000C8780022012804D0022804D0032806D1A7
:109A600003E0074A02E0002010BD064A521C897834
:109A7000002300F04FFE012010BD00009C000020DC
:109A8000E0110020470000202DE9F05F46480078F3
:109A900000287DD0454800273D4601784A1C0270C9
:109AA000434A1478042204EB440A02FA0AF2521ED2
:109AB000914201DB057001273E4900230A88FF2AF5
:109AC00001D2521C0A803C4A8E46098832F8149012
:109AD000894500D101238346002100699BF800607D
