:020000040800F2
:1040000010470020014100086D5A00086D5A000851
:104010006D5A00086D5A00086D5A00080000000033
:104020000000000000000000000000006D5A0008C1
:104030006D5A0008000000006D5A0008A1840008B5
:104040001B4100081B4100081B4100081B410008E0
:104050001B4100081B4100081B4100081B410008D0
:104060001B4100081B4100081B41000819510008B2
:10407000395100085951000885510008B151000814
:10408000DD510008095200081B4100081B410008CF
:104090006DB500081B4100081B4100081B410008CA
:1040A0001B4100081B4100081B4100081B41000880
:1040B0001B4100081B4100081B4100081B41000870
:1040C0001B4100081B4100081B4100081B41000860
:1040D0001B4100082D8800083D8900081B4100088D
:1040E0001B4100081B4100081B410008DFF80CD0F1
:1040F00000F03CF800480047DDB7000810470020FA
:104100000648804706480047FEE7FEE7FEE7FEE771
:10411000FEE7FEE7FEE7FEE7FEE7FEE78D85000827
:10412000ED40000840EA01039B0703D009E008C9FD
:10413000121F08C0042AFAD203E011F8013B00F86C
:10414000013B521EF9D27047D2B201E000F8012BB8
:10415000491EFBD270470022F6E710B513460A4607
:1041600004461946FFF7F0FF204610BD064C074DE8
:1041700006E0E06840F0010394E807009847103437
:10418000AC42F6D3FFF7B6FF34BF000854BF0008B7
:1041900070B5174EF06A804710F0020F08BF70BD6F
:1041A000144C2568706A804761682844411AB1F54B
:1041B000806FA4BF6068084415DA0029D8BF70BDBD
:1041C0006068C0F30900C0F5806081420DDC606862
:1041D000094AC0F30900104405F05CFE0028C6BF80
:1041E0006168084470BD606070BD0146EFE7000083
:1041F00018BD0008640000200C3300202DE9F04FAA
:104200000646007883B0A0F180021F2A05D8304608
:1042100000F048FC03B0BDE8F08F01F8010B16F880
:10422000010B0F461F2880F02A84DFE810F01F00E2
:104230005E007A00930071027F0285022804DB038E
:104240009C00B00028042804280428042804B7008F
:1042500035015F016F01D201F90151020204070427
:104260000C04110416041F047E011A043178781C12
:104270000024062933D006DC052930D2DFE801F01E
:104280002F2F2F2F0E00FD2918D002DCF02926D168
:104290000AE0FE2920D0FF2918D020E0062422467B
:1042A000FC49FFF73FFF1AE0FB490968002918BFE6
:1042B000202141F017010170012410E0002110229B
:1042C000017042708170C170042408E040210170C7
:1042D00000214170022402E04021017001243C7061
:1042E00003B004F10210BDE8F08F307830B101283E
:1042F0000BD0FF203870E94800F0BCBBE84970786B
:10430000096800F00100096805E0E549707809686E
:1043100000F001004968884700203870DF4800F04D
:10432000A9BB3478002C0CBF0124012C06D0022C30
:1043300018BF002408D03C7000F0E6B9D94901202C
:10434000087002F01FFEF6E7D6490220087002F05E
:10435000CDFDF0E7D3480024047002F0F3FD3C707B
:10436000012000F087BBCC49CF4A30880968B1FBF7
:10437000F2F1CE4A891CA2FB012149084843B0F161
:10438000004F80F08483401E0028FCDCC4E701203D
:10439000787000203870022000F06CBB357874789B
:1043A0007079D6F8026014F0010F60F31F6607D031
:1043B00015F0010F4FF400500CBFBD49BD49086016
:1043C00014F0020F07D015F0020F4FF480400CBF1D
:1043D000B749B849086014F0040F08D0A80810F0D5
:1043E000010F4FF400400CBFB149B249086014F00E
:1043F000800F1CBFE80907F0ADFB96B34FF0010C2E
:10440000AD4A5168AD4B1E1F14F0010F04D018685F
:10441000C0F34030A84220D114F0020F05D030681C
:10442000C0F38030B0EB550F17D114F0040F05D056
:104430001868C0F3C030B0EB950F0ED114F0200F08
:1044400018BF5FEA551008D114F0800F09D030680A
:1044500000F00100B0EBD51F03D05068401A604552
:10446000D2D39648016801F40052011F0B6800681E
:1044700003F480431A4300F400401043904A400B79
:10448000126802F4806240EAD212086842EAC01060
:1044900038708C4800F0EEBAF178306861F31F6034
:1044A00048B17D490968B0EB910F09D37D490120DE
:1044B0004870486015E0FF203870834800F0DABA91
:1044C00000EB5101491EB1FBF0F0764A00230228AF
:1044D000537098BF012003D97449A1FB0010400814
:1044E000506000203870784800F0C4BA3478711CED
:1044F000002C08BF4FF48074204603F0A9FD002073
:104500003870E01DC0080121401CBFE0307800F089
:1045100003014A1C6349C0F380000A7648760020F4
:1045200038704FF0011000F0A5BA002007F8010B19
:10453000012516F8010BA946B0F1010A28BFDFF8E2
:104540008CB142D316F8014B14F03F0008BF402055
:10455000C01D4FEAD008DBF8000014F0800F20F0F7
:10456000706008D040F00060CBF8000051484FF474
:104570008041016007E040F04070CBF800004C49FA
:104580004FF4804008603A463146204602F0A4FFCE
:10459000BAF1000F0BD1DBF8000020F0706040F0A2
:1045A0004070CBF8000042484FF48041016014F0A5
:1045B000800F03D04744C1446D1C03E005EB0800A5
:1045C0004644451CBAF1010ABCD249EA054000F054
:1045D00051BA002007F8010B012516F8010BA84677
:1045E000B0F1010A18D300BF16F8019B19F03F0083
:1045F00008BF4020C01DC4083A463146484601F075
:10460000A5FD2819451C264419F0800F1CBF27441E
:10461000A044BAF1010AE7D248EA054000F02ABAFC
:10462000204D16F8012B0020AA765AB305F11C0381
:1046300005F124014FEA020C16F8014B03F8014B77
:1046400021F8020B2044BCF1010CF5D1D2B105F1E7
:104650001B0105F1320312F0010F05D011F801CF53
:10466000A0EB0C0023F8020F5FEA520C0AD04C7842
:10467000001B588011F8024F001B23F8040FBCF1F7
:10468000010CF4D100203870501C012141EA004097
:1046900000F0F0B92CBC00080C0000200100020062
:1046A000080000200C01002040420F00ABAAAAAA7B
:1046B000140C0140100C0140001000E00C0C0140F3
:1046C000080801400100060001000400040C01403C
:1046D000F0480178022915D13178C176807E814277
:1046E00010D20E2001F014FA01F01EFC00213970E6
:1046F0007870010AB970010CF970000E3871E64843
:1047000000F0B8B9FF2038704FF0011000F0B2B9D6
:10471000E04831780173B6F801100182B6F8031051
:10472000418200203870DD4800F0A4B93946304697
:1047300000F0DAF900F09EB9D648007801280FD0D1
:10474000022877D0002038707870B8700320F17894
:1047500011F0020F18BF40F4802040F08B8139E146
:10476000DFF83C934FF0000A504607F1030889F840
:1047700000A0741C34F8025B7DB314F801BB1BF07D
:10478000020F04BF681E019043D01BF0010F1CBF35
:10479000C048048A0FD00021584602F01DFF0228AD
:1047A00002D0012807D061E0641E5FD399F80010A1
:1047B0000029F0D05AE06C1E58D324B91BF0010F29
:1047C00018BF4FF00E0BB348058A6946584602F0F1
:1047D00003FF022802D0012807D047E06D1E45D311
:1047E00099F800100029F0D040E0009908F8011B6A
:1047F00000990AF1010A090A08F8011B0099090C3D
:1048000008F8011B0099090E08F8011B641ED4D298
:104810002CE0E17854F8040B61F31F6000909D4890
:10482000058A6946584602F0D7FE022803D00128BF
:1048300008D01BE023E06D1E18D399F80010002962
:10484000EFD013E001980AF1010A401E0190E0D276
:104850009048048A00210E2002F0BEFE022805D1F5
:10486000641E03D399F800100029F3D087F800A044
:104870004FEA1A217970B870A8EB070067E7FD1CB2
:104880000197874F4FF00008404687F80080814924
:104890003278741CCA76897E8A4247D234F802BBC9
:1048A000BBF1000F42D014F8019B19F0010F0CBFAF
:1048B0004FF00A0A4FF00B0A504601F029F919F09F
:1048C000020F19BF7348048AABF10100029043D074
:1048D0000021484601F09EFC022802D0012806D0A3
:1048E0006CE0641E6AD339780029F1D066E0BBF130
:1048F000010B63D3BBF1000F0AD06648048A6946F6
:10490000484601F087FC02280BD001280FD055E063
:10491000BAF10A0F1CBF0A2001F0FAF84FF00E0995
:10492000EBE7641E4AD339780029E8D046E00099C5
:1049300005F8011B009908F10108090A05F8011B97
:104940000099090C05F8011B0099090E05F8011BD7
:10495000BBF1010BCED231E0E17854F8040B61F3E6
:104960001F6000904B48B0F810B06946484601F00F
:1049700051FC022802D0012807D01FE0BBF1010B37
:104980001CD339780029F0D018E0029808F101080A
:10499000401E0290E0D2BAF10A0F1CBF0A2001F0BB
:1049A000B7F83C48048A00210E2001F033FC0228AD
:1049B00004D1641E02D339780029F4D001994FEA5A
:1049C000182281F8008001994A7001998870019835
:1049D000281ABCE6B6F801104FF4802202EB8141A0
:1049E000084347E02B490878012802D002280BD061
:1049F0000FE03179D6F8010061F31F60009069463D
:104A0000002002F0E9FD10E03078C876897E884207
:104A100001D3FF200AE0082001F07AF83179D6F8B6
:104A2000010061F31F6002F035F8002038701B4868
:104A300020E03946304603F091FC1BE03946304611
:104A400003F034FC16E03946304603F03DFB11E03C
:104A50003946304603F058FB0CE0384603F04EFC74
:104A600008E03946304603F0E3FB03E039463046C0
:104A700003F072FB03B000F10110BDE8F08FFF20DE
:104A800007F8010C03B04FF00110BDE8F08F401E95
:104A9000FDD141E40C0100200500010001000500EA
:104AA00020000020FF2008704FF001107047000028
:104AB0000A4800210A4A017041701268094BB2FB92
:104AC000F3F2921E4260017364220282418201224B
:104AD000416102764176817602F034BA0C01002001
:104AE0000C000020002D31012DE9F04FFF4E05464E
:104AF00000233078FE4F8FB001281CD0022800F030
:104B00008881AC466D1C15F8010B50B115F8012BCE
:104B100012F0020F02D012F0100F00D02D1D401E17
:104B2000F4D10B704B70A5EB0C0002210FB041EAE1
:104B30000040BDE8F08FCDE904510020891C0B90A6
:104B400000913B7007900A9095F80180AD1CB8F178
:104B5000000F00F0538100BF15F8019B19F0020F00
:104B600079D00799A1B3348A09F0110001280BD13B
:104B700001A9484602F030FD02280DD1641E44D33D
:104B800039780029F4D0A6E001A90E2002F024FD16
:104B9000022804D000210791012836D107E0641EC5
:104BA00002D339780029EFD00021079193E0DDE9A5
:104BB00000120A70019A0099120A01F8012F019A55
:104BC000120C01F8012F019A120E4A70891C0091F3
:104BD00019F0100F40D0E87855F804ABB6F812B0D1
:104BE00060F31F6A19F0010F18BF348A0ED000213C
:104BF000484602F0F1FC022802D0012806D06AE003
:104C0000641E68D339780029F1D064E0348A01A9A0
:104C1000484602F0E1FC022802D0012806D010E04C
:104C2000641E0ED339780029F1D00AE07269019927
:104C30001140514505D0BBF1010B02D33978002951
:104C4000E4D07169019A1140514518BF40F010003D
:104C5000012840D138E050E0348A19F0010F13D018
:104C6000079989BB0021484602F0B6FC022805D00E
:104C7000012804BF0121079126D02CE0641E2AD30D
:104C800039780029EED026E001A9484602F0A4FCBC
:104C9000022802D0012806D01DE0641E1BD33978FB
:104CA0000029F1D017E0DDE900120A70019A00999D
:104CB000120A01F8012F019A120C01F8012F019A32
:104CC000120E4A70891C009100210A910B99491C0F
:104CD0000B913978F1B3B8F1000F0BD015F8011B27
:104CE00011F0020F02D011F0100F00D02D1DB8F1FD
:104CF0000108F3D101284BD080E00798002818BFA5
:104D0000348A1AD001A90E2002F066FC02282ED0A7
:104D10000128E0D1DDE90001017001990098090A3C
:104D200000F8011F0199090C00F8011F0199090EF3
:104D30004170801C009000200790E97855F8040B22
:104D400019F0200F61F31F6001901ABF70610120FC
:104D5000348A00E017E0B9D101A9484602F03CFCD2
:104D600002280AD0012808BF0121AED0B3E7641E93
:104D7000B1D339780029C5D0ADE7641EABD33978FB
:104D80000029E9D0A7E7B8F101087FF4E5AEB1E763
:104D90000799002918BF348A20D001A90E2002F0FB
:104DA0001BFC022802D0012806D027E0641E25D370
:104DB00039780029F1D021E0DDE900120A70019A6A
:104DC0000099120A01F8012F019A120C01F8012F23
:104DD000019A120E4A70891C00910FE00A9900296D
:104DE00018BF348A0AD000210E2002F0F5FB0228F9
:104DF00004D1641E02D339780029F4D0059A0B99A6
:104E000011700599487005990098411A0498281A5C
:104E10008CE600200491891C06950C9000913B7053
:104E200003900A9015F8011BF176B27E914280F052
:104E3000628115F8018BB8F1000F00F05C8100BFB2
:104E400015F8019B19F0010F14BF0B240A2419F067
:104E5000020F74D00A9981B30398B6F810A0A0424B
:104E600008BF19F0100F0FD003980A2803D00A20AA
:104E7000039000F04DFE02A90E2001F0CBF90228AC
:104E800012D000210A9105E002A9484601F0C2F9BA
:104E9000022802D0012841D110E0BAF1010A3DD325
:104EA00039780029F0D0D9E0BAF1010A02D3397873
:104EB0000029E0D000210A91D0E010E0009A029988
:104EC0001170029A0099120A01F8012F029A120C2D
:104ED00001F8012F029A120E4A70891C009119F0F4
:104EE000100F48D0E87855F804AB03E00C0100201F
:104EF0002000002060F31F6A0398B6F812B0A042A9
:104F000003D02046039400F003FE348A0021484673
:104F100001F080F9022802D0012806D09EE0641E2C
:104F200044D339780029F1D098E0348A02A9484660
:104F300001F070F9022803D0012807D011E036E013
:104F4000641E0ED339780029F0D00AE07269029904
:104F50001140514505D0BBF1010B02D3397800292E
:104F6000E3D07169029A1140514518BF40F010001A
:104F7000012873D16DE00A99A1BB0398A04203D028
:104F80002046039400F0C4FD348A0021484601F015
:104F900041F9022805D0012804BF01210A9158D007
:104FA0005CE0641E5AD339780029EED056E00A98A6
:104FB00060B303980A2803D00A20039000F0A8FDEC
:104FC000B6F810A002A90E2001F024F9022802D0A0
:104FD000012808D042E0BAF1010A3FD3397800290C
:104FE000F0D03BE035E000990298087002990098F3
:104FF000090A00F8011F0299090C00F8011F029923
:10500000090E4170801C009000200A90E97855F844
:10501000040B19F0200F61F31F6002901CBF706138
:10502000012016D10398A04203D02046039400F03B
:105030006FFD348A02A9484601F0ECF8022802D03C
:10504000012806D00AE0641E08D339780029F1D07F
:1050500004E00C99491C0C91397891B1B8F1000F1A
:105060000CD000BF15F8011B11F0020F02D011F097
:10507000100F00D02D1DB8F10108F3D1012805D083
:1050800039E0B8F101087FF4DBAEF7E703980A28AE
:105090001CBF0A2000F03CFD348A0A9800B302A924
:1050A0000E2001F0B7F8022802D0012806D022E035
:1050B000641E20D339780029F1D01CE0009A0299AF
:1050C0001170029A0099120A01F8012F029A120C2B
:1050D00001F8012F029A120E4A70891C00910AE011
:1050E00000210E2001F096F8022804D1641E02D39C
:1050F00039780029F4D0049A0C99117004994870F9
:1051000004990098411A06980FB0281A41EA004005
:10511000BDE8F08F7047000010B50548006800F04A
:105120000F04034844602046FFF7F4FF10BD000061
:10513000000002407047000010B505480068C0F349
:1051400003142001024948602046FFF7F3FF10BD19
:10515000000002407047000010B505480068C0F329
:1051600003242002024948602046FFF7F3FF10BDE8
:105170000000024010B50446014804F0BCFD10BD1B
:1051800050BC000810B505480068C0F30334200384
:10519000024948602046FFF7EDFF10BD00000240C5
:1051A00010B50446014804F00BFC10BD50BC0008CB
:1051B00010B505480068C0F3034420040249486064
:1051C0002046FFF7EDFF10BD0000024010B5044679
:1051D000014804F0F5FB10BDA8BC000810B5054857
:1051E0000068C0F303542005024948602046FFF7D9
:1051F000EDFF10BD0000024010B50446014804F068
:105200007AFD10BDA8BC000810B505480068C0F3C1
:1052100003642006024948602046FFF7EDFF10BDF9
:105220000000024070B505460C46012D71D13A4888
:10523000406940F0010038494861082C60D2DFE83D
:1052400004F05F04101C2936435000203349886065
:105250000F2048600B2006F079FA0B2006F0A2FA26
:105260004EE000202D49C861F02048600C2006F077
:105270006DFA0C2006F096FA42E0002027490863F8
:105280004FF4706048600D2006F060FA0D2006F0C3
:1052900089FA35E00020214948644FF470404860A5
:1052A0000E2006F053FA0E2006F07CFA28E00020CB
:1052B0001A4988654FF4702048600F2006F046FABE
:1052C0000F2006F06FFA1BE000201449C8664FF467
:1052D00070004860102006F039FA102006F062FADB
:1052E0000EE000200D49803108604FF070600B49DE
:1052F0004860112006F02AFA112006F053FA00BF88
:1053000000BF0120A04006490978084304490870FD
:1053100000BF00BF70BD000000100240000002404E
:105320003800002070B505460C46012D4ED12948A5
:10533000007800B970BD082C37D2DFE804F03604DD
:105340000B121920272E0B2006F00EFA00202249FE
:1053500088602AE00C2006F007FA00201E49C86188
:1053600023E00D2006F000FA00201B4908631CE032
:105370000E2006F0F9F900201749486415E00F20C7
:1053800006F0F2F90020144988650EE0102006F0BE
:10539000EBF900201049C86607E0112006F0E4F997
:1053A00000200D498031086000BF00BF0120A040EF
:1053B00008490978814307480170007828B90748EF
:1053C000406920F001000549486100BF00BF00BFEF
:1053D000B0E700003800002000000240001002404A
:1053E000084942F228320968B1FBF2F14843B0F1B2
:1053F000004F03D2401E0028FCDC7047401EFDD148
:10540000704700000C00002030B5044604254FF41E
:10541000302000F06FF80546042D17D10C480069C4
:1054200040F002000A49086108464461006940F002
:10543000400008614FF4302000F05CF80546044855
:10544000006941F6FD71084001490861284630BDF8
:105450000020024004200B49C96801F0010109B194
:1054600001200EE00749C96801F0040109B10220DA
:1054700007E00449C96801F0100109B1032000E008
:1054800004207047002002400348006940F080007B
:1054900001490861704700000020024070B50446D1
:1054A0000D460426F00200F025F80646042E11D120
:1054B0000948006940F00100074908612580F002B1
:1054C00000F018F806460448006941F6FE710840ED
:1054D00001490861304670BD00200240024803497E
:1054E0004860034848607047230167450020024038
:1054F000AB89EFCD00B502460423FFF7ABFF0346AF
:1055000003E0FFF7A7FF0346521E012B01D1002A3B
:10551000F7D102B90523184600BD000018B50028D0
:1055200044D0C0F34211C0F30322214B9B6903F026
:1055300001032BB91E4B9B6943F001031C4CA36173
:1055400000F48053A3B11B4BDB69009300F01F03F1
:1055500001FA03F3009C9C43009400F01F0302FA3D
:1055600003F3009C23430093124C009BE3611DE076
:10557000104B5B68009300F01F0301FA03F3009CDB
:105580009C43009400F01F0302FA03F3009C2343A2
:10559000009307210022009B23EA01630093009BF4
:1055A00043EA02630093034C009B636018BD000054
:1055B000001002400000014001461D48814204D114
:1055C0001C488069C0F3800070471B48814204D1A9
:1055D00018488069C0F3C000F6E71848814204D13A
:1055E00014488069C0F30010EEE71548814204D1E9
:1055F00010488069C0F34010E6E71248814204D1A8
:105600000C488069C0F38010DEE70F48814204D166
:1056100008488069C0F3C010D6E70C48814204D125
:1056200004488069C0F30020CEE70020CCE70000EA
:105630000008014000100240000C01400010014031
:105640000014014000180140001C014000200140EE
:105650002DE9F04102460025002600200023002409
:10566000002791F803C00CF00F0591F803C00CF06F
:10567000100CBCF1000F03D091F802C04CEA0505F4
:1056800091F800C0BCF1000F31D0146800202BE06D
:105690004FF0010C0CFA00F3B1F800C00CEA03065D
:1056A0009E4220D183004FF00F0C0CFA03F7BC434D
:1056B00005FA03FC4CEA040491F803C0BCF1280F7E
:1056C00006D14FF0010C0CFA00FCC2F814C00AE03D
:1056D00091F803C0BCF1480F05D14FF0010C0CFA52
:1056E00000FCC2F810C0401C0828D1D31460B1F8E7
:1056F00000C0BCF1FF0F34DD546800202EE000F143
:10570000080C4FF0010808FA0CF3B1F800C00CEADD
:1057100003069E4221D183004FF00F0C0CFA03F7D1
:10572000BC4305FA03FC4CEA040491F803C0BCF145
:10573000280F05D100F1080C08FA0CF8C2F8148003
:1057400091F803C0BCF1480F07D100F1080C4FF0ED
:10575000010808FA0CF8C2F81080401C0828CED3C3
:105760005460BDE8F0812DE9F04105460C4617462E
:1057700098460F2C02D90020BDE8F0812846FFF79B
:105780001BFF18B90121284600F02AF8B8F1000FD4
:1057900010D1022F05D1E8680121A1408843E860BB
:1057A00008E0032F06D127F00107E8680121A14096
:1057B0000843E860082C01D22E4601E0083C2E1D6B
:1057C0003068A2000F2191408843306048EA87008A
:1057D000A10088403168084330600120CCE7000018
:1057E000002945D0454A904206D1454A926942F087
:1057F0000402434B9A6180E0424A904206D1404AFB
:10580000926942F008023E4B9A6176E03E4A90422D
:1058100006D13B4A926942F01002394B9A616CE022
:105820003A4A904206D1364A926942F02002344BFD
:105830009A6162E0364A904206D1314A926942F05A
:1058400040022F4B9A6158E0324A904206D12C4ACE
:10585000926942F080022A4B9A614EE02E4A9042B1
:105860004BD1274A926942F48072254B9A6144E0F9
:10587000224A904206D1224A926922F00402204B29
:105880009A613AE01F4A904206D11D4A926922F07D
:1058900008021B4B9A6130E01B4A904206D1184A1D
:1058A000926922F01002164B9A6126E0174A904244
:1058B00006D1134A926922F02002114B9A611CE032
:1058C000134A904206D10E4A926922F040020C4BD4
:1058D0009A6112E00F4A904206D1094A926922F079
:1058E0008002074B9A6108E00B4A904205D1044AB6
:1058F000926922F48072024B9A617047000801405D
:1059000000100240000C0140001001400014014052
:1059100000180140001C0140002001404161704717
:105920002DE9F0410278FF27A2F1D003072B7AD8A6
:1059300001F8012B0C4610F8011BD03908296ED252
:10594000DFE801F0041215181C2A4A5E404800687E
:1059500004F8010B010A04F8011B010C04F8011BF7
:10596000000E04F8010B5BE0FFF7B8FD58E0FFF70D
:105970008BFD55E00068FFF747FD51E08288016824
:10598000501E80B24CD300BF11F8012BFF2A1BD14F
:10599000401E80B2F8D243E08188D0F800803829D8
:1059A0003ED8851D481E86B23AD300BF15F8011BAC
:1059B0002EB115F8010B41EA0021701E86B2404657
:1059C000FFF76CFD042801D0FF2729E0711E8EB27D
:1059D00008F10208EAD223E0828801683E2A1FD833
:1059E000002004F8010B501E80B219D330B111F819
:1059F000012B401E04F8012B80B2F7E70F780FE06F
:105A0000BFF34F8F13480168134A01F4E06111435B
:105A10000160BFF34F8F00BFFDE704E0FFE7641EA6
:105A20002770BDE8F0810D480268002A02BFFF2000
:105A30000870BDE8F0810A490A48C368806801EB34
:105A40008311094B5268BDE8F04103EB8010104709
:105A5000002004E00CED00E00400FA050400002042
:105A60000C230020500000200C13002082B072B6DE
:105A70002248006880F308884FF40074ADF80040B5
:105A800010251F4F8DF8035003268DF80260214624
:105A90003846FFF743FF69463846FFF7D9FDADF8B2
:105AA00004408DF807508DF8066021463846FFF710
:105AB00035FF01A93846FFF7CBFD124E0025371DF3
:105AC00034606420FFF78CFC3C6034606420FFF796
:105AD00087FC3C604FF47A70FFF782FC6D1C052D4B
:105AE000EEDBBFF34F8F08480168084A01F4E0611C
:105AF00011430160BFF34F8F00BFFDE70040000876
:105B000000080140100801400CED00E00400FA0517
:105B10002DE9F007F749F84C0A464B7892F81B80BC
:105B2000A4F1040C4FF4804A671402F11C0902EB43
:105B300048064FF40045002BCCF800A0276057D052
:105B4000CCF800702760CCF80070C4F800A0276083
:105B5000CCF800702760CCF80070CCF80050B18C05
:105B600021B12760CCF80070491EFAD118F809104D
:105B7000491E0BD010F0010F14BFCCF80050256067
:105B80002760CCF800704008491EF3D1B18E19B3DC
:105B900010F0010F0CBF2560CCF800502760CCF846
:105BA0000070CCF80050481E04D02760CCF800707C
:105BB000401EFAD1CCF800A02760CCF80070276016
:105BC000CCF80070C4F800A02760CCF80070CCF8C6
:105BD0000050BDE8F0077047CCF800A010F0010FAE
:105BE00014BFCCF8005025602760CCF80070E6E7C1
:105BF00049680A46B1F1004F38BF4A1E80F036812D
:105C0000002AC8BF521EFBDCCCF800700A46B1F176
:105C1000004F38BF4A1E80F02C81002AC8BF521E98
:105C2000FBDC27600A46B1F1004F38BF4A1E80F006
:105C30002381002AC8BF521EFBDC00BFCCF80070D5
:105C40000A46B1F1004F38BF4A1E80F01881002A81
:105C5000C8BF521EFBDC00BFC4F800A027600A4684
:105C6000B1F1004F38BF4A1E80F00D81002AC8BF35
:105C7000521EFBDCCCF800700A46B1F1004F38BF71
:105C80004A1E80F00381002AC8BF521EFBDC276039
:105C90000A46B1F1004F38BF4A1E80F0FA80002A50
:105CA000C8BF521EFBDC00BFCCF800700A46B1F141
:105CB000004F38BF4A1E80F0EF80002AC8BF521E36
:105CC000FBDC00BFCCF80050B38C53B12760B1F1BE
:105CD000004F7BD2CCF80070B1F1004F77D25B1E41
:105CE000F4D118F80920531E12D000BF10F0010F94
:105CF00014BFCCF8005025602760B1F1004F67D287
:105D0000CCF80070B1F1004F7CD240085B1EEDD1A1
:105D1000B28EEAB310F0010F0CBF2560CCF8005032
:105D200027600846B1F1004F38BF481E6BD20028EB
:105D3000C8BF401EFBDC00BFCCF800700846B1F1C4
:105D4000004F38BF481E7DD20028C8BF401EFBDC74
:105D5000CCF80050521E0DD027600846B1F1004F1C
:105D600071D200BFCCF800700846B1F1004F6BD281
:105D7000521EF1D1CCF800A027600846B1F1004FC7
:105D800038BF481E71D20028C8BF401EFBDC00E0AF
:105D90000CE0CCF800700846B1F1004F38BF481E47
:105DA00070D20028C8BF401EFBDC23E0CCF800A066
:105DB00010F0010F14BFCCF8005025602760084692
:105DC000B1F1004F38BF481E6FD202E067E06DE0CE
:105DD00072E00028C8BF401EF7DC00BFCCF800709E
:105DE0000846B1F1004F38BF481E71D20028C8BF25
:105DF000401EFBDC27600846B1F1004F38BF481E4B
:105E000067D201E05EE065E00028C8BF401EF8DC14
:105E1000CCF800700846B1F1004F38BF481E79D267
:105E20000028C8BF401EFBDCC4F800A0276008465D
:105E3000B1F1004F38BF481E70D20028C8BF401EC5
:105E4000FBDC02E049E04BE04DE0CCF80070B1F142
:105E5000004F38BF481E64D20028C8BF401EFBDC7C
:105E6000CCF80050BDE8F00770473FE0521EFDD16E
:105E7000CAE6521EFDD1D4E6521EFDD1DEE6521E08
:105E8000FDD1E9E63AE0521EFDD1F3E6521EFDD106
:105E9000FDE6521EFDD107E7521EFDD112E74A1E54
:105EA0003FF418AF521EFDD114E72AE04A1E3FF41A
:105EB00016AF521EFDD112E74A1E3FF421AF521E0B
:105EC000FDD11DE74A1E3FF420AF521EFDD11CE755
:105ED0001AE01CE0401EFDD12EE7401EFDD137E741
:105EE000401EFDD13EE7401EFDD141E7401EFDD1E1
:105EF0004DE70FE00C010020140C0140401EFDD1C5
:105F000078E7401EFDD169E7401EFDD172E7401ED3
:105F1000FDD17DE7401EFDD186E7FFE7401EFDD1A4
:105F20008FE7491EFDD19BE72DE9F001DFF810C294
:105F30004FF48044CCF800400CF1040362101A6066
:105F4000804D69680846B1F1004F80F0B780401E6F
:105F50000028FCDCCCF800200846B1F1004F38BF27
:105F6000481E7BD20028C8BF401EFBDC1C601A60A4
:105F70000846B1F1004F38BF481E70D20028C8BF94
:105F8000401EFBDCCCF800200846B1F1004F38BFC2
:105F9000481E65D20028C8BF401EFBDC1A600846B8
:105FA000B1F1004F38BF481E7ED20028C8BF401E46
:105FB000FBDC00BFCCF800200846B1F1004F38BF31
:105FC000481E72D20028C8BF401EFBDCED7E55B1D2
:105FD0001A60B1F1004F69D2CCF80020B1F1004F46
:105FE00065D26D1EF4D10026574F1F251A60B1F1FE
:105FF000004F6FD23868CCF80020C0F38028B1F190
:10600000004F68D246EAC87046086D1EEED1CCF843
:1060100000401A600846B1F1004F38BF481E7AD2DE
:106020000028C8BF401EFBDC3868CCF80020C0F355
:1060300080250846B1F1004F38BF481E6ED20028B7
:10604000C8BF401EFBDC00BF46EAC5701A600D46A3
:10605000B1F1004F38BF4D1E63D202E031E033E0B2
:1060600035E0002DC8BF6D1EF7DC00BFCCF8002066
:106070000D46B1F1004F38BF4D1E55D2002DC8BF9F
:106080006D1EFBDC1C601A600B46B1F1004F38BF7F
:106090004B1E4CD2002BC8BF5B1EFBDCCCF8002093
:1060A000B1F1004F46D203E016E018E01AE01FE01D
:1060B000491E0029F7DCBDE8F0017047401EFDD104
:1060C00048E7401EFDD151E7401EFDD15AE7401E72
:1060D000FDD163E712E018E0401EFDD16AE7401EE3
:1060E000FDD173E7481E3FF477AF401EFDD173E743
:1060F000481E3FF476AF401EFDD172E7481E3FF4C4
:1061000079AF401EFDD175E705E0481E3FF47AAF38
:10611000401EFDD176E7401EFDD185E7401EFDD132
:1061200092E76D1EFDD1A1E76D1EFDD1AAE75B1EB2
:10613000FDD1B3E7491EFDD1BDE8F0017047000075
:10614000100C01400C010020080801402DE9F74F18
:10615000009810F03F0408BF402410F0400F2A4F71
:106160004FF48040A7F1040814BFC8F8000038605D
:10617000002C04BF03B0BDE8F08F4FF4004BDFF8F4
:106180008CE04FF4005A00BF214811F8015B4FF03A
:1061900000090826D0F804C020E000BF15F0010F68
:1061A00014BFC8F800B0C7F800B0C7F800A0634635
:1061B000BCF1004F21D200BFDEF80000C8F800A0FB
:1061C000C0F380236046BCF1004F19D26D084FEA3E
:1061D0005900641E40EAC319761E01D0002CDDD19F
:1061E000009B29FA06F013F0800F18BF02F8010B8C
:1061F000002CC9D103B0BDE8F08F5B1EFDD1DBE7F9
:10620000401EFDD1E2E70000140C014008080140E7
:106210000C0100202DE9F05FDFF8C0E19EF80120BD
:10622000002A00F0D780DFF8B8C14FF48049CCF8DD
:1062300000900CF104074FF400533B60CCF80030A1
:10624000C7F800903B60CCF800303B60CCF80030E1
:106250009EF81B2022B13B60CCF80030521EFAD1D0
:10626000420812F0010F4FF4004414BFCCF8004074
:106270003C603B605B4D2A68CCF80030C2F3802262
:106280005200860816F0010F14BFCCF800403C60A5
:106290003B602E68CCF80030C6F380263243C60837
:1062A00016F0010F14BFCCF800403C603B602E6834
:1062B000CCF80030C6F3802642EA860ABAF1010F14
:1062C00059D1464E10F0020FB27EF67EA2EB060BBD
:1062D00014BF002609684FF01F022DD03B60D5F88F
:1062E0000080CCF800304FEA982846EAC876760855
:1062F000521EF3D1BBF1010210D03B602D68CCF8E7
:106300000030C5F38025521E04D03B60CCF800302D
:10631000521EFAD1CCF800903B6005E0CCF800901A
:106320003B602A68C2F38025CCF8003046EAC5728B
:10633000002918BF0A6023E011F0010F14BFCCF848
:1063400000403C603B60CCF800304908521EF3D15D
:10635000BBF1010232D011F0010F0CBF3C60CCF850
:1063600000403B60CCF80030511E04D03B60CCF8BC
:106370000030491EFAD1CCF800903B60CCF80030D8
:106380003B60CCF80030C7F800903B60CCF80030A0
:10639000CCF8004010F0800F03D013484068CEF8CE
:1063A00008009EF80C00002805DD3B60CCF80030AA
:1063B000401E0028F9DC5046BDE8F09FCCF8009064
:1063C00011F0010F14BFCCF800403C603B60CCF8EA
:1063D0000030D5E7BDE8F05F00F008B80C01002000
:1063E000100C014008080140001000E02DE9F84FB2
:1063F000FF4D4FF48048C5F8008005F104096C1486
:10640000C9F80040FB4F7A681346B2F1004F80F0A4
:1064100095825B1E002BFCDC2C601346B2F1004F12
:1064200038BF531E80F08D82002BC8BF5B1EFBDC83
:10643000C9F80080C9F800401346B2F1004F38BFD8
:10644000531E80F08182002BC8BF5B1EFBDC2C60DA
:106450001346B2F1004F38BF531E80F07882002BF4
:10646000C8BF5B1EFBDC00BFC9F800401346B2F199
:10647000004F38BF531E80F06D82002BC8BF5B1EDB
:10648000FBDC2C601346B2F1004F38BF531E80F086
:106490006482002BC8BF5B1EFBDC00BF97F81BC0EB
:1064A000BCF1000F0FD000BFC9F80040B2F1004F9F
:1064B00080F056822C60B2F1004F80F0598200BF0C
:1064C000BCF1010CF0D1430813F0010F4FF400466A
:1064D00014BF2E60C9F80060C9F800401346B2F13D
:1064E000004F38BF531E80F04982002BC8BF5B1E8F
:1064F000FBDCDFF804C3DCF800302C60C3F380233E
:106500009246B2F1004F38BFA2F1010A80F03A8200
:10651000BAF1000FC8BFAAF1010AF9DC5B004FEA2B
:10652000900A1AF0010F14BF2E60C9F80060C9F874
:1065300000409246B2F1004F38BFA2F1010A80F04C
:10654000258200BFBAF1000FC8BFAAF1010AF9DC29
:10655000DCF800A02C60CAF3802A9346B2F1004F09
:1065600038BFA2F1010B80F0158200BFBBF1000F14
:10657000C8BFABF1010BF9DC43EA0A0AC30813F008
:10658000010F14BF2E60C9F80060C9F8004013461F
:10659000B2F1004F38BF531E80F00082002BC8BFFD
:1065A0005B1EFBDCDCF80030914CC3F3802B4FF416
:1065B000005323601346B2F1004F38BF531E80F0E2
:1065C000F081002BC8BF5B1EFBDC00BF4AEA8B0AD0
:1065D000BAF1010F20D0864BC3F800804FF4005C65
:1065E000C9F800C01146B2F1004F38BF511E80F00B
:1065F000DB810029C8BF491EFBDC00BFC3F800C017
:10660000B2F1004F38BF511E80F0D2810029C8BFBF
:10661000491EFBDC00F029B9764C10F0020FA37E76
:10662000E47EA3EB040300936FD0714F00244FF07E
:106630001F0B7D14C9F80050B2F1004F80F0BB81F0
:10664000DCF800303D60C3F3802EB2F1004F80F0E3
:10665000B88100BF44EACE735C08BBF1010BE9D1FD
:10666000009B5B1E52D0C9F800509346B2F1004F18
:1066700038BFA2F1010B80F0AB8100BFBBF1000F6E
:10668000C8BFABF1010BF9DCDCF800C03D60CCF316
:10669000802B9446B2F1004F38BFA2F1010C80F07C
:1066A0009B8100BFBCF1000FC8BFACF1010CF9DC4D
:1066B000B3F1010C11D000BFC9F800501346B2F17C
:1066C000004F80F08D813D601346B2F1004F80F0A5
:1066D0008A8100BFBCF1010CEED1C7F80080C9F877
:1066E00000501346B2F1004F38BF531E80F07E8138
:1066F000002BC8BF5B1EFBDC3D60B2F1004F80F099
:106700007881521E002AFCDC1CE021E0C7F80080E2
:10671000C9F800501346B2F1004F38BF531E80F045
:106720006B81002BC8BF5B1EFBDC00BFDCF80030B8
:106730003D60C3F3802BB2F1004F80F06281521EA6
:10674000002AFCDC44EACB72002918BF0A608CE006
:10675000274CD1F800301F254FF4005C13F0010FD7
:1067600014BF2660C9F80060C9F800C0B2F1004F3C
:106770007ED200BFC4F800C0B2F1004F79D25B08EE
:106780006D1EEBD10099491E50D013F0010F0CBFC4
:10679000C9F800602660C9F800C01346B2F1004F86
:1067A00038BF531E66D2002BC8BF5B1EFBDC00BF88
:1067B000C4F800C01346B2F1004F38BF531E7DD25B
:1067C000002BC8BF5B1EFBDC4B1E0DD0C9F800C000
:1067D0001146B2F1004F72D2C4F800C01146B2F1B6
:1067E000004F6DD25B1EF1D1C4F8008006E00000BE
:1067F000100C01400C01002008080140C9F800C03D
:106800001146B2F1004F38BF511E7DD20029C8BFDA
:10681000491EFBDCC4F800C0B2F1004F38BF511E66
:1068200073D20029C8BF491EFBDC1EE0C4F80080FB
:1068300013F0010F14BF2660C9F80060C9F800C04A
:106840001146B2F1004F38BF511E75D20029C8BFA2
:10685000491EFBDCC4F800C0B2F1004F38BF511E26
:106860006BD20029C8BF491EFBDC4FF4005202E086
:10687000CAE0CFE0D4E0C9F80020834C61680B4641
:10688000B1F1004F72D25B1E002BFCDC7F4B1A6013
:106890008C46B1F1004F38BFA1F1010C67D200BFA7
:1068A000BCF1000FC8BFACF1010CF9DCC9F80080E5
:1068B000C9F800208C46B1F1004F02E0B3E0B5E02A
:1068C000B7E038BFA1F1010C71D200BFBCF1000FDD
:1068D000C8BFACF1010CF9DC1A608C46B1F1004F75
:1068E00038BFA1F1010C72D2BCF1000FC8BFACF1EE
:1068F000010CF9DC1E6010F0800F02D06448406883
:10690000A06094F80CC001E096E098E0BCF1000FA4
:106910000FDD00BFC9F80020B1F1004F6FD21A603F
:10692000B1F1004F6CD200BFACF1010CBCF1000F13
:10693000F0DC5046BDE8F88F84E086E05B1EFDD1B8
:106940006AE55B1EFDD173E55B1EFDD17FE55B1E35
:10695000FDD189E55B1EFDD193E55B1EFDD19DE573
:10696000531E3FF4A7AD5B1EFDD1A3E570E072E0BE
:10697000531E3FF4A5AD5B1EFDD1A1E55B1EFDD10D
:10698000B7E500BFBAF1010AFCD1C7E5BAF1010AC7
:10699000FCD1DDE5BBF1010BFCD1EDE55B1EFDD1CA
:1069A00000E65B1EFDD111E6491EFDD126E656E04C
:1069B000521EFDD159E7531E3FF442AE5B1EFDD17E
:1069C0003EE6531E3FF446AE5B1EFDD142E64AE072
:1069D000BBF1010BFCD157E6BCF1010CFCD167E621
:1069E0005B1EFDD16FE65B1EFDD173E65B1EFDD124
:1069F00082E6521EFDD1A5E65B1EFDD196E636E08D
:106A00003BE0521EFDD19DE6511E3FF4B3AE491E40
:106A1000FDD1AFE6511E3FF4B2AE491EFDD1AEE648
:106A20005B1EFDD1C4E65B1EFDD1CDE6491EFDD146
:106A3000D2E6491EFDD1D5E6491EFDD1EAE6521E39
:106A4000FDD112E7491EFDD104E7521EFDD10CE72E
:106A50005B1EFDD11AE7BCF1010CFCD126E7BCF1AD
:106A6000010CFCD138E7BCF1010CFCD142E7481E17
:106A70003FF455AF401EFDD151E7481E3FF454AFDF
:106A8000401EFDD150E700000C010020100C014019
:106A9000001000E02DE9F003F34C4FF4804727602D
:106AA000251D4FF4005CC5F800C0F04E71680A4621
:106AB000B1F1004F80F07281521E002AFCDC00BF51
:106AC000C4F800C00A46B1F1004F38BF4A1E80F03A
:106AD0006881002AC8BF521EFBDC2F60C5F800C0C9
:106AE0000A46B1F1004F38BF4A1E80F05D81002A8E
:106AF000C8BF521EFBDC00BFC4F800C00A46B1F19B
:106B0000004F38BF4A1E80F05281002AC8BF521E73
:106B1000FBDC00BFC5F800C00A46B1F1004F38BF2A
:106B20004A1E80F04881002AC8BF521EFBDC00BF0D
:106B3000C4F800C00A46B1F1004F38BF4A1E80F0C9
:106B40003D81002AC8BF521EFBDCF37EB3F1000971
:106B50000ED000BFC5F800C0B1F1004F80F0318108
:106B6000C4F800C0B1F1004F80F031815B1EF1D15B
:106B70004FF40048C5F80080C5F800C00A46B1F1DE
:106B8000004F38BF4A1E80F02981002AC8BF521E1C
:106B9000FBDC00BFC4F800C00A46B1F1004F38BFAB
:106BA0004A1E80F01E81002AC8BF521EFBDC00BFB7
:106BB000C5F800C00A46B1F1004F38BF4A1E80F048
:106BC0001381002AC8BF521EFBDC00BFC4F800C0FE
:106BD0000A46B1F1004F38BF4A1E80F00881002AF2
:106BE000C8BF521EFBDC00BFC5F800C00A46B1F1A9
:106BF000004F38BF4A1E80F0FE80002AC8BF521ED8
:106C0000FBDC00BFC4F800C00A46B1F1004F38BF3A
:106C10004A1E80F0F380002AC8BF521EFBDC1F23EF
:106C200010F0010F14BFC4F80080C5F80080C5F84B
:106C300000C0B1F1004F7BD2C4F800C0B1F1004FE9
:106C400077D240085B1EEBD1B27EA2EB0902521E46
:106C500044D010F0010F0CBFC5F80080C4F80080CC
:106C60006346C5F800C00846B1F1004F38BF481E62
:106C70007ED20028C8BF401EFBDC23600846B1F16D
:106C8000004F38BF481E74D20028C8BF401EFBDC2E
:106C9000521E0BD02B600846B1F1004F6AD2236020
:106CA0000846B1F1004F66D2521EF3D127602B6027
:106CB0000846B1F1004F38BF481E6ED20028C8BF49
:106CC000401EFBDC23600846B1F1004F38BF481E70
:106CD00070D20028C8BF401EFBDC1FE0276010F008
:106CE000010F14BFC4F80080C5F80080C5F800C0CB
:106CF0000846B1F1004F38BF481E6ED20028C8BF09
:106D0000401EFBDCC4F800C00846B1F1004F38BF9C
:106D1000481E6FD20028C8BF401EFBDCC5F800C06B
:106D20000846B1F1004F38BF481E70D2002801E07C
:106D300067E06DE0C8BF401EF8DC00BFC4F800C0CB
:106D40000846B1F1004F38BF481E70D20028C8BFB6
:106D5000401EFBDC2F60C5F800C00846B1F1004FB3
:106D600038BF481E7AD20028C8BF401EFBDC03E0B3
:106D700054E056E058E05BE0C4F800C0B1F1004FC9
:106D800038BF481E6DD20028C8BF401EFBDC00BFC4
:106D9000C4F80080BDE8F00370474CE0521EFDD1FE
:106DA0008EE6521EFDD198E6521EFDD1A4E6521E7B
:106DB000FDD1AFE642E0521EFDD1B9E6521EFDD133
:106DC000C3E64A1E3FF4CCAE521EFDD1C8E64A1EB1
:106DD0003FF4CCAE521EFDD1C8E632E0521EFDD1CA
:106DE000D8E6521EFDD1E3E6521EFDD1EEE6521E5C
:106DF000FDD1F9E629E0521EFDD103E7521EFDD177
:106E00000DE74A1E3FF418AF521EFDD114E71FE0F4
:106E10004A1E3FF416AF521EFDD112E7401EFDD1AF
:106E20002BE7401EFDD133E7401EFDD137E712E0CE
:106E3000401EFDD138E7401EFDD143E7401EFDD185
:106E40006CE7401EFDD15DE708E0401EFDD165E71F
:106E5000401EFDD172E7401EFDD17BE7401EFDD1F3
:106E600085E7491EFDD193E7100C01400C0100207D
:106E70000A4A4FF40071116010F0010F0848417880
:106E800014BF41F0010121F0010141704FF0E020F9
:106E9000016941F0010101617047000014080140DF
:106EA000000000200A4A4FF40071116010F0010F39
:106EB0000848417814BF41F0010121F001014170FF
:106EC0004FF0E020016941F00101016170470000CD
:106ED0001408014000000020024A0A400243024B0D
:106EE0001A60704780FFFF1F08ED00E00F4810B5E3
:106EF0004FF4C04101604FF4004101600C490D485E
:106F0000FEF7A6FB0D4C0C492046FEF7A1FB0C49F1
:106F10002046FEF79DFB002004F01CFE6420FEF7D7
:106F20005FFABDE81040012004F014BE100C0140CF
:106F3000F0BB000800080140F8BB0008000C01404D
:106F4000F4BB000810B50A4C08492046FEF780FB48
:106F500008492046FEF77CFB07490848FEF778FB06
:106F60002046BDE810400649FEF772BB00BC000891
:106F7000000C0140FCBB000804BC000800080140F4
:106F800008BC00080E4910B54FF4C04008600E4C14
:106F90000C492046FEF75CFB0C490D48FEF758FBF8
:106FA0000C492046FEF754FB002004F0D3FD64207A
:106FB000FEF716FABDE81040012004F0CBBD00003A
:106FC000100C0140E4BB0008000C0140E8BB0008C5
:106FD00000080140ECBB00080648816941F004014B
:106FE000816105494FF40040086004490448FEF7F8
:106FF0002FBB00000010024014080140E0BB000855
:10700000000801402DE9F007F74C4FF48046266058
:10701000251D4FF4005CC5F800C0F44B5F683A468C
:10702000B7F1004F80F0D9817F1E002FFCDC00BF3C
:10703000C4F800C01746B2F1004F38BF571E80F0A9
:10704000CF81002FC8BF7F1EFBDC00BF10F0010FF7
:1070500014BF26602E60C5F800C01746B2F1004F7D
:1070600038BF571E80F0C881002FC8BF7F1EFBDCD1
:10707000C4F800C01746B2F1004F38BF571E80F069
:10708000BE81002FC8BF7F1EFBDC4FEA500980463F
:1070900019F0010F14BF26602E60C5F800C0174616
:1070A000B2F1004F38BF571E80F0AC81002FC8BF2F
:1070B0007F1EFBDCC4F800C01746B2F1004F38BF9A
:1070C000571E80F0A481002FC8BF7F1EFBDC4FEA53
:1070D0009008814418F0010F14BF26602E60C5F897
:1070E00000C01746B2F1004F38BF571E80F09281A2
:1070F000002FC8BF7F1EFBDCC4F800C01746B2F1EA
:10710000004F38BF571E80F08881002FC8BF7F1EF8
:10711000FBDC00BF09EB08074FEAD00818F0010FAD
:1071200014BF26602E60C5F800C01046B2F1004FB3
:1071300038BF501E80F074810028C8BF401EFBDCA1
:10714000C4F800C01046B2F1004F38BF501E80F0A6
:107150006A810028C8BF401EFBDC00BF07EB0800A7
:1071600010F0010F14BF26602E60C5F800C0104655
:10717000B2F1004F38BF501E80F058810028C8BFC0
:10718000401EFBDCC4F800C01046B2F1004F38BF0F
:10719000501E80F04E810028C8BF401EFBDC2E60D0
:1071A000C5F800C01046B2F1004F38BF501E80F045
:1071B00043810028C8BF401EFBDC00BFC4F800C0EC
:1071C0001046B2F1004F38BF501E80F038810028C1
:1071D000C8BF401EFBDC2660C5F800C01046B2F1F7
:1071E000004F38BF501E80F02D810028C8BF401EC0
:1071F000FBDC00BFC4F800C01046B2F1004F38BF3E
:10720000501E80F024810028C8BF401EFBDC784F50
:10721000386820F0706040F00060386026601B7EA7
:10722000B3F100080DD000BFC5F800C0B2F1004FA7
:107230007CD200BFC4F800C0B2F1004F77D25B1E11
:10724000F2D1C5F800C01046B2F1004F38BF501E51
:107250006ED20028C8BF401EFBDC6648036813F4EA
:10726000804318BF0123C4F800C09146B2F1004F1B
:1072700038BFA2F101097CD2B9F1000FC8BFA9F152
:107280000109F9DCC5F800C09146B2F1004F38BFE2
:10729000A2F101096ED200BFB9F1000FC8BFA9F178
:1072A0000109F9DCD0F8009019F4804F14BF4FF0B9
:1072B000010A4FF0000AC4F800C09146B2F1004F35
:1072C00038BFA2F101097BD2B9F1000FC8BFA9F103
:1072D0000109F9DC43EA4A09C5F800C01346B2F1D6
:1072E000004F38BF531E6CD2002BC8BF5B1EFBDCA7
:1072F000006810F4804F14BF01230023C4F800C0BD
:107300001046B2F1004F38BF501E6CD20028C8BFE3
:10731000401EFBDC49EA8300B8F1000F11D000BF2A
:10732000C5F800C0B2F1004F6FD202E092E097E0E2
:107330009CE0C4F800C0B2F1004F67D2B8F1010878
:10734000EED13B6823F0706343F040733B602E60E6
:107350004FF000084FF0200911F0010F14BF266014
:107360002E60C5F800C0B2F1004F6ED2C4F800C064
:1073700001E07EE081E0B2F1004F67D28844490825
:10738000B9F10109E8D118F0010F14BF26602E6091
:10739000C5F800C01146B2F1004F38BF511E70D27F
:1073A0000029C8BF491EFBDCC4F800C0B2F1004F81
:1073B00038BF511E70D20029C8BF491EFBDC01E056
:1073C00060E063E0396821F0706141F0407139603C
:1073D0002E602660BDE8F00770477F1EFDD127E6CE
:1073E0007F1EFDD132E654E0100C01400C0100205C
:1073F000040C0140080C01407F1EFDD138E67F1EC1
:10740000FDD142E67F1EFDD154E646E04BE07F1EF3
:10741000FDD15CE67F1EFDD16EE67F1EFDD179E6D3
:10742000401EFDD18CE6401EFDD197E6401EFDD1E9
:10743000A8E6401EFDD1B2E6401EFDD1BEE6401ECC
:10744000FDD1C8E6401EFDD1D4E632E037E0401E53
:10745000FDD1DCE6501E3FF4EDAE401EFDD1E9E665
:10746000501E3FF4ECAE401EFDD1E8E6401EFDD1BB
:10747000F3E6B9F10109FCD104E7B9F10109FCD146
:1074800010E722E0B9F10109FCD123E75B1EFDD131
:107490002EE7401EFDD13DE71AE0531E3FF445AFF5
:1074A0005B1EFDD141E7531E3FF448AF5B1EFDD18B
:1074B00044E7531E3FF45AAF5B1EFDD156E7531EFF
:1074C0003FF45CAF5B1EFDD158E7491EFDD16BE771
:1074D000521EFDD173E700002DE9F00710F03F03C5
:1074E00008BF402310F0800FDFF8E090DFF8E0A045
:1074F0004FF40055A9F104062FD0002B12BFDFF87E
:10750000D480BDE8F007704700270824DAF804C0EB
:1075100018E000BFC9F800506146BCF1004F49D2E5
:10752000D8F8000010F4804F14BF0121002135600D
:107530006046BCF1004F40D278085B1E40EAC1179C
:10754000641E01D0002BE5D127FA04F002F8010BEC
:10755000002BD9D1BDE8F0077047002B19BF4FF4BD
:10756000804CDAF80420BDE8F007704711F8014BB1
:10757000082715E014F0010F14BFC6F800C0C9F8C1
:1075800000C0C9F800501046B2F1004F18D2356063
:107590001046B2F1004F16D264085B1E7F1E04D065
:1075A000002BE7D1BDE8F0077047002BDED1BDE826
:1075B000F0077047491EFDD1B2E7401EFDD1BBE781
:1075C000401EFDD1E3E7401EFDD1E5E7140C01406C
:1075D0000C010020080C0140034A52780AB100F067
:1075E00005B800F07BB900000C0100202DE9F04F38
:1075F000DFF8D4C24FF4804ACCF800A00CF10407A5
:107600004FF40058C7F80080CCF8008010F0010F4C
:1076100014BFCCF800A0C7F800A0C7F80080CCF8D1
:107620000080420812F0010F14BFCCF800A0C7F888
:1076300000A0C7F80080CCF800808318820812F000
:10764000010F14BFCCF800A0C7F800A0C7F8008055
:10765000CCF800801344C20812F0010F14BFCCF81C
:1076600000A0C7F800A0C7F80080CCF800801A443A
:1076700012F0010F14BFCCF800A0C7F800A0C7F8A3
:107680000080CCF80080C7F800A0C7F80080CCF8D4
:107690000080CCF800A0C7F80080CCF80080DFF8AC
:1076A0002CB2DBF8002022F0706242F00062CBF8CE
:1076B0000020CCF800A0DFF818E29EF81820131E76
:1076C00006D000BFC7F80080CCF80080521EF9D168
:1076D000C7F80080DFF8FC91D9F8002012F480424E
:1076E00018BF0122CCF80080C7F80080D9F800400C
:1076F00014F4804418BF0124CCF8008042EA44020C
:10770000C7F80080D9F8004014F4804418BF012461
:10771000CCF8008042EA8402012A1CD0022A18BF59
:10772000042A7DD013F1210006D000BFC7F80080E5
:10773000CCF80080401EF9D1DBF8000020F070602A
:1077400040F04070CBF80000C7F800A0CCF800A0D3
:107750001046BDE8F08F10F0020F4ED000252C46E9
:107760005FF02003C7F80080D9F8006016F4804667
:1077700018BF0126CCF800806D08344445EAC67570
:107780005B1EEFD14346C7F80080D9F8006016F4BD
:10779000804618BF0126CCF80030744014F0010F69
:1077A00018BF0822002918BF0D609EF8181021B1DB
:1077B0003B60CCF80030491EFAD1DBF8001021F014
:1077C000706141F04071CBF80010C7F800A000BF15
:1077D00010F0800F03D040484068CEF808009EF8B3
:1077E0000C00002818BFC7F800A067D0C7F80080B9
:1077F000CCF80080401EF9D160E02BB1C7F80080C2
:10780000CCF800805B1EF9D1DBF8003023F0706308
:1078100043F04073CBF80030C7F800A0096800E0DF
:107820001DE000235FF0200411F0010F14BFCCF81D
:1078300000A0C7F800A0C7F80080CCF800800B4477
:107840004908641EF0D113F0010F14BFCCF800A05A
:10785000C7F800A0C7F80080CCF80080B8E79EF811
:107860001940002C1CBF10F0020F212106D000BFD0
:10787000C7F80080CCF80080491EF9D133B100BFB1
:10788000C7F80080CCF800805B1EF9D1DBF800104F
:1078900021F0706141F04071CBF80010C7F800A0F2
:1078A00064B110F0020F04BFC7F800A0212005D179
:1078B000C7F80080CCF80080401EF9D1CCF800A0B9
:1078C0001046BDE8F08F0000100C0140040C014090
:1078D0000C010020080C0140001000E02DE9F04FE1
:1078E000DFF80CC44FF4804ECCF800E00CF1040A31
:1078F0004FF40059CAF80090FE4E72681346B2F178
:10790000004F80F0D7825B1E002BFCDCCCF800908F
:107910001346B2F1004F38BF531E80F0CE82002BC9
:10792000C8BF5B1EFBDC00BF10F0010F14BFCCF81A
:1079300000E0CAF800E0CAF800901346B2F1004F28
:1079400038BF531E80F0BC82002BC8BF5B1EFBDC1F
:10795000CCF800901346B2F1004F38BF531E80F0B0
:10796000B282002BC8BF5B1EFBDC4508044615F045
:10797000010F14BFCCF800E0CAF800E0CAF800908C
:107980001346B2F1004F38BF531E80F09F82002B88
:10799000C8BF5B1EFBDC00BFCCF800901346B2F101
:1079A000004F38BF531E80F09482002BC8BF5B1E6F
:1079B000FBDC8408054414F0010F14BFCCF800E090
:1079C000CAF800E0CAF800901346B2F1004F38BF81
:1079D000531E80F08182002BC8BF5B1EFBDC00BF02
:1079E000CCF800901346B2F1004F38BF531E80F020
:1079F0007882002BC8BF5B1EFBDC2544C40814F052
:107A0000010F14BFCCF800E0CAF800E0CAF80090FB
:107A10001346B2F1004F38BF531E80F06582002B31
:107A2000C8BF5B1EFBDC00BFCCF800901346B2F170
:107A3000004F38BF531E80F05A82002BC8BF5B1E18
:107A4000FBDC2B1913F0010F14BFCCF800E0CAF8CF
:107A500000E0CAF800901346B2F1004F38BF531E41
:107A600080F04882002BC8BF5B1EFBDCCCF8009086
:107A70001346B2F1004F38BF531E80F03E82002BF8
:107A8000C8BF5B1EFBDC00BFCAF800E0CAF800906C
:107A90001346B2F1004F38BF531E80F03182002BE5
:107AA000C8BF5B1EFBDC00BFCCF800901346B2F1F0
:107AB000004F38BF531E80F02682002BC8BF5B1ECC
:107AC000FBDC00BFCCF800E0CAF800901346B2F12E
:107AD000004F38BF531E80F01982002BC8BF5B1EB9
:107AE000FBDC00BFCCF800901346B2F1004F38BF6A
:107AF000531E80F01082002BC8BF5B1EFBDC7E4B48
:107B00001C6824F0706444F000641C60CCF800E051
:107B1000347E251E0ED000BFCAF80090B2F1004F8F
:107B200080F0FC81CCF80090B2F1004F80F0FC8135
:107B3000641EF1D1CAF800901346B2F1004F38BF6D
:107B4000531E80F0F981002BC8BF5B1EFBDCDFF801
:107B5000ACB1DBF8003013F4804318BF0123CCF83C
:107B600000901446B2F1004F38BF541E80F0E781F8
:107B7000002CC8BF641EFBDCCAF800901446B2F1AA
:107B8000004F38BF541E80F0DD81002CC8BF641E3A
:107B9000FBDC00BFDBF8004014F4804418BF012474
:107BA000CCF800901746B2F1004F38BF571E80F056
:107BB000CC81002FC8BF7F1EFBDC00BF43EA44031B
:107BC000CAF800901446B2F1004F38BF541E80F03E
:107BD000BF81002CC8BF641EFBDC00BFDBF8004087
:107BE00014F4804418BF0124CCF800901646B2F17A
:107BF000004F38BF561E80F0AE81002EC8BF761EE3
:107C0000FBDC00BF43EA8404012C23D0022C18BF04
:107C1000042C75D015F121010ED000BFCAF80090D8
:107C2000B2F1004F80F00282CCF80090B2F1004F28
:107C300080F00282491EF1D12F48016821F0706165
:107C400041F040710160CAF800E0CCF800E0204645
:107C5000BDE8F08F10F0020F69D04FF000084746E2
:107C60005FF02006CAF80090B2F1004F80F07681F4
:107C7000DBF8003013F4804F14BF01250025CCF849
:107C80000090B2F1004F80F06F814FEA58032F440B
:107C900043EAC578761EE5D14D46CAF80090154EE8
:107CA0001346B2F1004F38BF531E7CD2002BC8BF21
:107CB0005B1EFBDCDBF8003013F4804318BF0123AC
:107CC000CCF80050B2F1004F6ED2521E002AFCDCFC
:107CD00087EA030212F0010F18BF0824002918BF19
:107CE000C1F80080337E002B18BF726815D008E001
:107CF000100C01400C010020040C0140080C014054
:107D000089E0CAF80050B2F1004F7DD2CCF80050A3
:107D1000B2F1004F79D25B1EE9D1CA490A6822F05C
:107D2000706242F040720A60CAF800E051E065B14A
:107D3000CAF80090B2F1004F68D200BFCCF80090B2
:107D4000B2F1004F7CD26D1EF2D1BE4B1D6825F002
:107D5000706545F040751D607746CAF800E0002563
:107D60000B68202613F0010F14BFCCF80070CAF87E
:107D70000070CAF80090B2F1004F7DD2CCF80090AC
:107D8000B2F1004F79D21D445B08761EEAD115F09E
:107D9000010F14BFCCF80070CAF800704B46CAF847
:107DA0000090114601E0E5E0E9E0B2F1004F38BF94
:107DB000511E7DD20029C8BF491EFBDCCCF8003023
:107DC000B2F1004F38BF511E73D20029C8BF491EFF
:107DD000FBDC10F0800F03D09B4840689B49886013
:107DE0009A48027B002A1CBFCAF800E041685AD0BA
:107DF000CAF800900846B1F1004F70D2CCF800905C
:107E00000846B1F1004F02E0BCE0C1E0C6E067D235
:107E1000521EEDD147E08D494E7E002E1CBF10F062
:107E2000020F21230FD000BFCAF80090B2F1004F1B
:107E30006FD200BFCCF80090B2F1004F6AD200E0E0
:107E4000B2E05B1EF0D165B1CAF80090B2F1004F0C
:107E500070D200BFCCF80090B2F1004F6BD26D1E13
:107E6000F2D178490B6823F0706343F040730B60E4
:107E7000CAF800E0BEB101E09CE0A1E010F0020F02
:107E800004BFCAF800E021210DD100BFCAF800905C
:107E9000B2F1004F71D200BFCCF80090B2F1004FA8
:107EA0006CD2491EF2D1CCF800E02046BDE8F08F3C
:107EB0008CE08EE05B1EFDD128E55B1EFDD133E535
:107EC0005B1EFDD144E55B1EFDD14EE55B1EFDD181
:107ED00062E55B1EFDD16CE55B1EFDD180E57BE0BC
:107EE0007DE05B1EFDD188E55B1EFDD19CE55B1E40
:107EF000FDD1A6E55B1EFDD1B8E55B1EFDD1C3E556
:107F00005B1EFDD1D0E55B1EFDD1DBE55B1EFDD127
:107F1000E8E567E06CE05B1EFDD1F0E5531E3FF441
:107F200001AE5B1EFDD1FDE5531E3FF401AE5B1EAD
:107F3000FDD1FDE562E067E05B1EFDD107E6641E52
:107F4000FDD119E6641EFDD124E67F1EFDD135E684
:107F5000641EFDD142E6761EFDD153E6531E3FF46A
:107F600087AE5B1EFDD183E6531E3FF48EAE5B1ED3
:107F7000FDD18AE65B1EFDD19CE64BE050E0521E2F
:107F8000FDD1A5E6511E3FF4C1AE491EFDD1BDE6AF
:107F9000511E3FF4C0AE491EFDD1BCE6531E3FF456
:107FA000CDAE5B1EFDD1C9E6531E3FF4CCAE5B1EC9
:107FB000FDD1C8E6511E3FF4E1AE491EFDD1DDE61C
:107FC000511E3FF4E0AE491EFDD1DCE6491EFDD155
:107FD000F4E6521EFDD1FCE6401EFDD10EE7401E28
:107FE000FDD115E7511E3FF425AF491EFDD121E714
:107FF000511E3FF424AF491EFDD120E7511E3FF42E
:1080000029AF491EFDD125E7511E3FF428AF491E77
:10801000FDD124E7501E3FF43FAF401EFDD13BE7AA
:10802000501E3FF43EAF401EFDD13AE7501E3FF4D4
:10803000FBAD401EFDD1F7E5501E3FF4FBAD401EE9
:10804000FDD1F7E5040C0140001000E00C01002018
:108050002DE9F0010028DCBFBDE8F00170474FF4C6
:108060008048184A164E371F5368751411F801CB13
:108070005FF008041CF0010F14BFC7F80080C6F8B9
:1080800000803560B3F1004F10D23D60B3F1004F76
:1080900011D200BF401E641E4FEA5C0C0028DCBFFA
:1080A000BDE8F0017047002CE4D1DFE75A1EECD0A8
:1080B000521EFDD1E9E75A1EECD0521EFDD1E9E770
:1080C000140C01400C01002070B50C46C17800680A
:1080D0000C4D61F31F60A978012918BF00200BD057
:1080E0000021E9702070010A6170010CA170000E7E
:1080F000E0704FF0041070BD00F0A8FA0028F1D134
:10810000EEE70000240000202DE9F0410078114C3A
:1081100000F001060025E0780F4600F00100B042B3
:1081200010D02EB1A01D057045702571A560E560C9
:10813000A078012808D1304600F0DCFA002818BFEA
:10814000E67001D03D7001E0FF2038704FF0011063
:10815000BDE8F081240000202DE9F047324C804634
:108160000E462279A11D82F001002071E0788B5C1F
:108170004FF0000943EA000701F80290012811D0EE
:10818000A068E168451A6178012918BF002518D058
:1081900006F8017B280A06F8015B012906F8010BA5
:1081A00016D038E084F80590A068E168451AA078F8
:1081B000012802D100F0CEFA054460790028F1D1FF
:1081C000E1E7B8F800003C282AD88542E0D929E048
:1081D000E368DFF858C01846290008D0C0F30B0246
:1081E0001CF8020006F8010B501C491EF6D1581964
:1081F000E060E07803280ED1A068E168411AB1F58B
:10820000805F08D2A178C0F30B00012903D1E1708F
:10821000604400F065FAE81C40F40030BDE8F087E7
:108220003C20D2E70546B3E724000020500100209F
:108230002DE9F0411C4D002790F800C0EB780C466A
:108240001CF0010FB8460BD02879AA1D80F001015F
:108250002971115C02F80080194304F8011B012701
:108260001CF0020F0CD0012B0ED0A868E968461A4A
:108270002670300A6070300CA070300EE0703F1D28
:1082800047F48030BDE8F08185F80580A868E9688A
:10829000461AA878012802D100F05CFA06446879F1
:1082A0000028F1D1E4E70000240000202DE9F0418E
:1082B000114C07780E46A078012804BF002000F07A
:1082C00057FA0025002F08BF012005D0012F0AD141
:1082D000012000F04DFA30B1A770E570002818BFFA
:1082E000357004D101E0A570E570FF2030704FF0CB
:1082F0000110BDE8F0810000240000202DE9F041CC
:10830000154D07460026287980F001012971A91D25
:10831000EA780B5C0E5443EA0208012A0ED0A868E2
:10832000E968441A87F800807C70200AB870200C35
:10833000F870200E38710520BDE8F0816E71A868D4
:10834000E968441AA878012802D100F003FA04442D
:1083500068790028F2D1E5E724000020084AD378A4
:1083600013F0010F04D0FF2008704FF00110704788
:108370000078002812BF012850700020F3D1F3E7E5
:108380002400002010B500F001F810BD08B5002051
:1083900000903748006840F480303549086000BFDD
:1083A0003348006800F4003018B90098B0F5A06FA9
:1083B000F6D12F48006800F4003040B92C4800681E
:1083C00020F480302A4908600120009001E000205C
:1083D00000902848006840F01000264908600846D0
:1083E000006820F0030008600846006840F00200C2
:1083F00008601F4840681E49486008464068486059
:108400000846406840F4806048600846406820F4B0
:108410007C104860009828B10846406840F4D000BD
:10842000486005E01248406840F4E8101049486090
:108430000F48006840F080700D49086000BF0C488C
:10844000006800F000700028F9D00948406820F06A
:108450000300074948600846406840F00200486051
:1084600000BF0348406800F00C000828F9D108BD9F
:108470000010024000200240042808D14FF0E02103
:10848000096941F004014FF0E022116107E04FF06B
:10849000E021096921F004014FF0E02211617047E9
:1084A0000E4A1078401E1070517841B10C4811F0FE
:1084B000010F09D0016881F400710160704709491A
:1084C0004FF400700860704711F0020F1ABF21F0DE
:1084D0000201517011F0040FECD170470000002030
:1084E0000C0801401408014010B5002100200022B2
:1084F000214B5B6803F00C0121B1042906D0082947
:1085000028D107E01D4B1E4C236027E01B4B1C4C61
:10851000236023E0184B5B6803F47010164B5B6814
:1085200003F48032022303EB904022B9154B4343FE
:10853000134C23600DE0104B5B6803F4003323B150
:10854000104B43430E4C236003E00C4B43430C4C55
:10855000236003E0094B0A4C236000BF00BF064BB9
:108560005B68C3F30313084CE15C054B1B68CB400D
:10857000034C236010BD00000010024000127A007E
:108580000C00002000093D001000002010B5134829
:10859000006840F001001149086008464068104931
:1085A00008400E494860084600680E4908400B49DB
:1085B00008600846006820F480200860084640688B
:1085C00020F4FE0048604FF41F008860FFF7DAFED9
:1085D0004FF000600449086010BD00000010024028
:1085E0000000FFF8FFFFF6FE08ED00E070B504465E
:1085F0001148124D14F0020F017841F00201017090
:1086000009D00F48016801F580610160AA694FF443
:1086100080610C48904714F0010F08BF70BD4FF403
:108620008061094801F002FC011ED8BF70BD0648F8
:108630006A69BDE8704010470100002018BD0008BD
:10864000640000200C3300200C37002070B5064673
:108650001F48864288BF06461E4C1F4DE07810F02A
:10866000010F11D00021AA6A16209047E86A8047BE
:1086700010F0020F08D0686A8047A1680844A06023
:108680000021AA6A19209047AA6A31460120904722
:1086900010B10020207070BD01202070E07810F033
:1086A000010F12D010F0020F0BD1A0680B4AC0F3DB
:1086B0000B0000F03F01C1F1400110442161AA69A3
:1086C00090470121AA6A16209047304670BD0000ED
:1086D00040420F0024000020E0BC000850010020B0
:1086E000024A1161024A92691047000024000020EA
:1086F000E0BC000870B5144D144C88B128780028EF
:1087000008BF70BD012028610146A269104890474A
:1087100020B90121A26A1620904798B1002070BDAF
:108720000021A26A16209047E06A804710F0020FED
:1087300008D0606A8047A9680844A8600021A26A3E
:1087400019209047012070BD24000020E0BC0008E3
:108750005001002010B5054CE06A804710F002007F
:1087600008BF10BD606ABDE810400047E0BC0008CB
:1087700010B5114A0021114C117070B1A168104858
:10878000884700281CBF002010BD022021698847AF
:1087900080B1E0688047002010BD0021A26A162049
:1087A00090470021A26A192090472169002088473C
:1087B000E0688047012010BD24000020E0BC0008D4
:1087C000E589000870B504460D46034A294620464F
:1087D00000F044F970BD000050BC000808B5024824
:1087E00000F04DFD009008BD50BC000808B50248DF
:1087F00000F048FD009008BD50BC000810B50248CC
:1088000000F088FD10BD000050BC000808B502480B
:1088100000F08DFD009008BD50BC000810B5024866
:1088200000F0EFFD10BD000050BC000810B502487C
:1088300000F0F4FD10BD000050BC000810B5044667
:108840000249204600F022FF10BD000050BC000885
:1088500010B504460249204600F0AEFF10BD0000EE
:1088600050BC000870B504460D46034A2946204610
:1088700001F0E7F870BD000050BC000870B5044678
:108880000D46034A2946204601F06CF970BD0000F0
:1088900050BC000810B504460249204601F0DDF93D
:1088A00010BD000050BC000870B504460D461646C9
:1088B000034B32462946204601F042FA70BD0000C3
:1088C00050BC000810B5024801F06FFA10BD00005E
:1088D00050BC000870B504460D46034A29462046A0
:1088E00000F0BCF870BD0000A8BC000808B5024844
:1088F00000F0C5FC009008BDA8BC000808B50248FF
:1089000000F0C0FC009008BDA8BC000810B50248EB
:1089100000F000FD10BD0000A8BC000808B502482A
:1089200000F005FD009008BDA8BC000810B5024885
:1089300000F067FD10BD0000A8BC000810B502489B
:1089400000F06CFD10BD0000A8BC000810B5044686
:108950000249204600F09AFE10BD0000A8BC0008A5
:1089600010B504460249204600F026FF10BD000065
:10897000A8BC000870B504460D46034A29462046A7
:1089800001F05FF870BD0000A8BC000870B5044697
:108990000D46034A2946204601F0E4F870BD000068
:1089A000A8BC000810B504460249204601F055F95C
:1089B00010BD0000A8BC000870B504460D46164660
:1089C000034B32462946204601F0BAF970BD00003B
:1089D000A8BC000810B5024801F0E7F910BD00007E
:1089E000A8BC000870B5194C054610F0020F1AD04B
:1089F000E068A16822690A44A26002F03F01C1F167
:108A00004001101AC1F58053984284BF0320E070E2
:108A100007D8C2F30B000E4A216110440D4A926937
:108A20009047012060710C4815F0200F04D0217987
:108A3000425C42F08002425415F4607F08BF70BD72
:108A40002179425C42F04002425470BD2400002073
:108A500050010020E0BC00082A0000202DE9FE4F54
:108A600007460D461446206BC07A00F0020018B984
:108A70004FF0FF30BDE8FE8F002000908046834617
:108A8000F8B2153806287CD2DFE800F0A3DC032C0E
:108A90004E6CA5B1606B90F8210010B16FF0010031
:108AA000E8E70120616B81F82100616B81F820000B
:108AB0006068808940F081006168888110E0606BA7
:108AC00090F8200060B16068808920F080006168C3
:108AD00088810020616B81F82000616B81F82100A2
:108AE0000020C7E76068808920F0C0006168888145
:108AF000A06A88B1606B90F8210068B16068808AD4
:108B000020F0800061688882A16A0868016821F00D
:108B10000101016000BF00BF0020616B81F82000EF
:108B2000616B81F82100A5E76068808920F0200052
:108B300061688881E06A80B1206B407968B16068C3
:108B4000808A20F0400061688882E16A08680168D4
:108B500021F00101016000BF00BF0021206B4171C5
:108B6000002087E76068808920F0E00061688881E4
:108B7000A06A98B1606B90F8210078B16068808A33
:108B800000E0C2E020F0800061688882A16A086885
:108B9000016821F00101016000BF00BFE06A80B1FF
:108BA000206B407968B16068808A20F0400061687D
:108BB0008882E16A0868016821F00101016000BF54
:108BC00000BF0021206B41710020616B81F8210002
:108BD00050E7E06810B94FF0FF304BE7BDB1206BB4
:108BE000C068062806D0E268918803231068022234
:108BF000FCF7B9FD206BC07A40F00800216BC87209
:108C00006068808940F008006168888118E06068C9
:108C1000808920F0080061688881206BC07A20F08C
:108C20000800216BC872206BC068062808D0E06875
:108C300030B1E2689188002310681A46FCF793FD72
:108C4000002017E7206910B94FF0FF3012E7E5B3B5
:108C5000206BC06806280AD0206BC068042806D0A4
:108C600022699188002310680122FCF77CFD206BAB
:108C7000C07A40F01000216BC8726068808A40F0B2
:108C80000100616888826068008A40F04000616885
:108C900008826068808940F0100061688881206BDC
:108CA000407918B1E06A08B1012000E0002028B93D
:108CB0006068808940F020006168888160688089F0
:108CC00040F00400616888811DE0FFE760688089EA
:108CD00020F0040061688881206BC07A20F01000C9
:108CE000216BC872206BC06806280CD0206BC0684E
:108CF000042808D0206930B12269918800231068C7
:108D00001A46FCF730FD0020B4E600BF00BF206B20
:108D1000407918B9606B90F8210010B16FF0010034
:108D2000A8E66068808900F0080038B160680088B3
:108D300000F0400010B96FF001009BE6F8B2152872
:108D400072D2DFE800F0C90B0E1D20252AC9C9C95F
:108D5000C9C9C9C9C9C9373B697EB8000120029099
:108D6000BDE02078C0F3400020B148F4006848F42A
:108D7000807802E06FF006007CE602200290AEE010
:108D80006FF0060076E64BF0080B04200290A6E098
:108D90004BF0020B05200290A1E02078C0F34010B8
:108DA00010B14BF0200B02E06FF0060062E60620E7
:108DB000029094E0616B4D8300205BE6206BC068FD
:108DC000052824D015B36068808A40F004006168EB
:108DD0008882D4F808A0FE48B0FBFAFA012605E024
:108DE0000AFB06F0A84200D902E0761CFF2EF7D954
:108DF00000BFB6F5807F02D14FF0FF303AE66068E1
:108E0000008B20F0FF0030436168088302E04FF0E0
:108E1000FF302FE600202DE6206BC06806280BD11E
:108E2000FF2D02D9C01F25E656E06068008BC0B256
:108E300028436168088302E04FF0FF301AE6002003
:108E400018E6206BC068062830D1D4F808A0E048A6
:108E5000B0FBFAFA012619E00AFB06F04000642193
:108E6000484305EB051101EB4101B0EB410F0CD27A
:108E70000AFB06F040006421484305EB051101EBB5
:108E80004511B0EB410F00D902E0761C402EE3D330
:108E900000BF402E02D14FF0FF30EBE56068008B41
:108EA00020F0FF0030436168088302E04FF0FF309C
:108EB000E0E50020DEE5206BC068062807D14DB153
:108EC0006068808A40F010006168888202E04FF09C
:108ED000FF30CFE50020CDE56FF00300CAE500BF0D
:108EE00007F4E06060B1B0F5807F13D0B0F5E06FBB
:108EF0001DD107F4405010B96FF00800BAE519E031
:108F000007F4405028B148F02008009840F4805001
:108F100000900FE007F4405010B16FF00800A9E591
:108F200048F02008009840F48050009002E06FF074
:108F300008009FE500BF07F4405030B1B0F5805FF6
:108F400004D0B0F5005F0BD105E00CE0009840F4D0
:108F50008060009007E0009840F4C060009002E05C
:108F60006FF0090086E500BF07F4404048B1B0F556
:108F7000804F07D0B0F5004F07D0B0F5404F0AD171
:108F800006E00BE048F4005808E048F4405805E0DB
:108F900048F4805802E06FF00A006BE500BF07F468
:108FA000403048B1B0F5803F09D0B0F5003F13D054
:108FB000B0F5403F2ED11CE04FF000092DE02078A5
:108FC000C0F3C01020B14FF480394BF4807B02E035
:108FD0006FF00B004EE520E02088C0F3002020B1A8
:108FE0004FF400394BF4C06B02E06FF00B0041E529
:108FF00013E02078C0F3C01040B12088C0F30020F7
:1090000020B14FF440394BF4E06B02E06FF00B00FD
:1090100030E502E06FF00B002CE500BF029802285B
:109020001DD107F4802018B1B0F5802F04D100E0E5
:1090300005E048F4806802E06FF00C001AE500BF1C
:1090400007F4002018B1B0F5002F04D100E005E0CE
:1090500048F4007802E06FF00D000BE500BFA06857
:1090600000EBC00101EB0010A900B0FBF1F064219E
:10907000B0FBF1F1A06800EBC00202EB0010AA0007
:10908000B0FBF2F0A26802EBC20303EB0212AB00EA
:10909000B2FBF3F26423B2FBF3F202EBC20303EB85
:1090A0000212A0EB8200322202EB00106422B0FB1D
:1090B000F2FA61F31F1AA06800011FFA8AF1B0FBEF
:1090C000F1F00009019064210198484305EB051176
:1090D00001EB4101B0EB410F09D2642101984843F3
:1090E00005EB051101EB4511B0EB410F02D86FF014
:1090F0000700BFE46068808920F4005061688881BF
:109100006168A1F808A00298216BC860206BC0F8C4
:109110001090206BC068062809D1E06830B1E26881
:109120009188032310680222FCF71DFB18E0206BD6
:10913000C07A00F0080048B1E06880B1E268918828
:10914000032310680222FCF70EFB08E0E06830B150
:10915000E2689188002310681A46FCF704FB00BF00
:1091600000BF206BC068042802D006280BD100E0A5
:1091700000BF206930B122699188002310681A4627
:10918000FCF7F1FA18E0206BC07A00F0100048B14B
:10919000206980B122699188002310680122FCF7C0
:1091A000E2FA08E0206930B1226991880023106852
:1091B0001A46FCF7D8FA00BF00BF6069D0B1206B37
:1091C000C068022802D006280BD100BF626901E006
:1091D00000CA9A3B9188032310680222FCF7C3FA65
:1091E00007E062699188002310681A46FCF7BBFA11
:1091F00000BF00BFA069A0B1B9F5803F02D0B9F5AA
:10920000403F07D1A2699188032310680222FCF72E
:10921000AAFA06E0A2699188002310681A46FCF7B2
:10922000A2FAE069A0B1B9F5003F02D0B9F5403F1C
:1092300007D1E2699188002310680122FCF793FAB4
:1092400006E0E2699188002310680122FCF78BFA9E
:109250000098616888816168A1F810806168A1F850
:1092600014B06068808940F4005061688881206B88
:10927000C07A40F00400216BC872002010E401465F
:10928000086870470CB50146019820F00100019074
:10929000086B006920B1086B0069B0F5803F0ED102
:1092A000C86960B1CB6998881A689368C34003F0B5
:1092B000010323B9019820F00100401C019001989E
:1092C00020F002000190019820F008000190019820
:1092D00020F0040001900198009A60F300020092CF
:1092E00001984208009862F34100009001988208BA
:1092F000009862F3820000900198C208009862F31F
:10930000C300009001980209009862F31F100090BA
:1093100000980CBD0146C86A30B1CA6A106842683C
:10932000486B0068801A7047486B0069FBE70CB512
:109330000146486B90F8210028B1019820F0010007
:10934000401C019008E048680088012222EA90123F
:10935000019862F300000190086B4279019862F372
:1093600041000190086B8279019862F382000190BC
:10937000086BC279019862F3C3000190086B027A0E
:10938000019862F304100190086B427A019862F32D
:1093900045100190086B827A019862F38610019063
:1093A0000198009A60F30002009201984208009828
:1093B00062F34100009001988208009862F38200F5
:1093C00000900198C208009862F3C30000900198D1
:1093D0000209009862F30410009001984209009875
:1093E00062F34510009001988209009862F386109C
:1093F00000900198C209009862F3DF100090009875
:109400000CBD0146886A30B18A6A10684268486BB0
:109410004068801A7047486B4069FBE72DE9F041CE
:1094200004466068068800270025A84606F020004C
:10943000616889890840002860D0206B407938B97C
:10944000606880880121206BC17145F0200555E0DE
:10945000206BC068022806D1606BC069012802D168
:109460006068808802E06068B0F80480606B8268A1
:10947000501C636B986082F800806068878907F4ED
:10948000806050B907F4805038B14FEA2821606BF2
:109490008268501C636B98601170606B0069401C9F
:1094A000616B0861606B0069616B0968884225D156
:1094B0006068808920F01000616888810021206B3D
:1094C0004171206BC068022816D1606BC76900200B
:1094D000616BC861012F04D0022F05D0032F09D181
:1094E00005E045F0010506E045F0020503E045F022
:1094F000040500E000BF01E045F0020506F01000A1
:1095000061688989084018B16068808845F0400525
:1095100006F08000616889890840002863D0606B8C
:1095200090F8200030B16068808940F001006168E7
:10953000888158E0606B4068616B4969884222D03D
:10954000206BC068022807D1606BC069022803D174
:10955000606BB0F81A8016E0606BC168481C626BE3
:10956000D06091F800806068878907F4806050B906
:1095700007F4805038B1606BC168481C626BD060E2
:10958000087848EA0028606B4069401C616B4861BC
:109590006068A0F80480606B4068616B496988422C
:1095A00021D16068808920F08000616888816068CE
:1095B000808940F04000616888810020616B81F8FB
:1095C0002100206BC06802280BD1606BC0690128A4
:1095D00009D1206BC07A00F0100020B945F00105D8
:1095E00001E045F0010506F0400061688989084006
:1095F00038B16068808920F040006168888145F05A
:10960000080506F0080030B1606880880121206BF1
:10961000C17145F0200506F0020030B16068808815
:109620000121206B417245F4807506F0010030B1D4
:10963000606880880121206B817245F4007506F412
:10964000807050B16068008820F480706168088084
:109650000121206B017245F0800506F4007038B1DD
:109660006068008820F400706168088045F48065B7
:1096700025B1206B006808B1012000E0002018B17E
:10968000206B016828468847BDE8F08170B5054623
:109690000C46206BC07A00F0010008B1002070BDBC
:1096A000206B05600020216B08710021206B417147
:1096B000206B8171206BC171206B0172206B417234
:1096C000206B81720020216BC860616B81F82100E2
:1096D0002421606BFAF73FFD608CFBF71FFFE06809
:1096E00020B1E16808680121FCF77AF8206920B10F
:1096F000216908680121FCF773F8606920B161698C
:1097000008680121FCF76CF8A06920B1A16908681C
:109710000121FCF765F8E06920B1E16908680121E1
:10972000FCF75EF80120216BC8720020B7E700004B
:109730001D49884205D11D49C96841F480411B4A31
:10974000D1601B49884205D11849096941F40031AB
:10975000164A11611749884205D11449096941F433
:109760008021124A116100BF00BF00BF00BF0E4937
:10977000884205D10D49C96821F480410B4AD16066
:109780000B49884205D10949096921F40031074A8A
:1097900011610849884205D10449096921F48021F1
:1097A000024A116170470000003801400010024079
:1097B000004400400048004070B505460C4625B105
:1097C000012D69D0022D72D169E06068FFF7B0FF0A
:1097D00094F92400002817DB00F01F0201219140BA
:1097E000714A430942F8231000BF00BF00BFBFF316
:1097F0004F8F00BF00BF00BF00BF00BF00BFBFF35F
:109800006F8F00BF00BF00BF00BFE06A20B1E26AF7
:1098100051791079FBF786FDA06A20B1A26A5179CF
:109820001079FBF77FFD61496068884205D1604887
:10983000806920F480405E4988615E4960688842A2
:1098400005D15B48C06920F400305949C8615A49C4
:109850006068884205D15648C06920F48020544988
:10986000C8610020216B08710021206B4171206BC1
:109870008171206BC171206B0172206B4172206B72
:1098800081720020616B81F82100206BC07A20F08A
:109890000200216BC87283E06FF0030070BD206B83
:1098A000C07A00F0010018B94FF0FF30F6E774E01D
:1098B000206BC07A00F0020008B10020EEE7002023
:1098C000216B08710021206B4171206B8171206B2D
:1098D000C171206B0172206B4172206B817200207C
:1098E000616B81F82100616B4883616BC861616BBA
:1098F00081F82000216BC860216B08610320216B77
:10990000C8722A496068884205D12948806940F4B4
:1099100080402749886127496068884205D12448EA
:10992000C06940F400302249C86123496068884218
:1099300005D11F48C06940F480201D49C86194F9D1
:109940002400002807DB00F01F02012191401B4A80
:10995000430942F8231000BF94F92400002809DBD2
:1099600000F01F02012191404209920002F1E02221
:10997000C2F8001100BFE06A20B1E26A51791079A3
:10998000FBF750FCA06A20B1A26A51791079FBF76D
:1099900049FC6068FFF7CCFE02E06FF003007DE752
:1099A00000BF00207AE7000080E100E000380140BD
:1099B00000100240004400400048004080E200E007
:1099C00070B50446E16A0868416819B1606B0068C7
:1099D00000B170BD6068808920F0100061688881E6
:1099E0000025206BC068022813D1606BC669002077
:1099F000616BC861012E04D0022E04D0032E06D163
:109A000003E0012504E0022502E0042500E000BF98
:109A100000E00225606B0068616B08610021206B2B
:109A200041716068808940F0200061688881206B06
:109A3000006820B11DB1206B01682846884700BF2F
:109A4000C7E72DE9F04706460F46144606B11FB991
:109A50006FF00400BDE8F087206BC07A00F00400CE
:109A600010B94FF0FF30F5E7206B4079012801D1A4
:109A7000C01EEFE76068808920F02000616888815F
:109A8000606B07600021206B0172206B4172206BBC
:109A9000C171206B8172606B86600020616B086110
:109AA0000121206B41718025206BC068022804D100
:109AB000606BC069012800D10025E06A88B3E06AC4
:109AC00080794FF4405101EA0030801C0543606802
:109AD000B0F80C9009F4805028B109F4806010B9F6
